{
	"Airlines.sol": {
		"Airlines": {
			"abi": [
				{
					"inputs": [],
					"stateMutability": "payable",
					"type": "constructor"
				},
				{
					"inputs": [
						{
							"internalType": "address",
							"name": "",
							"type": "address"
						}
					],
					"name": "balanceDetails",
					"outputs": [
						{
							"internalType": "uint256",
							"name": "escrow",
							"type": "uint256"
						},
						{
							"internalType": "uint256",
							"name": "status",
							"type": "uint256"
						},
						{
							"internalType": "uint256",
							"name": "hashOfDetails",
							"type": "uint256"
						}
					],
					"stateMutability": "view",
					"type": "function"
				},
				{
					"inputs": [],
					"name": "chairperson",
					"outputs": [
						{
							"internalType": "address",
							"name": "",
							"type": "address"
						}
					],
					"stateMutability": "view",
					"type": "function"
				},
				{
					"inputs": [
						{
							"internalType": "address",
							"name": "",
							"type": "address"
						}
					],
					"name": "membership",
					"outputs": [
						{
							"internalType": "uint256",
							"name": "",
							"type": "uint256"
						}
					],
					"stateMutability": "view",
					"type": "function"
				},
				{
					"inputs": [],
					"name": "register",
					"outputs": [],
					"stateMutability": "payable",
					"type": "function"
				},
				{
					"inputs": [
						{
							"internalType": "address",
							"name": "toAirline",
							"type": "address"
						},
						{
							"internalType": "uint256",
							"name": "hashOfDetails",
							"type": "uint256"
						}
					],
					"name": "request",
					"outputs": [],
					"stateMutability": "nonpayable",
					"type": "function"
				},
				{
					"inputs": [
						{
							"internalType": "address",
							"name": "fromAirline",
							"type": "address"
						},
						{
							"internalType": "uint256",
							"name": "hashOfDetails",
							"type": "uint256"
						},
						{
							"internalType": "uint256",
							"name": "done",
							"type": "uint256"
						}
					],
					"name": "respone",
					"outputs": [],
					"stateMutability": "nonpayable",
					"type": "function"
				},
				{
					"inputs": [
						{
							"internalType": "address payable",
							"name": "toAirline",
							"type": "address"
						}
					],
					"name": "settlePayment",
					"outputs": [],
					"stateMutability": "payable",
					"type": "function"
				},
				{
					"inputs": [
						{
							"internalType": "address payable",
							"name": "AirlineZ",
							"type": "address"
						}
					],
					"name": "unregister",
					"outputs": [],
					"stateMutability": "nonpayable",
					"type": "function"
				}
			],
			"devdoc": {
				"methods": {}
			},
			"evm": {
				"assembly": "    /* \"Airlines.sol\":25:2415  contract Airlines {... */\n  mstore(0x40, 0x80)\n    /* \"Airlines.sol\":612:622  msg.sender */\n  caller\n    /* \"Airlines.sol\":598:609  chairperson */\n  0x00\n  dup1\n    /* \"Airlines.sol\":598:622  chairperson = msg.sender */\n  0x0100\n  exp\n  dup2\n  sload\n  dup2\n  0xffffffffffffffffffffffffffffffffffffffff\n  mul\n  not\n  and\n  swap1\n  dup4\n  0xffffffffffffffffffffffffffffffffffffffff\n  and\n  mul\n  or\n  swap1\n  sstore\n  pop\n    /* \"Airlines.sol\":700:701  1 */\n  0x01\n    /* \"Airlines.sol\":677:687  membership */\n  0x02\n    /* \"Airlines.sol\":677:699  membership[msg.sender] */\n  0x00\n    /* \"Airlines.sol\":688:698  msg.sender */\n  caller\n    /* \"Airlines.sol\":677:699  membership[msg.sender] */\n  0xffffffffffffffffffffffffffffffffffffffff\n  and\n  0xffffffffffffffffffffffffffffffffffffffff\n  and\n  dup2\n  mstore\n  0x20\n  add\n  swap1\n  dup2\n  mstore\n  0x20\n  add\n  0x00\n  keccak256\n    /* \"Airlines.sol\":677:701  membership[msg.sender]=1 */\n  dup2\n  swap1\n  sstore\n  pop\n    /* \"Airlines.sol\":768:777  msg.value */\n  callvalue\n    /* \"Airlines.sol\":732:746  balanceDetails */\n  0x01\n    /* \"Airlines.sol\":732:758  balanceDetails[msg.sender] */\n  0x00\n    /* \"Airlines.sol\":747:757  msg.sender */\n  caller\n    /* \"Airlines.sol\":732:758  balanceDetails[msg.sender] */\n  0xffffffffffffffffffffffffffffffffffffffff\n  and\n  0xffffffffffffffffffffffffffffffffffffffff\n  and\n  dup2\n  mstore\n  0x20\n  add\n  swap1\n  dup2\n  mstore\n  0x20\n  add\n  0x00\n  keccak256\n    /* \"Airlines.sol\":732:765  balanceDetails[msg.sender].escrow */\n  0x00\n  add\n    /* \"Airlines.sol\":732:777  balanceDetails[msg.sender].escrow = msg.value */\n  dup2\n  swap1\n  sstore\n  pop\n    /* \"Airlines.sol\":25:2415  contract Airlines {... */\n  dataSize(sub_0)\n  dup1\n  dataOffset(sub_0)\n  0x00\n  codecopy\n  0x00\n  return\nstop\n\nsub_0: assembly {\n        /* \"Airlines.sol\":25:2415  contract Airlines {... */\n      mstore(0x40, 0x80)\n      jumpi(tag_1, lt(calldatasize, 0x04))\n      shr(0xe0, calldataload(0x00))\n      dup1\n      0x2ec2c246\n      gt\n      tag_10\n      jumpi\n      dup1\n      0x2ec2c246\n      eq\n      tag_6\n      jumpi\n      dup1\n      0x772ccf5d\n      eq\n      tag_7\n      jumpi\n      dup1\n      0xa3aa1913\n      eq\n      tag_8\n      jumpi\n      dup1\n      0xc8c01a55\n      eq\n      tag_9\n      jumpi\n      jump(tag_1)\n    tag_10:\n      dup1\n      0x1aa3a008\n      eq\n      tag_2\n      jumpi\n      dup1\n      0x1cc3234f\n      eq\n      tag_3\n      jumpi\n      dup1\n      0x2109dc88\n      eq\n      tag_4\n      jumpi\n      dup1\n      0x2e4176cf\n      eq\n      tag_5\n      jumpi\n    tag_1:\n      0x00\n      dup1\n      revert\n        /* \"Airlines.sol\":827:1011  function register() public payable{... */\n    tag_2:\n      tag_11\n      tag_12\n      jump\t// in\n    tag_11:\n      stop\n        /* \"Airlines.sol\":1589:1878  function respone(address fromAirline,uint hashOfDetails,uint done) onlyMembership public {... */\n    tag_3:\n      callvalue\n        /* \"--CODEGEN--\":8:17   */\n      dup1\n        /* \"--CODEGEN--\":5:7   */\n      iszero\n      tag_13\n      jumpi\n        /* \"--CODEGEN--\":30:31   */\n      0x00\n        /* \"--CODEGEN--\":27:28   */\n      dup1\n        /* \"--CODEGEN--\":20:32   */\n      revert\n        /* \"--CODEGEN--\":5:7   */\n    tag_13:\n        /* \"Airlines.sol\":1589:1878  function respone(address fromAirline,uint hashOfDetails,uint done) onlyMembership public {... */\n      pop\n      tag_14\n      0x04\n      dup1\n      calldatasize\n      sub\n        /* \"--CODEGEN--\":13:15   */\n      0x60\n        /* \"--CODEGEN--\":8:11   */\n      dup2\n        /* \"--CODEGEN--\":5:16   */\n      lt\n        /* \"--CODEGEN--\":2:4   */\n      iszero\n      tag_15\n      jumpi\n        /* \"--CODEGEN--\":29:30   */\n      0x00\n        /* \"--CODEGEN--\":26:27   */\n      dup1\n        /* \"--CODEGEN--\":19:31   */\n      revert\n        /* \"--CODEGEN--\":2:4   */\n    tag_15:\n        /* \"Airlines.sol\":1589:1878  function respone(address fromAirline,uint hashOfDetails,uint done) onlyMembership public {... */\n      dup2\n      add\n      swap1\n      dup1\n      dup1\n      calldataload\n      0xffffffffffffffffffffffffffffffffffffffff\n      and\n      swap1\n      0x20\n      add\n      swap1\n      swap3\n      swap2\n      swap1\n      dup1\n      calldataload\n      swap1\n      0x20\n      add\n      swap1\n      swap3\n      swap2\n      swap1\n      dup1\n      calldataload\n      swap1\n      0x20\n      add\n      swap1\n      swap3\n      swap2\n      swap1\n      pop\n      pop\n      pop\n      tag_16\n      jump\t// in\n    tag_14:\n      stop\n        /* \"Airlines.sol\":2033:2408  function settlePayment(address payable toAirline) onlyMembership payable public {... */\n    tag_4:\n      tag_17\n      0x04\n      dup1\n      calldatasize\n      sub\n        /* \"--CODEGEN--\":13:15   */\n      0x20\n        /* \"--CODEGEN--\":8:11   */\n      dup2\n        /* \"--CODEGEN--\":5:16   */\n      lt\n        /* \"--CODEGEN--\":2:4   */\n      iszero\n      tag_18\n      jumpi\n        /* \"--CODEGEN--\":29:30   */\n      0x00\n        /* \"--CODEGEN--\":26:27   */\n      dup1\n        /* \"--CODEGEN--\":19:31   */\n      revert\n        /* \"--CODEGEN--\":2:4   */\n    tag_18:\n        /* \"Airlines.sol\":2033:2408  function settlePayment(address payable toAirline) onlyMembership payable public {... */\n      dup2\n      add\n      swap1\n      dup1\n      dup1\n      calldataload\n      0xffffffffffffffffffffffffffffffffffffffff\n      and\n      swap1\n      0x20\n      add\n      swap1\n      swap3\n      swap2\n      swap1\n      pop\n      pop\n      pop\n      tag_19\n      jump\t// in\n    tag_17:\n      stop\n        /* \"Airlines.sol\":49:75  address public chairperson */\n    tag_5:\n      callvalue\n        /* \"--CODEGEN--\":8:17   */\n      dup1\n        /* \"--CODEGEN--\":5:7   */\n      iszero\n      tag_20\n      jumpi\n        /* \"--CODEGEN--\":30:31   */\n      0x00\n        /* \"--CODEGEN--\":27:28   */\n      dup1\n        /* \"--CODEGEN--\":20:32   */\n      revert\n        /* \"--CODEGEN--\":5:7   */\n    tag_20:\n        /* \"Airlines.sol\":49:75  address public chairperson */\n      pop\n      tag_21\n      tag_22\n      jump\t// in\n    tag_21:\n      mload(0x40)\n      dup1\n      dup3\n      0xffffffffffffffffffffffffffffffffffffffff\n      and\n      0xffffffffffffffffffffffffffffffffffffffff\n      and\n      dup2\n      mstore\n      0x20\n      add\n      swap2\n      pop\n      pop\n      mload(0x40)\n      dup1\n      swap2\n      sub\n      swap1\n      return\n        /* \"Airlines.sol\":1023:1306  function unregister(address payable AirlineZ) chairPersonOnly public {... */\n    tag_6:\n      callvalue\n        /* \"--CODEGEN--\":8:17   */\n      dup1\n        /* \"--CODEGEN--\":5:7   */\n      iszero\n      tag_23\n      jumpi\n        /* \"--CODEGEN--\":30:31   */\n      0x00\n        /* \"--CODEGEN--\":27:28   */\n      dup1\n        /* \"--CODEGEN--\":20:32   */\n      revert\n        /* \"--CODEGEN--\":5:7   */\n    tag_23:\n        /* \"Airlines.sol\":1023:1306  function unregister(address payable AirlineZ) chairPersonOnly public {... */\n      pop\n      tag_24\n      0x04\n      dup1\n      calldatasize\n      sub\n        /* \"--CODEGEN--\":13:15   */\n      0x20\n        /* \"--CODEGEN--\":8:11   */\n      dup2\n        /* \"--CODEGEN--\":5:16   */\n      lt\n        /* \"--CODEGEN--\":2:4   */\n      iszero\n      tag_25\n      jumpi\n        /* \"--CODEGEN--\":29:30   */\n      0x00\n        /* \"--CODEGEN--\":26:27   */\n      dup1\n        /* \"--CODEGEN--\":19:31   */\n      revert\n        /* \"--CODEGEN--\":2:4   */\n    tag_25:\n        /* \"Airlines.sol\":1023:1306  function unregister(address payable AirlineZ) chairPersonOnly public {... */\n      dup2\n      add\n      swap1\n      dup1\n      dup1\n      calldataload\n      0xffffffffffffffffffffffffffffffffffffffff\n      and\n      swap1\n      0x20\n      add\n      swap1\n      swap3\n      swap2\n      swap1\n      pop\n      pop\n      pop\n      tag_26\n      jump\t// in\n    tag_24:\n      stop\n        /* \"Airlines.sol\":269:312  mapping (address => uint) public membership */\n    tag_7:\n      callvalue\n        /* \"--CODEGEN--\":8:17   */\n      dup1\n        /* \"--CODEGEN--\":5:7   */\n      iszero\n      tag_27\n      jumpi\n        /* \"--CODEGEN--\":30:31   */\n      0x00\n        /* \"--CODEGEN--\":27:28   */\n      dup1\n        /* \"--CODEGEN--\":20:32   */\n      revert\n        /* \"--CODEGEN--\":5:7   */\n    tag_27:\n        /* \"Airlines.sol\":269:312  mapping (address => uint) public membership */\n      pop\n      tag_28\n      0x04\n      dup1\n      calldatasize\n      sub\n        /* \"--CODEGEN--\":13:15   */\n      0x20\n        /* \"--CODEGEN--\":8:11   */\n      dup2\n        /* \"--CODEGEN--\":5:16   */\n      lt\n        /* \"--CODEGEN--\":2:4   */\n      iszero\n      tag_29\n      jumpi\n        /* \"--CODEGEN--\":29:30   */\n      0x00\n        /* \"--CODEGEN--\":26:27   */\n      dup1\n        /* \"--CODEGEN--\":19:31   */\n      revert\n        /* \"--CODEGEN--\":2:4   */\n    tag_29:\n        /* \"Airlines.sol\":269:312  mapping (address => uint) public membership */\n      dup2\n      add\n      swap1\n      dup1\n      dup1\n      calldataload\n      0xffffffffffffffffffffffffffffffffffffffff\n      and\n      swap1\n      0x20\n      add\n      swap1\n      swap3\n      swap2\n      swap1\n      pop\n      pop\n      pop\n      tag_30\n      jump\t// in\n    tag_28:\n      mload(0x40)\n      dup1\n      dup3\n      dup2\n      mstore\n      0x20\n      add\n      swap2\n      pop\n      pop\n      mload(0x40)\n      dup1\n      swap2\n      sub\n      swap1\n      return\n        /* \"Airlines.sol\":181:231  mapping (address => details) public balanceDetails */\n    tag_8:\n      callvalue\n        /* \"--CODEGEN--\":8:17   */\n      dup1\n        /* \"--CODEGEN--\":5:7   */\n      iszero\n      tag_31\n      jumpi\n        /* \"--CODEGEN--\":30:31   */\n      0x00\n        /* \"--CODEGEN--\":27:28   */\n      dup1\n        /* \"--CODEGEN--\":20:32   */\n      revert\n        /* \"--CODEGEN--\":5:7   */\n    tag_31:\n        /* \"Airlines.sol\":181:231  mapping (address => details) public balanceDetails */\n      pop\n      tag_32\n      0x04\n      dup1\n      calldatasize\n      sub\n        /* \"--CODEGEN--\":13:15   */\n      0x20\n        /* \"--CODEGEN--\":8:11   */\n      dup2\n        /* \"--CODEGEN--\":5:16   */\n      lt\n        /* \"--CODEGEN--\":2:4   */\n      iszero\n      tag_33\n      jumpi\n        /* \"--CODEGEN--\":29:30   */\n      0x00\n        /* \"--CODEGEN--\":26:27   */\n      dup1\n        /* \"--CODEGEN--\":19:31   */\n      revert\n        /* \"--CODEGEN--\":2:4   */\n    tag_33:\n        /* \"Airlines.sol\":181:231  mapping (address => details) public balanceDetails */\n      dup2\n      add\n      swap1\n      dup1\n      dup1\n      calldataload\n      0xffffffffffffffffffffffffffffffffffffffff\n      and\n      swap1\n      0x20\n      add\n      swap1\n      swap3\n      swap2\n      swap1\n      pop\n      pop\n      pop\n      tag_34\n      jump\t// in\n    tag_32:\n      mload(0x40)\n      dup1\n      dup5\n      dup2\n      mstore\n      0x20\n      add\n      dup4\n      dup2\n      mstore\n      0x20\n      add\n      dup3\n      dup2\n      mstore\n      0x20\n      add\n      swap4\n      pop\n      pop\n      pop\n      pop\n      mload(0x40)\n      dup1\n      swap2\n      sub\n      swap1\n      return\n        /* \"Airlines.sol\":1312:1584  function request(address toAirline,uint hashOfDetails) onlyMembership public {... */\n    tag_9:\n      callvalue\n        /* \"--CODEGEN--\":8:17   */\n      dup1\n        /* \"--CODEGEN--\":5:7   */\n      iszero\n      tag_35\n      jumpi\n        /* \"--CODEGEN--\":30:31   */\n      0x00\n        /* \"--CODEGEN--\":27:28   */\n      dup1\n        /* \"--CODEGEN--\":20:32   */\n      revert\n        /* \"--CODEGEN--\":5:7   */\n    tag_35:\n        /* \"Airlines.sol\":1312:1584  function request(address toAirline,uint hashOfDetails) onlyMembership public {... */\n      pop\n      tag_36\n      0x04\n      dup1\n      calldatasize\n      sub\n        /* \"--CODEGEN--\":13:15   */\n      0x40\n        /* \"--CODEGEN--\":8:11   */\n      dup2\n        /* \"--CODEGEN--\":5:16   */\n      lt\n        /* \"--CODEGEN--\":2:4   */\n      iszero\n      tag_37\n      jumpi\n        /* \"--CODEGEN--\":29:30   */\n      0x00\n        /* \"--CODEGEN--\":26:27   */\n      dup1\n        /* \"--CODEGEN--\":19:31   */\n      revert\n        /* \"--CODEGEN--\":2:4   */\n    tag_37:\n        /* \"Airlines.sol\":1312:1584  function request(address toAirline,uint hashOfDetails) onlyMembership public {... */\n      dup2\n      add\n      swap1\n      dup1\n      dup1\n      calldataload\n      0xffffffffffffffffffffffffffffffffffffffff\n      and\n      swap1\n      0x20\n      add\n      swap1\n      swap3\n      swap2\n      swap1\n      dup1\n      calldataload\n      swap1\n      0x20\n      add\n      swap1\n      swap3\n      swap2\n      swap1\n      pop\n      pop\n      pop\n      tag_38\n      jump\t// in\n    tag_36:\n      stop\n        /* \"Airlines.sol\":827:1011  function register() public payable{... */\n    tag_12:\n      jump\t// out\n        /* \"Airlines.sol\":1589:1878  function respone(address fromAirline,uint hashOfDetails,uint done) onlyMembership public {... */\n    tag_16:\n        /* \"Airlines.sol\":533:534  1 */\n      0x01\n        /* \"Airlines.sol\":509:519  membership */\n      0x02\n        /* \"Airlines.sol\":509:531  membership[msg.sender] */\n      0x00\n        /* \"Airlines.sol\":520:530  msg.sender */\n      caller\n        /* \"Airlines.sol\":509:531  membership[msg.sender] */\n      0xffffffffffffffffffffffffffffffffffffffff\n      and\n      0xffffffffffffffffffffffffffffffffffffffff\n      and\n      dup2\n      mstore\n      0x20\n      add\n      swap1\n      dup2\n      mstore\n      0x20\n      add\n      0x00\n      keccak256\n      sload\n        /* \"Airlines.sol\":509:534  membership[msg.sender]==1 */\n      eq\n        /* \"Airlines.sol\":501:535  require(membership[msg.sender]==1) */\n      tag_41\n      jumpi\n      0x00\n      dup1\n      revert\n    tag_41:\n        /* \"Airlines.sol\":1719:1720  1 */\n      0x01\n        /* \"Airlines.sol\":1692:1702  membership */\n      0x02\n        /* \"Airlines.sol\":1692:1715  membership[fromAirline] */\n      0x00\n        /* \"Airlines.sol\":1703:1714  fromAirline */\n      dup6\n        /* \"Airlines.sol\":1692:1715  membership[fromAirline] */\n      0xffffffffffffffffffffffffffffffffffffffff\n      and\n      0xffffffffffffffffffffffffffffffffffffffff\n      and\n      dup2\n      mstore\n      0x20\n      add\n      swap1\n      dup2\n      mstore\n      0x20\n      add\n      0x00\n      keccak256\n      sload\n        /* \"Airlines.sol\":1692:1720  membership[fromAirline] != 1 */\n      eq\n        /* \"Airlines.sol\":1688:1754  if (membership[fromAirline] != 1){... */\n      tag_43\n      jumpi\n        /* \"Airlines.sol\":1735:1743  revert() */\n      0x00\n      dup1\n      revert\n        /* \"Airlines.sol\":1688:1754  if (membership[fromAirline] != 1){... */\n    tag_43:\n        /* \"Airlines.sol\":1799:1803  done */\n      dup1\n        /* \"Airlines.sol\":1763:1777  balanceDetails */\n      0x01\n        /* \"Airlines.sol\":1763:1789  balanceDetails[msg.sender] */\n      0x00\n        /* \"Airlines.sol\":1778:1788  msg.sender */\n      caller\n        /* \"Airlines.sol\":1763:1789  balanceDetails[msg.sender] */\n      0xffffffffffffffffffffffffffffffffffffffff\n      and\n      0xffffffffffffffffffffffffffffffffffffffff\n      and\n      dup2\n      mstore\n      0x20\n      add\n      swap1\n      dup2\n      mstore\n      0x20\n      add\n      0x00\n      keccak256\n        /* \"Airlines.sol\":1763:1796  balanceDetails[msg.sender].status */\n      0x01\n      add\n        /* \"Airlines.sol\":1763:1803  balanceDetails[msg.sender].status = done */\n      dup2\n      swap1\n      sstore\n      pop\n        /* \"Airlines.sol\":1857:1870  hashOfDetails */\n      dup2\n        /* \"Airlines.sol\":1813:1827  balanceDetails */\n      0x01\n        /* \"Airlines.sol\":1813:1840  balanceDetails[fromAirline] */\n      0x00\n        /* \"Airlines.sol\":1828:1839  fromAirline */\n      dup6\n        /* \"Airlines.sol\":1813:1840  balanceDetails[fromAirline] */\n      0xffffffffffffffffffffffffffffffffffffffff\n      and\n      0xffffffffffffffffffffffffffffffffffffffff\n      and\n      dup2\n      mstore\n      0x20\n      add\n      swap1\n      dup2\n      mstore\n      0x20\n      add\n      0x00\n      keccak256\n        /* \"Airlines.sol\":1813:1854  balanceDetails[fromAirline].hashOfDetails */\n      0x02\n      add\n        /* \"Airlines.sol\":1813:1870  balanceDetails[fromAirline].hashOfDetails = hashOfDetails */\n      dup2\n      swap1\n      sstore\n      pop\n        /* \"Airlines.sol\":1589:1878  function respone(address fromAirline,uint hashOfDetails,uint done) onlyMembership public {... */\n      pop\n      pop\n      pop\n      jump\t// out\n        /* \"Airlines.sol\":2033:2408  function settlePayment(address payable toAirline) onlyMembership payable public {... */\n    tag_19:\n        /* \"Airlines.sol\":533:534  1 */\n      0x01\n        /* \"Airlines.sol\":509:519  membership */\n      0x02\n        /* \"Airlines.sol\":509:531  membership[msg.sender] */\n      0x00\n        /* \"Airlines.sol\":520:530  msg.sender */\n      caller\n        /* \"Airlines.sol\":509:531  membership[msg.sender] */\n      0xffffffffffffffffffffffffffffffffffffffff\n      and\n      0xffffffffffffffffffffffffffffffffffffffff\n      and\n      dup2\n      mstore\n      0x20\n      add\n      swap1\n      dup2\n      mstore\n      0x20\n      add\n      0x00\n      keccak256\n      sload\n        /* \"Airlines.sol\":509:534  membership[msg.sender]==1 */\n      eq\n        /* \"Airlines.sol\":501:535  require(membership[msg.sender]==1) */\n      tag_45\n      jumpi\n      0x00\n      dup1\n      revert\n    tag_45:\n        /* \"Airlines.sol\":2124:2143  address fromAirline */\n      0x00\n        /* \"Airlines.sol\":2146:2156  msg.sender */\n      caller\n        /* \"Airlines.sol\":2124:2156  address fromAirline = msg.sender */\n      swap1\n      pop\n        /* \"Airlines.sol\":2166:2177  uint amount */\n      0x00\n        /* \"Airlines.sol\":2180:2189  msg.value */\n      callvalue\n        /* \"Airlines.sol\":2166:2189  uint amount = msg.value */\n      swap1\n      pop\n        /* \"Airlines.sol\":2269:2275  amount */\n      dup1\n        /* \"Airlines.sol\":2234:2248  balanceDetails */\n      0x01\n        /* \"Airlines.sol\":2234:2259  balanceDetails[toAirline] */\n      0x00\n        /* \"Airlines.sol\":2249:2258  toAirline */\n      dup6\n        /* \"Airlines.sol\":2234:2259  balanceDetails[toAirline] */\n      0xffffffffffffffffffffffffffffffffffffffff\n      and\n      0xffffffffffffffffffffffffffffffffffffffff\n      and\n      dup2\n      mstore\n      0x20\n      add\n      swap1\n      dup2\n      mstore\n      0x20\n      add\n      0x00\n      keccak256\n        /* \"Airlines.sol\":2234:2266  balanceDetails[toAirline].escrow */\n      0x00\n      add\n      sload\n        /* \"Airlines.sol\":2234:2275  balanceDetails[toAirline].escrow + amount */\n      add\n        /* \"Airlines.sol\":2199:2213  balanceDetails */\n      0x01\n        /* \"Airlines.sol\":2199:2224  balanceDetails[toAirline] */\n      0x00\n        /* \"Airlines.sol\":2214:2223  toAirline */\n      dup6\n        /* \"Airlines.sol\":2199:2224  balanceDetails[toAirline] */\n      0xffffffffffffffffffffffffffffffffffffffff\n      and\n      0xffffffffffffffffffffffffffffffffffffffff\n      and\n      dup2\n      mstore\n      0x20\n      add\n      swap1\n      dup2\n      mstore\n      0x20\n      add\n      0x00\n      keccak256\n        /* \"Airlines.sol\":2199:2231  balanceDetails[toAirline].escrow */\n      0x00\n      add\n        /* \"Airlines.sol\":2199:2275  balanceDetails[toAirline].escrow = balanceDetails[toAirline].escrow + amount */\n      dup2\n      swap1\n      sstore\n      pop\n        /* \"Airlines.sol\":2359:2365  amount */\n      dup1\n        /* \"Airlines.sol\":2322:2336  balanceDetails */\n      0x01\n        /* \"Airlines.sol\":2322:2349  balanceDetails[fromAirline] */\n      0x00\n        /* \"Airlines.sol\":2337:2348  fromAirline */\n      dup5\n        /* \"Airlines.sol\":2322:2349  balanceDetails[fromAirline] */\n      0xffffffffffffffffffffffffffffffffffffffff\n      and\n      0xffffffffffffffffffffffffffffffffffffffff\n      and\n      dup2\n      mstore\n      0x20\n      add\n      swap1\n      dup2\n      mstore\n      0x20\n      add\n      0x00\n      keccak256\n        /* \"Airlines.sol\":2322:2356  balanceDetails[fromAirline].escrow */\n      0x00\n      add\n      sload\n        /* \"Airlines.sol\":2322:2365  balanceDetails[fromAirline].escrow - amount */\n      sub\n        /* \"Airlines.sol\":2285:2299  balanceDetails */\n      0x01\n        /* \"Airlines.sol\":2285:2312  balanceDetails[fromAirline] */\n      0x00\n        /* \"Airlines.sol\":2300:2311  fromAirline */\n      dup5\n        /* \"Airlines.sol\":2285:2312  balanceDetails[fromAirline] */\n      0xffffffffffffffffffffffffffffffffffffffff\n      and\n      0xffffffffffffffffffffffffffffffffffffffff\n      and\n      dup2\n      mstore\n      0x20\n      add\n      swap1\n      dup2\n      mstore\n      0x20\n      add\n      0x00\n      keccak256\n        /* \"Airlines.sol\":2285:2319  balanceDetails[fromAirline].escrow */\n      0x00\n      add\n        /* \"Airlines.sol\":2285:2365  balanceDetails[fromAirline].escrow = balanceDetails[fromAirline].escrow - amount */\n      dup2\n      swap1\n      sstore\n      pop\n        /* \"Airlines.sol\":2375:2384  toAirline */\n      dup3\n        /* \"Airlines.sol\":2375:2393  toAirline.transfer */\n      0xffffffffffffffffffffffffffffffffffffffff\n      and\n        /* \"Airlines.sol\":2375:2401  toAirline.transfer(amount) */\n      0x08fc\n        /* \"Airlines.sol\":2394:2400  amount */\n      dup3\n        /* \"Airlines.sol\":2375:2401  toAirline.transfer(amount) */\n      swap1\n      dup2\n      iszero\n      mul\n      swap1\n      mload(0x40)\n      0x00\n      mload(0x40)\n      dup1\n      dup4\n      sub\n      dup2\n      dup6\n      dup9\n      dup9\n      call\n      swap4\n      pop\n      pop\n      pop\n      pop\n      iszero\n        /* \"--CODEGEN--\":8:17   */\n      dup1\n        /* \"--CODEGEN--\":5:7   */\n      iszero\n      tag_48\n      jumpi\n        /* \"--CODEGEN--\":45:61   */\n      returndatasize\n        /* \"--CODEGEN--\":42:43   */\n      0x00\n        /* \"--CODEGEN--\":39:40   */\n      dup1\n        /* \"--CODEGEN--\":24:62   */\n      returndatacopy\n        /* \"--CODEGEN--\":77:93   */\n      returndatasize\n        /* \"--CODEGEN--\":74:75   */\n      0x00\n        /* \"--CODEGEN--\":67:94   */\n      revert\n        /* \"--CODEGEN--\":5:7   */\n    tag_48:\n        /* \"Airlines.sol\":2375:2401  toAirline.transfer(amount) */\n      pop\n        /* \"Airlines.sol\":545:546  _ */\n      pop\n      pop\n        /* \"Airlines.sol\":2033:2408  function settlePayment(address payable toAirline) onlyMembership payable public {... */\n      pop\n      jump\t// out\n        /* \"Airlines.sol\":49:75  address public chairperson */\n    tag_22:\n      0x00\n      dup1\n      swap1\n      sload\n      swap1\n      0x0100\n      exp\n      swap1\n      div\n      0xffffffffffffffffffffffffffffffffffffffff\n      and\n      dup2\n      jump\t// out\n        /* \"Airlines.sol\":1023:1306  function unregister(address payable AirlineZ) chairPersonOnly public {... */\n    tag_26:\n        /* \"Airlines.sol\":430:441  chairperson */\n      0x00\n      dup1\n      swap1\n      sload\n      swap1\n      0x0100\n      exp\n      swap1\n      div\n      0xffffffffffffffffffffffffffffffffffffffff\n      and\n        /* \"Airlines.sol\":416:441  msg.sender == chairperson */\n      0xffffffffffffffffffffffffffffffffffffffff\n      and\n        /* \"Airlines.sol\":416:426  msg.sender */\n      caller\n        /* \"Airlines.sol\":416:441  msg.sender == chairperson */\n      0xffffffffffffffffffffffffffffffffffffffff\n      and\n      eq\n        /* \"Airlines.sol\":408:442  require(msg.sender == chairperson) */\n      tag_50\n      jumpi\n      0x00\n      dup1\n      revert\n    tag_50:\n        /* \"Airlines.sol\":1118:1128  msg.sender */\n      caller\n        /* \"Airlines.sol\":1105:1128  chairperson!=msg.sender */\n      0xffffffffffffffffffffffffffffffffffffffff\n      and\n        /* \"Airlines.sol\":1105:1116  chairperson */\n      0x00\n      dup1\n      swap1\n      sload\n      swap1\n      0x0100\n      exp\n      swap1\n      div\n      0xffffffffffffffffffffffffffffffffffffffff\n      and\n        /* \"Airlines.sol\":1105:1128  chairperson!=msg.sender */\n      0xffffffffffffffffffffffffffffffffffffffff\n      and\n      eq\n        /* \"Airlines.sol\":1102:1163  if(chairperson!=msg.sender) {... */\n      tag_52\n      jumpi\n        /* \"Airlines.sol\":1144:1152  revert() */\n      0x00\n      dup1\n      revert\n        /* \"Airlines.sol\":1102:1163  if(chairperson!=msg.sender) {... */\n    tag_52:\n        /* \"Airlines.sol\":1195:1196  0 */\n      0x00\n        /* \"Airlines.sol\":1172:1182  membership */\n      0x02\n        /* \"Airlines.sol\":1172:1192  membership[AirlineZ] */\n      0x00\n        /* \"Airlines.sol\":1183:1191  AirlineZ */\n      dup4\n        /* \"Airlines.sol\":1172:1192  membership[AirlineZ] */\n      0xffffffffffffffffffffffffffffffffffffffff\n      and\n      0xffffffffffffffffffffffffffffffffffffffff\n      and\n      dup2\n      mstore\n      0x20\n      add\n      swap1\n      dup2\n      mstore\n      0x20\n      add\n      0x00\n      keccak256\n        /* \"Airlines.sol\":1172:1196  membership[AirlineZ] = 0 */\n      dup2\n      swap1\n      sstore\n      pop\n        /* \"Airlines.sol\":1206:1214  AirlineZ */\n      dup1\n        /* \"Airlines.sol\":1206:1223  AirlineZ.transfer */\n      0xffffffffffffffffffffffffffffffffffffffff\n      and\n        /* \"Airlines.sol\":1206:1256  AirlineZ.transfer(balanceDetails[AirlineZ].escrow) */\n      0x08fc\n        /* \"Airlines.sol\":1224:1238  balanceDetails */\n      0x01\n        /* \"Airlines.sol\":1224:1248  balanceDetails[AirlineZ] */\n      0x00\n        /* \"Airlines.sol\":1239:1247  AirlineZ */\n      dup5\n        /* \"Airlines.sol\":1224:1248  balanceDetails[AirlineZ] */\n      0xffffffffffffffffffffffffffffffffffffffff\n      and\n      0xffffffffffffffffffffffffffffffffffffffff\n      and\n      dup2\n      mstore\n      0x20\n      add\n      swap1\n      dup2\n      mstore\n      0x20\n      add\n      0x00\n      keccak256\n        /* \"Airlines.sol\":1224:1255  balanceDetails[AirlineZ].escrow */\n      0x00\n      add\n      sload\n        /* \"Airlines.sol\":1206:1256  AirlineZ.transfer(balanceDetails[AirlineZ].escrow) */\n      swap1\n      dup2\n      iszero\n      mul\n      swap1\n      mload(0x40)\n      0x00\n      mload(0x40)\n      dup1\n      dup4\n      sub\n      dup2\n      dup6\n      dup9\n      dup9\n      call\n      swap4\n      pop\n      pop\n      pop\n      pop\n      iszero\n        /* \"--CODEGEN--\":8:17   */\n      dup1\n        /* \"--CODEGEN--\":5:7   */\n      iszero\n      tag_54\n      jumpi\n        /* \"--CODEGEN--\":45:61   */\n      returndatasize\n        /* \"--CODEGEN--\":42:43   */\n      0x00\n        /* \"--CODEGEN--\":39:40   */\n      dup1\n        /* \"--CODEGEN--\":24:62   */\n      returndatacopy\n        /* \"--CODEGEN--\":77:93   */\n      returndatasize\n        /* \"--CODEGEN--\":74:75   */\n      0x00\n        /* \"--CODEGEN--\":67:94   */\n      revert\n        /* \"--CODEGEN--\":5:7   */\n    tag_54:\n        /* \"Airlines.sol\":1206:1256  AirlineZ.transfer(balanceDetails[AirlineZ].escrow) */\n      pop\n        /* \"Airlines.sol\":1298:1299  0 */\n      0x00\n        /* \"Airlines.sol\":1266:1280  balanceDetails */\n      0x01\n        /* \"Airlines.sol\":1266:1290  balanceDetails[AirlineZ] */\n      0x00\n        /* \"Airlines.sol\":1281:1289  AirlineZ */\n      dup4\n        /* \"Airlines.sol\":1266:1290  balanceDetails[AirlineZ] */\n      0xffffffffffffffffffffffffffffffffffffffff\n      and\n      0xffffffffffffffffffffffffffffffffffffffff\n      and\n      dup2\n      mstore\n      0x20\n      add\n      swap1\n      dup2\n      mstore\n      0x20\n      add\n      0x00\n      keccak256\n        /* \"Airlines.sol\":1266:1297  balanceDetails[AirlineZ].escrow */\n      0x00\n      add\n        /* \"Airlines.sol\":1266:1299  balanceDetails[AirlineZ].escrow=0 */\n      dup2\n      swap1\n      sstore\n      pop\n        /* \"Airlines.sol\":1023:1306  function unregister(address payable AirlineZ) chairPersonOnly public {... */\n      pop\n      jump\t// out\n        /* \"Airlines.sol\":269:312  mapping (address => uint) public membership */\n    tag_30:\n      mstore(0x20, 0x02)\n      dup1\n      0x00\n      mstore\n      keccak256(0x00, 0x40)\n      0x00\n      swap2\n      pop\n      swap1\n      pop\n      sload\n      dup2\n      jump\t// out\n        /* \"Airlines.sol\":181:231  mapping (address => details) public balanceDetails */\n    tag_34:\n      mstore(0x20, 0x01)\n      dup1\n      0x00\n      mstore\n      keccak256(0x00, 0x40)\n      0x00\n      swap2\n      pop\n      swap1\n      pop\n      dup1\n      0x00\n      add\n      sload\n      swap1\n      dup1\n      0x01\n      add\n      sload\n      swap1\n      dup1\n      0x02\n      add\n      sload\n      swap1\n      pop\n      dup4\n      jump\t// out\n        /* \"Airlines.sol\":1312:1584  function request(address toAirline,uint hashOfDetails) onlyMembership public {... */\n    tag_38:\n        /* \"Airlines.sol\":533:534  1 */\n      0x01\n        /* \"Airlines.sol\":509:519  membership */\n      0x02\n        /* \"Airlines.sol\":509:531  membership[msg.sender] */\n      0x00\n        /* \"Airlines.sol\":520:530  msg.sender */\n      caller\n        /* \"Airlines.sol\":509:531  membership[msg.sender] */\n      0xffffffffffffffffffffffffffffffffffffffff\n      and\n      0xffffffffffffffffffffffffffffffffffffffff\n      and\n      dup2\n      mstore\n      0x20\n      add\n      swap1\n      dup2\n      mstore\n      0x20\n      add\n      0x00\n      keccak256\n      sload\n        /* \"Airlines.sol\":509:534  membership[msg.sender]==1 */\n      eq\n        /* \"Airlines.sol\":501:535  require(membership[msg.sender]==1) */\n      tag_56\n      jumpi\n      0x00\n      dup1\n      revert\n    tag_56:\n        /* \"Airlines.sol\":1426:1427  1 */\n      0x01\n        /* \"Airlines.sol\":1402:1412  membership */\n      0x02\n        /* \"Airlines.sol\":1402:1423  membership[toAirline] */\n      0x00\n        /* \"Airlines.sol\":1413:1422  toAirline */\n      dup5\n        /* \"Airlines.sol\":1402:1423  membership[toAirline] */\n      0xffffffffffffffffffffffffffffffffffffffff\n      and\n      0xffffffffffffffffffffffffffffffffffffffff\n      and\n      dup2\n      mstore\n      0x20\n      add\n      swap1\n      dup2\n      mstore\n      0x20\n      add\n      0x00\n      keccak256\n      sload\n        /* \"Airlines.sol\":1402:1427  membership[toAirline] !=1 */\n      eq\n        /* \"Airlines.sol\":1399:1461  if(membership[toAirline] !=1){... */\n      tag_58\n      jumpi\n        /* \"Airlines.sol\":1442:1450  revert() */\n      0x00\n      dup1\n      revert\n        /* \"Airlines.sol\":1399:1461  if(membership[toAirline] !=1){... */\n    tag_58:\n        /* \"Airlines.sol\":1506:1507  0 */\n      0x00\n        /* \"Airlines.sol\":1470:1484  balanceDetails */\n      0x01\n        /* \"Airlines.sol\":1470:1496  balanceDetails[msg.sender] */\n      0x00\n        /* \"Airlines.sol\":1485:1495  msg.sender */\n      caller\n        /* \"Airlines.sol\":1470:1496  balanceDetails[msg.sender] */\n      0xffffffffffffffffffffffffffffffffffffffff\n      and\n      0xffffffffffffffffffffffffffffffffffffffff\n      and\n      dup2\n      mstore\n      0x20\n      add\n      swap1\n      dup2\n      mstore\n      0x20\n      add\n      0x00\n      keccak256\n        /* \"Airlines.sol\":1470:1503  balanceDetails[msg.sender].status */\n      0x01\n      add\n        /* \"Airlines.sol\":1470:1507  balanceDetails[msg.sender].status = 0 */\n      dup2\n      swap1\n      sstore\n      pop\n        /* \"Airlines.sol\":1561:1574  hashOfDetails */\n      dup1\n        /* \"Airlines.sol\":1518:1532  balanceDetails */\n      0x01\n        /* \"Airlines.sol\":1518:1544  balanceDetails[msg.sender] */\n      0x00\n        /* \"Airlines.sol\":1533:1543  msg.sender */\n      caller\n        /* \"Airlines.sol\":1518:1544  balanceDetails[msg.sender] */\n      0xffffffffffffffffffffffffffffffffffffffff\n      and\n      0xffffffffffffffffffffffffffffffffffffffff\n      and\n      dup2\n      mstore\n      0x20\n      add\n      swap1\n      dup2\n      mstore\n      0x20\n      add\n      0x00\n      keccak256\n        /* \"Airlines.sol\":1518:1558  balanceDetails[msg.sender].hashOfDetails */\n      0x02\n      add\n        /* \"Airlines.sol\":1518:1574  balanceDetails[msg.sender].hashOfDetails = hashOfDetails */\n      dup2\n      swap1\n      sstore\n      pop\n        /* \"Airlines.sol\":1312:1584  function request(address toAirline,uint hashOfDetails) onlyMembership public {... */\n      pop\n      pop\n      jump\t// out\n\n    auxdata: 0xa26469706673582212208eef15ee633f009368b3d484479314fe6392a11f5deafb36027d9a15e44875f064736f6c63430006000033\n}\n",
				"bytecode": {
					"linkReferences": {},
					"object": "6080604052336000806101000a81548173ffffffffffffffffffffffffffffffffffffffff021916908373ffffffffffffffffffffffffffffffffffffffff1602179055506001600260003373ffffffffffffffffffffffffffffffffffffffff1673ffffffffffffffffffffffffffffffffffffffff1681526020019081526020016000208190555034600160003373ffffffffffffffffffffffffffffffffffffffff1673ffffffffffffffffffffffffffffffffffffffff16815260200190815260200160002060000181905550610986806100df6000396000f3fe60806040526004361061007b5760003560e01c80632ec2c2461161004e5780632ec2c2461461018a578063772ccf5d146101db578063a3aa191314610240578063c8c01a55146102b35761007b565b80631aa3a008146100805780631cc3234f1461008a5780632109dc88146100ef5780632e4176cf14610133575b600080fd5b61008861030e565b005b34801561009657600080fd5b506100ed600480360360608110156100ad57600080fd5b81019080803573ffffffffffffffffffffffffffffffffffffffff1690602001909291908035906020019092919080359060200190929190505050610310565b005b6101316004803603602081101561010557600080fd5b81019080803573ffffffffffffffffffffffffffffffffffffffff16906020019092919050505061043b565b005b34801561013f57600080fd5b506101486105f3565b604051808273ffffffffffffffffffffffffffffffffffffffff1673ffffffffffffffffffffffffffffffffffffffff16815260200191505060405180910390f35b34801561019657600080fd5b506101d9600480360360208110156101ad57600080fd5b81019080803573ffffffffffffffffffffffffffffffffffffffff169060200190929190505050610618565b005b3480156101e757600080fd5b5061022a600480360360208110156101fe57600080fd5b81019080803573ffffffffffffffffffffffffffffffffffffffff1690602001909291905050506107e3565b6040518082815260200191505060405180910390f35b34801561024c57600080fd5b5061028f6004803603602081101561026357600080fd5b81019080803573ffffffffffffffffffffffffffffffffffffffff1690602001909291905050506107fb565b60405180848152602001838152602001828152602001935050505060405180910390f35b3480156102bf57600080fd5b5061030c600480360360408110156102d657600080fd5b81019080803573ffffffffffffffffffffffffffffffffffffffff16906020019092919080359060200190929190505050610825565b005b565b6001600260003373ffffffffffffffffffffffffffffffffffffffff1673ffffffffffffffffffffffffffffffffffffffff168152602001908152602001600020541461035c57600080fd5b6001600260008573ffffffffffffffffffffffffffffffffffffffff1673ffffffffffffffffffffffffffffffffffffffff16815260200190815260200160002054146103a857600080fd5b80600160003373ffffffffffffffffffffffffffffffffffffffff1673ffffffffffffffffffffffffffffffffffffffff1681526020019081526020016000206001018190555081600160008573ffffffffffffffffffffffffffffffffffffffff1673ffffffffffffffffffffffffffffffffffffffff16815260200190815260200160002060020181905550505050565b6001600260003373ffffffffffffffffffffffffffffffffffffffff1673ffffffffffffffffffffffffffffffffffffffff168152602001908152602001600020541461048757600080fd5b6000339050600034905080600160008573ffffffffffffffffffffffffffffffffffffffff1673ffffffffffffffffffffffffffffffffffffffff1681526020019081526020016000206000015401600160008573ffffffffffffffffffffffffffffffffffffffff1673ffffffffffffffffffffffffffffffffffffffff1681526020019081526020016000206000018190555080600160008473ffffffffffffffffffffffffffffffffffffffff1673ffffffffffffffffffffffffffffffffffffffff1681526020019081526020016000206000015403600160008473ffffffffffffffffffffffffffffffffffffffff1673ffffffffffffffffffffffffffffffffffffffff168152602001908152602001600020600001819055508273ffffffffffffffffffffffffffffffffffffffff166108fc829081150290604051600060405180830381858888f193505050501580156105ed573d6000803e3d6000fd5b50505050565b6000809054906101000a900473ffffffffffffffffffffffffffffffffffffffff1681565b6000809054906101000a900473ffffffffffffffffffffffffffffffffffffffff1673ffffffffffffffffffffffffffffffffffffffff163373ffffffffffffffffffffffffffffffffffffffff161461067157600080fd5b3373ffffffffffffffffffffffffffffffffffffffff166000809054906101000a900473ffffffffffffffffffffffffffffffffffffffff1673ffffffffffffffffffffffffffffffffffffffff16146106ca57600080fd5b6000600260008373ffffffffffffffffffffffffffffffffffffffff1673ffffffffffffffffffffffffffffffffffffffff168152602001908152602001600020819055508073ffffffffffffffffffffffffffffffffffffffff166108fc600160008473ffffffffffffffffffffffffffffffffffffffff1673ffffffffffffffffffffffffffffffffffffffff168152602001908152602001600020600001549081150290604051600060405180830381858888f19350505050158015610797573d6000803e3d6000fd5b506000600160008373ffffffffffffffffffffffffffffffffffffffff1673ffffffffffffffffffffffffffffffffffffffff1681526020019081526020016000206000018190555050565b60026020528060005260406000206000915090505481565b60016020528060005260406000206000915090508060000154908060010154908060020154905083565b6001600260003373ffffffffffffffffffffffffffffffffffffffff1673ffffffffffffffffffffffffffffffffffffffff168152602001908152602001600020541461087157600080fd5b6001600260008473ffffffffffffffffffffffffffffffffffffffff1673ffffffffffffffffffffffffffffffffffffffff16815260200190815260200160002054146108bd57600080fd5b6000600160003373ffffffffffffffffffffffffffffffffffffffff1673ffffffffffffffffffffffffffffffffffffffff1681526020019081526020016000206001018190555080600160003373ffffffffffffffffffffffffffffffffffffffff1673ffffffffffffffffffffffffffffffffffffffff16815260200190815260200160002060020181905550505056fea26469706673582212208eef15ee633f009368b3d484479314fe6392a11f5deafb36027d9a15e44875f064736f6c63430006000033",
					"opcodes": "PUSH1 0x80 PUSH1 0x40 MSTORE CALLER PUSH1 0x0 DUP1 PUSH2 0x100 EXP DUP2 SLOAD DUP2 PUSH20 0xFFFFFFFFFFFFFFFFFFFFFFFFFFFFFFFFFFFFFFFF MUL NOT AND SWAP1 DUP4 PUSH20 0xFFFFFFFFFFFFFFFFFFFFFFFFFFFFFFFFFFFFFFFF AND MUL OR SWAP1 SSTORE POP PUSH1 0x1 PUSH1 0x2 PUSH1 0x0 CALLER PUSH20 0xFFFFFFFFFFFFFFFFFFFFFFFFFFFFFFFFFFFFFFFF AND PUSH20 0xFFFFFFFFFFFFFFFFFFFFFFFFFFFFFFFFFFFFFFFF AND DUP2 MSTORE PUSH1 0x20 ADD SWAP1 DUP2 MSTORE PUSH1 0x20 ADD PUSH1 0x0 KECCAK256 DUP2 SWAP1 SSTORE POP CALLVALUE PUSH1 0x1 PUSH1 0x0 CALLER PUSH20 0xFFFFFFFFFFFFFFFFFFFFFFFFFFFFFFFFFFFFFFFF AND PUSH20 0xFFFFFFFFFFFFFFFFFFFFFFFFFFFFFFFFFFFFFFFF AND DUP2 MSTORE PUSH1 0x20 ADD SWAP1 DUP2 MSTORE PUSH1 0x20 ADD PUSH1 0x0 KECCAK256 PUSH1 0x0 ADD DUP2 SWAP1 SSTORE POP PUSH2 0x986 DUP1 PUSH2 0xDF PUSH1 0x0 CODECOPY PUSH1 0x0 RETURN INVALID PUSH1 0x80 PUSH1 0x40 MSTORE PUSH1 0x4 CALLDATASIZE LT PUSH2 0x7B JUMPI PUSH1 0x0 CALLDATALOAD PUSH1 0xE0 SHR DUP1 PUSH4 0x2EC2C246 GT PUSH2 0x4E JUMPI DUP1 PUSH4 0x2EC2C246 EQ PUSH2 0x18A JUMPI DUP1 PUSH4 0x772CCF5D EQ PUSH2 0x1DB JUMPI DUP1 PUSH4 0xA3AA1913 EQ PUSH2 0x240 JUMPI DUP1 PUSH4 0xC8C01A55 EQ PUSH2 0x2B3 JUMPI PUSH2 0x7B JUMP JUMPDEST DUP1 PUSH4 0x1AA3A008 EQ PUSH2 0x80 JUMPI DUP1 PUSH4 0x1CC3234F EQ PUSH2 0x8A JUMPI DUP1 PUSH4 0x2109DC88 EQ PUSH2 0xEF JUMPI DUP1 PUSH4 0x2E4176CF EQ PUSH2 0x133 JUMPI JUMPDEST PUSH1 0x0 DUP1 REVERT JUMPDEST PUSH2 0x88 PUSH2 0x30E JUMP JUMPDEST STOP JUMPDEST CALLVALUE DUP1 ISZERO PUSH2 0x96 JUMPI PUSH1 0x0 DUP1 REVERT JUMPDEST POP PUSH2 0xED PUSH1 0x4 DUP1 CALLDATASIZE SUB PUSH1 0x60 DUP2 LT ISZERO PUSH2 0xAD JUMPI PUSH1 0x0 DUP1 REVERT JUMPDEST DUP2 ADD SWAP1 DUP1 DUP1 CALLDATALOAD PUSH20 0xFFFFFFFFFFFFFFFFFFFFFFFFFFFFFFFFFFFFFFFF AND SWAP1 PUSH1 0x20 ADD SWAP1 SWAP3 SWAP2 SWAP1 DUP1 CALLDATALOAD SWAP1 PUSH1 0x20 ADD SWAP1 SWAP3 SWAP2 SWAP1 DUP1 CALLDATALOAD SWAP1 PUSH1 0x20 ADD SWAP1 SWAP3 SWAP2 SWAP1 POP POP POP PUSH2 0x310 JUMP JUMPDEST STOP JUMPDEST PUSH2 0x131 PUSH1 0x4 DUP1 CALLDATASIZE SUB PUSH1 0x20 DUP2 LT ISZERO PUSH2 0x105 JUMPI PUSH1 0x0 DUP1 REVERT JUMPDEST DUP2 ADD SWAP1 DUP1 DUP1 CALLDATALOAD PUSH20 0xFFFFFFFFFFFFFFFFFFFFFFFFFFFFFFFFFFFFFFFF AND SWAP1 PUSH1 0x20 ADD SWAP1 SWAP3 SWAP2 SWAP1 POP POP POP PUSH2 0x43B JUMP JUMPDEST STOP JUMPDEST CALLVALUE DUP1 ISZERO PUSH2 0x13F JUMPI PUSH1 0x0 DUP1 REVERT JUMPDEST POP PUSH2 0x148 PUSH2 0x5F3 JUMP JUMPDEST PUSH1 0x40 MLOAD DUP1 DUP3 PUSH20 0xFFFFFFFFFFFFFFFFFFFFFFFFFFFFFFFFFFFFFFFF AND PUSH20 0xFFFFFFFFFFFFFFFFFFFFFFFFFFFFFFFFFFFFFFFF AND DUP2 MSTORE PUSH1 0x20 ADD SWAP2 POP POP PUSH1 0x40 MLOAD DUP1 SWAP2 SUB SWAP1 RETURN JUMPDEST CALLVALUE DUP1 ISZERO PUSH2 0x196 JUMPI PUSH1 0x0 DUP1 REVERT JUMPDEST POP PUSH2 0x1D9 PUSH1 0x4 DUP1 CALLDATASIZE SUB PUSH1 0x20 DUP2 LT ISZERO PUSH2 0x1AD JUMPI PUSH1 0x0 DUP1 REVERT JUMPDEST DUP2 ADD SWAP1 DUP1 DUP1 CALLDATALOAD PUSH20 0xFFFFFFFFFFFFFFFFFFFFFFFFFFFFFFFFFFFFFFFF AND SWAP1 PUSH1 0x20 ADD SWAP1 SWAP3 SWAP2 SWAP1 POP POP POP PUSH2 0x618 JUMP JUMPDEST STOP JUMPDEST CALLVALUE DUP1 ISZERO PUSH2 0x1E7 JUMPI PUSH1 0x0 DUP1 REVERT JUMPDEST POP PUSH2 0x22A PUSH1 0x4 DUP1 CALLDATASIZE SUB PUSH1 0x20 DUP2 LT ISZERO PUSH2 0x1FE JUMPI PUSH1 0x0 DUP1 REVERT JUMPDEST DUP2 ADD SWAP1 DUP1 DUP1 CALLDATALOAD PUSH20 0xFFFFFFFFFFFFFFFFFFFFFFFFFFFFFFFFFFFFFFFF AND SWAP1 PUSH1 0x20 ADD SWAP1 SWAP3 SWAP2 SWAP1 POP POP POP PUSH2 0x7E3 JUMP JUMPDEST PUSH1 0x40 MLOAD DUP1 DUP3 DUP2 MSTORE PUSH1 0x20 ADD SWAP2 POP POP PUSH1 0x40 MLOAD DUP1 SWAP2 SUB SWAP1 RETURN JUMPDEST CALLVALUE DUP1 ISZERO PUSH2 0x24C JUMPI PUSH1 0x0 DUP1 REVERT JUMPDEST POP PUSH2 0x28F PUSH1 0x4 DUP1 CALLDATASIZE SUB PUSH1 0x20 DUP2 LT ISZERO PUSH2 0x263 JUMPI PUSH1 0x0 DUP1 REVERT JUMPDEST DUP2 ADD SWAP1 DUP1 DUP1 CALLDATALOAD PUSH20 0xFFFFFFFFFFFFFFFFFFFFFFFFFFFFFFFFFFFFFFFF AND SWAP1 PUSH1 0x20 ADD SWAP1 SWAP3 SWAP2 SWAP1 POP POP POP PUSH2 0x7FB JUMP JUMPDEST PUSH1 0x40 MLOAD DUP1 DUP5 DUP2 MSTORE PUSH1 0x20 ADD DUP4 DUP2 MSTORE PUSH1 0x20 ADD DUP3 DUP2 MSTORE PUSH1 0x20 ADD SWAP4 POP POP POP POP PUSH1 0x40 MLOAD DUP1 SWAP2 SUB SWAP1 RETURN JUMPDEST CALLVALUE DUP1 ISZERO PUSH2 0x2BF JUMPI PUSH1 0x0 DUP1 REVERT JUMPDEST POP PUSH2 0x30C PUSH1 0x4 DUP1 CALLDATASIZE SUB PUSH1 0x40 DUP2 LT ISZERO PUSH2 0x2D6 JUMPI PUSH1 0x0 DUP1 REVERT JUMPDEST DUP2 ADD SWAP1 DUP1 DUP1 CALLDATALOAD PUSH20 0xFFFFFFFFFFFFFFFFFFFFFFFFFFFFFFFFFFFFFFFF AND SWAP1 PUSH1 0x20 ADD SWAP1 SWAP3 SWAP2 SWAP1 DUP1 CALLDATALOAD SWAP1 PUSH1 0x20 ADD SWAP1 SWAP3 SWAP2 SWAP1 POP POP POP PUSH2 0x825 JUMP JUMPDEST STOP JUMPDEST JUMP JUMPDEST PUSH1 0x1 PUSH1 0x2 PUSH1 0x0 CALLER PUSH20 0xFFFFFFFFFFFFFFFFFFFFFFFFFFFFFFFFFFFFFFFF AND PUSH20 0xFFFFFFFFFFFFFFFFFFFFFFFFFFFFFFFFFFFFFFFF AND DUP2 MSTORE PUSH1 0x20 ADD SWAP1 DUP2 MSTORE PUSH1 0x20 ADD PUSH1 0x0 KECCAK256 SLOAD EQ PUSH2 0x35C JUMPI PUSH1 0x0 DUP1 REVERT JUMPDEST PUSH1 0x1 PUSH1 0x2 PUSH1 0x0 DUP6 PUSH20 0xFFFFFFFFFFFFFFFFFFFFFFFFFFFFFFFFFFFFFFFF AND PUSH20 0xFFFFFFFFFFFFFFFFFFFFFFFFFFFFFFFFFFFFFFFF AND DUP2 MSTORE PUSH1 0x20 ADD SWAP1 DUP2 MSTORE PUSH1 0x20 ADD PUSH1 0x0 KECCAK256 SLOAD EQ PUSH2 0x3A8 JUMPI PUSH1 0x0 DUP1 REVERT JUMPDEST DUP1 PUSH1 0x1 PUSH1 0x0 CALLER PUSH20 0xFFFFFFFFFFFFFFFFFFFFFFFFFFFFFFFFFFFFFFFF AND PUSH20 0xFFFFFFFFFFFFFFFFFFFFFFFFFFFFFFFFFFFFFFFF AND DUP2 MSTORE PUSH1 0x20 ADD SWAP1 DUP2 MSTORE PUSH1 0x20 ADD PUSH1 0x0 KECCAK256 PUSH1 0x1 ADD DUP2 SWAP1 SSTORE POP DUP2 PUSH1 0x1 PUSH1 0x0 DUP6 PUSH20 0xFFFFFFFFFFFFFFFFFFFFFFFFFFFFFFFFFFFFFFFF AND PUSH20 0xFFFFFFFFFFFFFFFFFFFFFFFFFFFFFFFFFFFFFFFF AND DUP2 MSTORE PUSH1 0x20 ADD SWAP1 DUP2 MSTORE PUSH1 0x20 ADD PUSH1 0x0 KECCAK256 PUSH1 0x2 ADD DUP2 SWAP1 SSTORE POP POP POP POP JUMP JUMPDEST PUSH1 0x1 PUSH1 0x2 PUSH1 0x0 CALLER PUSH20 0xFFFFFFFFFFFFFFFFFFFFFFFFFFFFFFFFFFFFFFFF AND PUSH20 0xFFFFFFFFFFFFFFFFFFFFFFFFFFFFFFFFFFFFFFFF AND DUP2 MSTORE PUSH1 0x20 ADD SWAP1 DUP2 MSTORE PUSH1 0x20 ADD PUSH1 0x0 KECCAK256 SLOAD EQ PUSH2 0x487 JUMPI PUSH1 0x0 DUP1 REVERT JUMPDEST PUSH1 0x0 CALLER SWAP1 POP PUSH1 0x0 CALLVALUE SWAP1 POP DUP1 PUSH1 0x1 PUSH1 0x0 DUP6 PUSH20 0xFFFFFFFFFFFFFFFFFFFFFFFFFFFFFFFFFFFFFFFF AND PUSH20 0xFFFFFFFFFFFFFFFFFFFFFFFFFFFFFFFFFFFFFFFF AND DUP2 MSTORE PUSH1 0x20 ADD SWAP1 DUP2 MSTORE PUSH1 0x20 ADD PUSH1 0x0 KECCAK256 PUSH1 0x0 ADD SLOAD ADD PUSH1 0x1 PUSH1 0x0 DUP6 PUSH20 0xFFFFFFFFFFFFFFFFFFFFFFFFFFFFFFFFFFFFFFFF AND PUSH20 0xFFFFFFFFFFFFFFFFFFFFFFFFFFFFFFFFFFFFFFFF AND DUP2 MSTORE PUSH1 0x20 ADD SWAP1 DUP2 MSTORE PUSH1 0x20 ADD PUSH1 0x0 KECCAK256 PUSH1 0x0 ADD DUP2 SWAP1 SSTORE POP DUP1 PUSH1 0x1 PUSH1 0x0 DUP5 PUSH20 0xFFFFFFFFFFFFFFFFFFFFFFFFFFFFFFFFFFFFFFFF AND PUSH20 0xFFFFFFFFFFFFFFFFFFFFFFFFFFFFFFFFFFFFFFFF AND DUP2 MSTORE PUSH1 0x20 ADD SWAP1 DUP2 MSTORE PUSH1 0x20 ADD PUSH1 0x0 KECCAK256 PUSH1 0x0 ADD SLOAD SUB PUSH1 0x1 PUSH1 0x0 DUP5 PUSH20 0xFFFFFFFFFFFFFFFFFFFFFFFFFFFFFFFFFFFFFFFF AND PUSH20 0xFFFFFFFFFFFFFFFFFFFFFFFFFFFFFFFFFFFFFFFF AND DUP2 MSTORE PUSH1 0x20 ADD SWAP1 DUP2 MSTORE PUSH1 0x20 ADD PUSH1 0x0 KECCAK256 PUSH1 0x0 ADD DUP2 SWAP1 SSTORE POP DUP3 PUSH20 0xFFFFFFFFFFFFFFFFFFFFFFFFFFFFFFFFFFFFFFFF AND PUSH2 0x8FC DUP3 SWAP1 DUP2 ISZERO MUL SWAP1 PUSH1 0x40 MLOAD PUSH1 0x0 PUSH1 0x40 MLOAD DUP1 DUP4 SUB DUP2 DUP6 DUP9 DUP9 CALL SWAP4 POP POP POP POP ISZERO DUP1 ISZERO PUSH2 0x5ED JUMPI RETURNDATASIZE PUSH1 0x0 DUP1 RETURNDATACOPY RETURNDATASIZE PUSH1 0x0 REVERT JUMPDEST POP POP POP POP JUMP JUMPDEST PUSH1 0x0 DUP1 SWAP1 SLOAD SWAP1 PUSH2 0x100 EXP SWAP1 DIV PUSH20 0xFFFFFFFFFFFFFFFFFFFFFFFFFFFFFFFFFFFFFFFF AND DUP2 JUMP JUMPDEST PUSH1 0x0 DUP1 SWAP1 SLOAD SWAP1 PUSH2 0x100 EXP SWAP1 DIV PUSH20 0xFFFFFFFFFFFFFFFFFFFFFFFFFFFFFFFFFFFFFFFF AND PUSH20 0xFFFFFFFFFFFFFFFFFFFFFFFFFFFFFFFFFFFFFFFF AND CALLER PUSH20 0xFFFFFFFFFFFFFFFFFFFFFFFFFFFFFFFFFFFFFFFF AND EQ PUSH2 0x671 JUMPI PUSH1 0x0 DUP1 REVERT JUMPDEST CALLER PUSH20 0xFFFFFFFFFFFFFFFFFFFFFFFFFFFFFFFFFFFFFFFF AND PUSH1 0x0 DUP1 SWAP1 SLOAD SWAP1 PUSH2 0x100 EXP SWAP1 DIV PUSH20 0xFFFFFFFFFFFFFFFFFFFFFFFFFFFFFFFFFFFFFFFF AND PUSH20 0xFFFFFFFFFFFFFFFFFFFFFFFFFFFFFFFFFFFFFFFF AND EQ PUSH2 0x6CA JUMPI PUSH1 0x0 DUP1 REVERT JUMPDEST PUSH1 0x0 PUSH1 0x2 PUSH1 0x0 DUP4 PUSH20 0xFFFFFFFFFFFFFFFFFFFFFFFFFFFFFFFFFFFFFFFF AND PUSH20 0xFFFFFFFFFFFFFFFFFFFFFFFFFFFFFFFFFFFFFFFF AND DUP2 MSTORE PUSH1 0x20 ADD SWAP1 DUP2 MSTORE PUSH1 0x20 ADD PUSH1 0x0 KECCAK256 DUP2 SWAP1 SSTORE POP DUP1 PUSH20 0xFFFFFFFFFFFFFFFFFFFFFFFFFFFFFFFFFFFFFFFF AND PUSH2 0x8FC PUSH1 0x1 PUSH1 0x0 DUP5 PUSH20 0xFFFFFFFFFFFFFFFFFFFFFFFFFFFFFFFFFFFFFFFF AND PUSH20 0xFFFFFFFFFFFFFFFFFFFFFFFFFFFFFFFFFFFFFFFF AND DUP2 MSTORE PUSH1 0x20 ADD SWAP1 DUP2 MSTORE PUSH1 0x20 ADD PUSH1 0x0 KECCAK256 PUSH1 0x0 ADD SLOAD SWAP1 DUP2 ISZERO MUL SWAP1 PUSH1 0x40 MLOAD PUSH1 0x0 PUSH1 0x40 MLOAD DUP1 DUP4 SUB DUP2 DUP6 DUP9 DUP9 CALL SWAP4 POP POP POP POP ISZERO DUP1 ISZERO PUSH2 0x797 JUMPI RETURNDATASIZE PUSH1 0x0 DUP1 RETURNDATACOPY RETURNDATASIZE PUSH1 0x0 REVERT JUMPDEST POP PUSH1 0x0 PUSH1 0x1 PUSH1 0x0 DUP4 PUSH20 0xFFFFFFFFFFFFFFFFFFFFFFFFFFFFFFFFFFFFFFFF AND PUSH20 0xFFFFFFFFFFFFFFFFFFFFFFFFFFFFFFFFFFFFFFFF AND DUP2 MSTORE PUSH1 0x20 ADD SWAP1 DUP2 MSTORE PUSH1 0x20 ADD PUSH1 0x0 KECCAK256 PUSH1 0x0 ADD DUP2 SWAP1 SSTORE POP POP JUMP JUMPDEST PUSH1 0x2 PUSH1 0x20 MSTORE DUP1 PUSH1 0x0 MSTORE PUSH1 0x40 PUSH1 0x0 KECCAK256 PUSH1 0x0 SWAP2 POP SWAP1 POP SLOAD DUP2 JUMP JUMPDEST PUSH1 0x1 PUSH1 0x20 MSTORE DUP1 PUSH1 0x0 MSTORE PUSH1 0x40 PUSH1 0x0 KECCAK256 PUSH1 0x0 SWAP2 POP SWAP1 POP DUP1 PUSH1 0x0 ADD SLOAD SWAP1 DUP1 PUSH1 0x1 ADD SLOAD SWAP1 DUP1 PUSH1 0x2 ADD SLOAD SWAP1 POP DUP4 JUMP JUMPDEST PUSH1 0x1 PUSH1 0x2 PUSH1 0x0 CALLER PUSH20 0xFFFFFFFFFFFFFFFFFFFFFFFFFFFFFFFFFFFFFFFF AND PUSH20 0xFFFFFFFFFFFFFFFFFFFFFFFFFFFFFFFFFFFFFFFF AND DUP2 MSTORE PUSH1 0x20 ADD SWAP1 DUP2 MSTORE PUSH1 0x20 ADD PUSH1 0x0 KECCAK256 SLOAD EQ PUSH2 0x871 JUMPI PUSH1 0x0 DUP1 REVERT JUMPDEST PUSH1 0x1 PUSH1 0x2 PUSH1 0x0 DUP5 PUSH20 0xFFFFFFFFFFFFFFFFFFFFFFFFFFFFFFFFFFFFFFFF AND PUSH20 0xFFFFFFFFFFFFFFFFFFFFFFFFFFFFFFFFFFFFFFFF AND DUP2 MSTORE PUSH1 0x20 ADD SWAP1 DUP2 MSTORE PUSH1 0x20 ADD PUSH1 0x0 KECCAK256 SLOAD EQ PUSH2 0x8BD JUMPI PUSH1 0x0 DUP1 REVERT JUMPDEST PUSH1 0x0 PUSH1 0x1 PUSH1 0x0 CALLER PUSH20 0xFFFFFFFFFFFFFFFFFFFFFFFFFFFFFFFFFFFFFFFF AND PUSH20 0xFFFFFFFFFFFFFFFFFFFFFFFFFFFFFFFFFFFFFFFF AND DUP2 MSTORE PUSH1 0x20 ADD SWAP1 DUP2 MSTORE PUSH1 0x20 ADD PUSH1 0x0 KECCAK256 PUSH1 0x1 ADD DUP2 SWAP1 SSTORE POP DUP1 PUSH1 0x1 PUSH1 0x0 CALLER PUSH20 0xFFFFFFFFFFFFFFFFFFFFFFFFFFFFFFFFFFFFFFFF AND PUSH20 0xFFFFFFFFFFFFFFFFFFFFFFFFFFFFFFFFFFFFFFFF AND DUP2 MSTORE PUSH1 0x20 ADD SWAP1 DUP2 MSTORE PUSH1 0x20 ADD PUSH1 0x0 KECCAK256 PUSH1 0x2 ADD DUP2 SWAP1 SSTORE POP POP POP JUMP INVALID LOG2 PUSH5 0x6970667358 0x22 SLT KECCAK256 DUP15 0xEF ISZERO 0xEE PUSH4 0x3F009368 0xB3 0xD4 DUP5 SELFBALANCE SWAP4 EQ INVALID PUSH4 0x92A11F5D 0xEA 0xFB CALLDATASIZE MUL PUSH30 0x9A15E44875F064736F6C6343000600003300000000000000000000000000 "
				},
				"gasEstimates": {
					"creation": {
						"codeDepositCost": "487600",
						"executionCost": "61577",
						"totalCost": "549177"
					},
					"external": {
						"balanceDetails(address)": "2891",
						"chairperson()": "1120",
						"membership(address)": "1191",
						"register()": "121",
						"request(address,uint256)": "27372",
						"respone(address,uint256,uint256)": "42359",
						"settlePayment(address)": "infinite",
						"unregister(address)": "infinite"
					}
				},
				"methodIdentifiers": {
					"balanceDetails(address)": "a3aa1913",
					"chairperson()": "2e4176cf",
					"membership(address)": "772ccf5d",
					"register()": "1aa3a008",
					"request(address,uint256)": "c8c01a55",
					"respone(address,uint256,uint256)": "1cc3234f",
					"settlePayment(address)": "2109dc88",
					"unregister(address)": "2ec2c246"
				}
			},
			"storageLayout": {
				"storage": [
					{
						"astId": 3,
						"contract": "Airlines.sol:Airlines",
						"label": "chairperson",
						"offset": 0,
						"slot": "0",
						"type": "t_address"
					},
					{
						"astId": 14,
						"contract": "Airlines.sol:Airlines",
						"label": "balanceDetails",
						"offset": 0,
						"slot": "1",
						"type": "t_mapping(t_address,t_struct(details)10_storage)"
					},
					{
						"astId": 18,
						"contract": "Airlines.sol:Airlines",
						"label": "membership",
						"offset": 0,
						"slot": "2",
						"type": "t_mapping(t_address,t_uint256)"
					}
				],
				"types": {
					"t_address": {
						"encoding": "inplace",
						"label": "address",
						"numberOfBytes": "20"
					},
					"t_mapping(t_address,t_struct(details)10_storage)": {
						"encoding": "mapping",
						"key": "t_address",
						"label": "mapping(address => struct Airlines.details)",
						"numberOfBytes": "32",
						"value": "t_struct(details)10_storage"
					},
					"t_mapping(t_address,t_uint256)": {
						"encoding": "mapping",
						"key": "t_address",
						"label": "mapping(address => uint256)",
						"numberOfBytes": "32",
						"value": "t_uint256"
					},
					"t_struct(details)10_storage": {
						"encoding": "inplace",
						"label": "struct Airlines.details",
						"members": [
							{
								"astId": 5,
								"contract": "Airlines.sol:Airlines",
								"label": "escrow",
								"offset": 0,
								"slot": "0",
								"type": "t_uint256"
							},
							{
								"astId": 7,
								"contract": "Airlines.sol:Airlines",
								"label": "status",
								"offset": 0,
								"slot": "1",
								"type": "t_uint256"
							},
							{
								"astId": 9,
								"contract": "Airlines.sol:Airlines",
								"label": "hashOfDetails",
								"offset": 0,
								"slot": "2",
								"type": "t_uint256"
							}
						],
						"numberOfBytes": "96"
					},
					"t_uint256": {
						"encoding": "inplace",
						"label": "uint256",
						"numberOfBytes": "32"
					}
				}
			},
			"userdoc": {
				"methods": {}
			}
		}
	}
}