{
	"BallotV4.sol": {
		"Ballot": {
			"abi": [
				{
					"inputs": [
						{
							"internalType": "uint256",
							"name": "numProposals",
							"type": "uint256"
						}
					],
					"stateMutability": "nonpayable",
					"type": "constructor"
				},
				{
					"inputs": [
						{
							"internalType": "address",
							"name": "voter",
							"type": "address"
						}
					],
					"name": "register",
					"outputs": [],
					"stateMutability": "nonpayable",
					"type": "function"
				},
				{
					"inputs": [],
					"name": "reqWinner",
					"outputs": [
						{
							"internalType": "uint256",
							"name": "winningProposal",
							"type": "uint256"
						}
					],
					"stateMutability": "view",
					"type": "function"
				},
				{
					"inputs": [
						{
							"internalType": "uint256",
							"name": "toProposal",
							"type": "uint256"
						}
					],
					"name": "vote",
					"outputs": [],
					"stateMutability": "nonpayable",
					"type": "function"
				}
			],
			"devdoc": {
				"methods": {}
			},
			"evm": {
				"assembly": "    /* \"BallotV4.sol\":34:1826  contract Ballot {... */\n  mstore(0x40, 0x80)\n    /* \"BallotV4.sol\":562:884  constructor (uint numProposals) public  {... */\n  callvalue\n    /* \"--CODEGEN--\":8:17   */\n  dup1\n    /* \"--CODEGEN--\":5:7   */\n  iszero\n  tag_1\n  jumpi\n    /* \"--CODEGEN--\":30:31   */\n  0x00\n    /* \"--CODEGEN--\":27:28   */\n  dup1\n    /* \"--CODEGEN--\":20:32   */\n  revert\n    /* \"--CODEGEN--\":5:7   */\ntag_1:\n    /* \"BallotV4.sol\":562:884  constructor (uint numProposals) public  {... */\n  pop\n  mload(0x40)\n  sub(codesize, bytecodeSize)\n  dup1\n  bytecodeSize\n  dup4\n  codecopy\n  dup2\n  dup2\n  add\n  0x40\n  mstore\n    /* \"--CODEGEN--\":13:15   */\n  0x20\n    /* \"--CODEGEN--\":8:11   */\n  dup2\n    /* \"--CODEGEN--\":5:16   */\n  lt\n    /* \"--CODEGEN--\":2:4   */\n  iszero\n  tag_2\n  jumpi\n    /* \"--CODEGEN--\":29:30   */\n  0x00\n    /* \"--CODEGEN--\":26:27   */\n  dup1\n    /* \"--CODEGEN--\":19:31   */\n  revert\n    /* \"--CODEGEN--\":2:4   */\ntag_2:\n    /* \"BallotV4.sol\":562:884  constructor (uint numProposals) public  {... */\n  dup2\n  add\n  swap1\n  dup1\n  dup1\n  mload\n  swap1\n  0x20\n  add\n  swap1\n  swap3\n  swap2\n  swap1\n  pop\n  pop\n  pop\n    /* \"BallotV4.sol\":626:636  msg.sender */\n  caller\n    /* \"BallotV4.sol\":612:623  chairperson */\n  0x00\n  dup1\n    /* \"BallotV4.sol\":612:636  chairperson = msg.sender */\n  0x0100\n  exp\n  dup2\n  sload\n  dup2\n  0xffffffffffffffffffffffffffffffffffffffff\n  mul\n  not\n  and\n  swap1\n  dup4\n  0xffffffffffffffffffffffffffffffffffffffff\n  and\n  mul\n  or\n  swap1\n  sstore\n  pop\n    /* \"BallotV4.sol\":675:676  2 */\n  0x02\n    /* \"BallotV4.sol\":646:652  voters */\n  0x01\n    /* \"BallotV4.sol\":646:665  voters[chairperson] */\n  0x00\n    /* \"BallotV4.sol\":653:664  chairperson */\n  dup1\n  0x00\n  swap1\n  sload\n  swap1\n  0x0100\n  exp\n  swap1\n  div\n  0xffffffffffffffffffffffffffffffffffffffff\n  and\n    /* \"BallotV4.sol\":646:665  voters[chairperson] */\n  0xffffffffffffffffffffffffffffffffffffffff\n  and\n  0xffffffffffffffffffffffffffffffffffffffff\n  and\n  dup2\n  mstore\n  0x20\n  add\n  swap1\n  dup2\n  mstore\n  0x20\n  add\n  0x00\n  keccak256\n    /* \"BallotV4.sol\":646:672  voters[chairperson].weight */\n  0x00\n  add\n    /* \"BallotV4.sol\":646:676  voters[chairperson].weight = 2 */\n  dup2\n  swap1\n  sstore\n  pop\n    /* \"BallotV4.sol\":783:793  uint8 prop */\n  0x00\n    /* \"BallotV4.sol\":796:797  0 */\n  dup1\n    /* \"BallotV4.sol\":783:797  uint8 prop = 0 */\n  swap1\n  pop\n    /* \"BallotV4.sol\":778:868  for (uint8 prop = 0; prop < numProposals; prop ++)... */\ntag_5:\n    /* \"BallotV4.sol\":806:818  numProposals */\n  dup2\n    /* \"BallotV4.sol\":799:803  prop */\n  dup2\n    /* \"BallotV4.sol\":799:818  prop < numProposals */\n  0xff\n  and\n  lt\n    /* \"BallotV4.sol\":778:868  for (uint8 prop = 0; prop < numProposals; prop ++)... */\n  iszero\n  tag_6\n  jumpi\n    /* \"BallotV4.sol\":841:850  proposals */\n  0x02\n    /* \"BallotV4.sol\":856:867  Proposal(0) */\n  mload(0x40)\n  dup1\n  0x20\n  add\n  0x40\n  mstore\n  dup1\n    /* \"BallotV4.sol\":865:866  0 */\n  0x00\n    /* \"BallotV4.sol\":856:867  Proposal(0) */\n  dup2\n  mstore\n  pop\n    /* \"BallotV4.sol\":841:868  proposals.push(Proposal(0)) */\n  swap1\n  dup1\n    /* \"--CODEGEN--\":39:40   */\n  0x01\n    /* \"--CODEGEN--\":33:36   */\n  dup2\n    /* \"--CODEGEN--\":27:37   */\n  sload\n    /* \"--CODEGEN--\":23:41   */\n  add\n    /* \"--CODEGEN--\":57:67   */\n  dup1\n    /* \"--CODEGEN--\":52:55   */\n  dup3\n    /* \"--CODEGEN--\":45:68   */\n  sstore\n    /* \"--CODEGEN--\":79:89   */\n  dup1\n    /* \"--CODEGEN--\":72:89   */\n  swap2\n  pop\n    /* \"--CODEGEN--\":0:93   */\n  pop\n    /* \"BallotV4.sol\":841:868  proposals.push(Proposal(0)) */\n  0x01\n  swap1\n  sub\n  swap1\n  0x00\n  mstore\n  keccak256(0x00, 0x20)\n  add\n  0x00\n  swap1\n  swap2\n  swap1\n  swap2\n  swap1\n  swap2\n  pop\n  0x00\n  dup3\n  add\n  mload\n  dup2\n  0x00\n  add\n  sstore\n  pop\n  pop\n    /* \"BallotV4.sol\":820:827  prop ++ */\n  dup1\n  dup1\n  0x01\n  add\n  swap2\n  pop\n  pop\n    /* \"BallotV4.sol\":778:868  for (uint8 prop = 0; prop < numProposals; prop ++)... */\n  jump(tag_5)\ntag_6:\n  pop\n    /* \"BallotV4.sol\":562:884  constructor (uint numProposals) public  {... */\n  pop\n    /* \"BallotV4.sol\":34:1826  contract Ballot {... */\n  dataSize(sub_0)\n  dup1\n  dataOffset(sub_0)\n  0x00\n  codecopy\n  0x00\n  return\nstop\n\nsub_0: assembly {\n        /* \"BallotV4.sol\":34:1826  contract Ballot {... */\n      mstore(0x40, 0x80)\n      callvalue\n        /* \"--CODEGEN--\":8:17   */\n      dup1\n        /* \"--CODEGEN--\":5:7   */\n      iszero\n      tag_1\n      jumpi\n        /* \"--CODEGEN--\":30:31   */\n      0x00\n        /* \"--CODEGEN--\":27:28   */\n      dup1\n        /* \"--CODEGEN--\":20:32   */\n      revert\n        /* \"--CODEGEN--\":5:7   */\n    tag_1:\n        /* \"BallotV4.sol\":34:1826  contract Ballot {... */\n      pop\n      jumpi(tag_2, lt(calldatasize, 0x04))\n      shr(0xe0, calldataload(0x00))\n      dup1\n      0x0121b93f\n      eq\n      tag_3\n      jumpi\n      dup1\n      0x4420e486\n      eq\n      tag_4\n      jumpi\n      dup1\n      0x508b30c9\n      eq\n      tag_5\n      jumpi\n    tag_2:\n      0x00\n      dup1\n      revert\n        /* \"BallotV4.sol\":1048:1426  function vote(uint toProposal) public  validVoter{... */\n    tag_3:\n      tag_6\n      0x04\n      dup1\n      calldatasize\n      sub\n        /* \"--CODEGEN--\":13:15   */\n      0x20\n        /* \"--CODEGEN--\":8:11   */\n      dup2\n        /* \"--CODEGEN--\":5:16   */\n      lt\n        /* \"--CODEGEN--\":2:4   */\n      iszero\n      tag_7\n      jumpi\n        /* \"--CODEGEN--\":29:30   */\n      0x00\n        /* \"--CODEGEN--\":26:27   */\n      dup1\n        /* \"--CODEGEN--\":19:31   */\n      revert\n        /* \"--CODEGEN--\":2:4   */\n    tag_7:\n        /* \"BallotV4.sol\":1048:1426  function vote(uint toProposal) public  validVoter{... */\n      dup2\n      add\n      swap1\n      dup1\n      dup1\n      calldataload\n      swap1\n      0x20\n      add\n      swap1\n      swap3\n      swap2\n      swap1\n      pop\n      pop\n      pop\n      tag_8\n      jump\t// in\n    tag_6:\n      stop\n        /* \"BallotV4.sol\":900:1038  function register(address voter) public  onlyChair {... */\n    tag_4:\n      tag_9\n      0x04\n      dup1\n      calldatasize\n      sub\n        /* \"--CODEGEN--\":13:15   */\n      0x20\n        /* \"--CODEGEN--\":8:11   */\n      dup2\n        /* \"--CODEGEN--\":5:16   */\n      lt\n        /* \"--CODEGEN--\":2:4   */\n      iszero\n      tag_10\n      jumpi\n        /* \"--CODEGEN--\":29:30   */\n      0x00\n        /* \"--CODEGEN--\":26:27   */\n      dup1\n        /* \"--CODEGEN--\":19:31   */\n      revert\n        /* \"--CODEGEN--\":2:4   */\n    tag_10:\n        /* \"BallotV4.sol\":900:1038  function register(address voter) public  onlyChair {... */\n      dup2\n      add\n      swap1\n      dup1\n      dup1\n      calldataload\n      0xffffffffffffffffffffffffffffffffffffffff\n      and\n      swap1\n      0x20\n      add\n      swap1\n      swap3\n      swap2\n      swap1\n      pop\n      pop\n      pop\n      tag_11\n      jump\t// in\n    tag_9:\n      stop\n        /* \"BallotV4.sol\":1432:1824  function reqWinner() public view returns (uint winningProposal) {... */\n    tag_5:\n      tag_12\n      tag_13\n      jump\t// in\n    tag_12:\n      mload(0x40)\n      dup1\n      dup3\n      dup2\n      mstore\n      0x20\n      add\n      swap2\n      pop\n      pop\n      mload(0x40)\n      dup1\n      swap2\n      sub\n      swap1\n      return\n        /* \"BallotV4.sol\":1048:1426  function vote(uint toProposal) public  validVoter{... */\n    tag_8:\n        /* \"BallotV4.sol\":517:518  0 */\n      0x00\n        /* \"BallotV4.sol\":489:495  voters */\n      0x01\n        /* \"BallotV4.sol\":489:507  voters[msg.sender] */\n      0x00\n        /* \"BallotV4.sol\":496:506  msg.sender */\n      caller\n        /* \"BallotV4.sol\":489:507  voters[msg.sender] */\n      0xffffffffffffffffffffffffffffffffffffffff\n      and\n      0xffffffffffffffffffffffffffffffffffffffff\n      and\n      dup2\n      mstore\n      0x20\n      add\n      swap1\n      dup2\n      mstore\n      0x20\n      add\n      0x00\n      keccak256\n        /* \"BallotV4.sol\":489:514  voters[msg.sender].weight */\n      0x00\n      add\n      sload\n        /* \"BallotV4.sol\":489:518  voters[msg.sender].weight > 0 */\n      gt\n        /* \"BallotV4.sol\":481:538  require(voters[msg.sender].weight > 0, \"不是投票人\") */\n      tag_15\n      jumpi\n      mload(0x40)\n      0x08c379a000000000000000000000000000000000000000000000000000000000\n      dup2\n      mstore\n      0x04\n      add\n      dup1\n      dup1\n      0x20\n      add\n      dup3\n      dup2\n      sub\n      dup3\n      mstore\n      0x0f\n      dup2\n      mstore\n      0x20\n      add\n      dup1\n      0xe4b88de698afe68a95e7a5a8e4baba0000000000000000000000000000000000\n      dup2\n      mstore\n      pop\n      0x20\n      add\n      swap2\n      pop\n      pop\n      mload(0x40)\n      dup1\n      swap2\n      sub\n      swap1\n      revert\n    tag_15:\n        /* \"BallotV4.sol\":1114:1133  Voter memory sender */\n      tag_17\n      tag_18\n      jump\t// in\n    tag_17:\n        /* \"BallotV4.sol\":1136:1142  voters */\n      0x01\n        /* \"BallotV4.sol\":1136:1154  voters[msg.sender] */\n      0x00\n        /* \"BallotV4.sol\":1143:1153  msg.sender */\n      caller\n        /* \"BallotV4.sol\":1136:1154  voters[msg.sender] */\n      0xffffffffffffffffffffffffffffffffffffffff\n      and\n      0xffffffffffffffffffffffffffffffffffffffff\n      and\n      dup2\n      mstore\n      0x20\n      add\n      swap1\n      dup2\n      mstore\n      0x20\n      add\n      0x00\n      keccak256\n        /* \"BallotV4.sol\":1114:1154  Voter memory sender = voters[msg.sender] */\n      mload(0x40)\n      dup1\n      0x60\n      add\n      0x40\n      mstore\n      swap1\n      dup2\n      0x00\n      dup3\n      add\n      sload\n      dup2\n      mstore\n      0x20\n      add\n      0x01\n      dup3\n      add\n      0x00\n      swap1\n      sload\n      swap1\n      0x0100\n      exp\n      swap1\n      div\n      0xff\n      and\n      iszero\n      iszero\n      iszero\n      iszero\n      dup2\n      mstore\n      0x20\n      add\n      0x02\n      dup3\n      add\n      sload\n      dup2\n      mstore\n      pop\n      pop\n      swap1\n      pop\n        /* \"BallotV4.sol\":1183:1189  sender */\n      dup1\n        /* \"BallotV4.sol\":1183:1195  sender.voted */\n      0x20\n      add\n      mload\n        /* \"BallotV4.sol\":1182:1195  !sender.voted */\n      iszero\n        /* \"BallotV4.sol\":1173:1217  require (!sender.voted,\"已经投过票了\") */\n      tag_19\n      jumpi\n      mload(0x40)\n      0x08c379a000000000000000000000000000000000000000000000000000000000\n      dup2\n      mstore\n      0x04\n      add\n      dup1\n      dup1\n      0x20\n      add\n      dup3\n      dup2\n      sub\n      dup3\n      mstore\n      0x12\n      dup2\n      mstore\n      0x20\n      add\n      dup1\n      0xe5b7b2e7bb8fe68a95e8bf87e7a5a8e4ba860000000000000000000000000000\n      dup2\n      mstore\n      pop\n      0x20\n      add\n      swap2\n      pop\n      pop\n      mload(0x40)\n      dup1\n      swap2\n      sub\n      swap1\n      revert\n    tag_19:\n        /* \"BallotV4.sol\":1250:1259  proposals */\n      0x02\n        /* \"BallotV4.sol\":1250:1266  proposals.length */\n      dup1\n      sload\n      swap1\n      pop\n        /* \"BallotV4.sol\":1237:1247  toProposal */\n      dup3\n        /* \"BallotV4.sol\":1237:1266  toProposal < proposals.length */\n      lt\n        /* \"BallotV4.sol\":1228:1285  require (toProposal < proposals.length,\"没有该选项\") */\n      tag_20\n      jumpi\n      mload(0x40)\n      0x08c379a000000000000000000000000000000000000000000000000000000000\n      dup2\n      mstore\n      0x04\n      add\n      dup1\n      dup1\n      0x20\n      add\n      dup3\n      dup2\n      sub\n      dup3\n      mstore\n      0x0f\n      dup2\n      mstore\n      0x20\n      add\n      dup1\n      0xe6b2a1e69c89e8afa5e98089e9a1b90000000000000000000000000000000000\n      dup2\n      mstore\n      pop\n      0x20\n      add\n      swap2\n      pop\n      pop\n      mload(0x40)\n      dup1\n      swap2\n      sub\n      swap1\n      revert\n    tag_20:\n        /* \"BallotV4.sol\":1320:1324  true */\n      0x01\n        /* \"BallotV4.sol\":1305:1311  sender */\n      dup2\n        /* \"BallotV4.sol\":1305:1317  sender.voted */\n      0x20\n      add\n        /* \"BallotV4.sol\":1305:1324  sender.voted = true */\n      swap1\n      iszero\n      iszero\n      swap1\n      dup2\n      iszero\n      iszero\n      dup2\n      mstore\n      pop\n      pop\n        /* \"BallotV4.sol\":1348:1358  toProposal */\n      dup2\n        /* \"BallotV4.sol\":1334:1340  sender */\n      dup2\n        /* \"BallotV4.sol\":1334:1345  sender.vote */\n      0x40\n      add\n        /* \"BallotV4.sol\":1334:1358  sender.vote = toProposal */\n      dup2\n      dup2\n      mstore\n      pop\n      pop\n        /* \"BallotV4.sol\":1406:1412  sender */\n      dup1\n        /* \"BallotV4.sol\":1406:1419  sender.weight */\n      0x00\n      add\n      mload\n        /* \"BallotV4.sol\":1371:1380  proposals */\n      0x02\n        /* \"BallotV4.sol\":1381:1391  toProposal */\n      dup4\n        /* \"BallotV4.sol\":1371:1392  proposals[toProposal] */\n      dup2\n      sload\n      dup2\n      lt\n      tag_21\n      jumpi\n      invalid\n    tag_21:\n      swap1\n      0x00\n      mstore\n      keccak256(0x00, 0x20)\n      add\n        /* \"BallotV4.sol\":1371:1402  proposals[toProposal].voteCount */\n      0x00\n      add\n      0x00\n        /* \"BallotV4.sol\":1371:1419  proposals[toProposal].voteCount += sender.weight */\n      dup3\n      dup3\n      sload\n      add\n      swap3\n      pop\n      pop\n      dup2\n      swap1\n      sstore\n      pop\n        /* \"BallotV4.sol\":548:549  _ */\n      pop\n        /* \"BallotV4.sol\":1048:1426  function vote(uint toProposal) public  validVoter{... */\n      pop\n      jump\t// out\n        /* \"BallotV4.sol\":900:1038  function register(address voter) public  onlyChair {... */\n    tag_11:\n        /* \"BallotV4.sol\":404:415  chairperson */\n      0x00\n      dup1\n      swap1\n      sload\n      swap1\n      0x0100\n      exp\n      swap1\n      div\n      0xffffffffffffffffffffffffffffffffffffffff\n      and\n        /* \"BallotV4.sol\":390:415  msg.sender == chairperson */\n      0xffffffffffffffffffffffffffffffffffffffff\n      and\n        /* \"BallotV4.sol\":390:400  msg.sender */\n      caller\n        /* \"BallotV4.sol\":390:415  msg.sender == chairperson */\n      0xffffffffffffffffffffffffffffffffffffffff\n      and\n      eq\n        /* \"BallotV4.sol\":382:416  require(msg.sender == chairperson) */\n      tag_24\n      jumpi\n      0x00\n      dup1\n      revert\n    tag_24:\n        /* \"BallotV4.sol\":993:994  1 */\n      0x01\n        /* \"BallotV4.sol\":970:976  voters */\n      dup1\n        /* \"BallotV4.sol\":970:983  voters[voter] */\n      0x00\n        /* \"BallotV4.sol\":977:982  voter */\n      dup4\n        /* \"BallotV4.sol\":970:983  voters[voter] */\n      0xffffffffffffffffffffffffffffffffffffffff\n      and\n      0xffffffffffffffffffffffffffffffffffffffff\n      and\n      dup2\n      mstore\n      0x20\n      add\n      swap1\n      dup2\n      mstore\n      0x20\n      add\n      0x00\n      keccak256\n        /* \"BallotV4.sol\":970:990  voters[voter].weight */\n      0x00\n      add\n        /* \"BallotV4.sol\":970:994  voters[voter].weight = 1 */\n      dup2\n      swap1\n      sstore\n      pop\n        /* \"BallotV4.sol\":1026:1031  false */\n      0x00\n        /* \"BallotV4.sol\":1004:1010  voters */\n      0x01\n        /* \"BallotV4.sol\":1004:1017  voters[voter] */\n      0x00\n        /* \"BallotV4.sol\":1011:1016  voter */\n      dup4\n        /* \"BallotV4.sol\":1004:1017  voters[voter] */\n      0xffffffffffffffffffffffffffffffffffffffff\n      and\n      0xffffffffffffffffffffffffffffffffffffffff\n      and\n      dup2\n      mstore\n      0x20\n      add\n      swap1\n      dup2\n      mstore\n      0x20\n      add\n      0x00\n      keccak256\n        /* \"BallotV4.sol\":1004:1023  voters[voter].voted */\n      0x01\n      add\n      0x00\n        /* \"BallotV4.sol\":1004:1031  voters[voter].voted = false */\n      0x0100\n      exp\n      dup2\n      sload\n      dup2\n      0xff\n      mul\n      not\n      and\n      swap1\n      dup4\n      iszero\n      iszero\n      mul\n      or\n      swap1\n      sstore\n      pop\n        /* \"BallotV4.sol\":900:1038  function register(address voter) public  onlyChair {... */\n      pop\n      jump\t// out\n        /* \"BallotV4.sol\":1432:1824  function reqWinner() public view returns (uint winningProposal) {... */\n    tag_13:\n        /* \"BallotV4.sol\":1474:1494  uint winningProposal */\n      0x00\n        /* \"BallotV4.sol\":1514:1535  uint winningVoteCount */\n      dup1\n        /* \"BallotV4.sol\":1538:1539  0 */\n      0x00\n        /* \"BallotV4.sol\":1514:1539  uint winningVoteCount = 0 */\n      swap1\n      pop\n        /* \"BallotV4.sol\":1554:1563  uint prop */\n      0x00\n        /* \"BallotV4.sol\":1566:1567  0 */\n      dup1\n        /* \"BallotV4.sol\":1554:1567  uint prop = 0 */\n      swap1\n      pop\n        /* \"BallotV4.sol\":1549:1782  for (uint prop = 0; prop < proposals.length; prop++) ... */\n    tag_27:\n        /* \"BallotV4.sol\":1576:1585  proposals */\n      0x02\n        /* \"BallotV4.sol\":1576:1592  proposals.length */\n      dup1\n      sload\n      swap1\n      pop\n        /* \"BallotV4.sol\":1569:1573  prop */\n      dup2\n        /* \"BallotV4.sol\":1569:1592  prop < proposals.length */\n      lt\n        /* \"BallotV4.sol\":1549:1782  for (uint prop = 0; prop < proposals.length; prop++) ... */\n      iszero\n      tag_28\n      jumpi\n        /* \"BallotV4.sol\":1647:1663  winningVoteCount */\n      dup2\n        /* \"BallotV4.sol\":1619:1628  proposals */\n      0x02\n        /* \"BallotV4.sol\":1629:1633  prop */\n      dup3\n        /* \"BallotV4.sol\":1619:1634  proposals[prop] */\n      dup2\n      sload\n      dup2\n      lt\n      tag_30\n      jumpi\n      invalid\n    tag_30:\n      swap1\n      0x00\n      mstore\n      keccak256(0x00, 0x20)\n      add\n        /* \"BallotV4.sol\":1619:1644  proposals[prop].voteCount */\n      0x00\n      add\n      sload\n        /* \"BallotV4.sol\":1619:1663  proposals[prop].voteCount > winningVoteCount */\n      gt\n        /* \"BallotV4.sol\":1615:1782  if (proposals[prop].voteCount > winningVoteCount) {... */\n      iszero\n      tag_32\n      jumpi\n        /* \"BallotV4.sol\":1702:1711  proposals */\n      0x02\n        /* \"BallotV4.sol\":1712:1716  prop */\n      dup2\n        /* \"BallotV4.sol\":1702:1717  proposals[prop] */\n      dup2\n      sload\n      dup2\n      lt\n      tag_33\n      jumpi\n      invalid\n    tag_33:\n      swap1\n      0x00\n      mstore\n      keccak256(0x00, 0x20)\n      add\n        /* \"BallotV4.sol\":1702:1727  proposals[prop].voteCount */\n      0x00\n      add\n      sload\n        /* \"BallotV4.sol\":1683:1727  winningVoteCount = proposals[prop].voteCount */\n      swap2\n      pop\n        /* \"BallotV4.sol\":1763:1767  prop */\n      dup1\n        /* \"BallotV4.sol\":1745:1767  winningProposal = prop */\n      swap3\n      pop\n        /* \"BallotV4.sol\":1615:1782  if (proposals[prop].voteCount > winningVoteCount) {... */\n    tag_32:\n        /* \"BallotV4.sol\":1594:1600  prop++ */\n      dup1\n      dup1\n      0x01\n      add\n      swap2\n      pop\n      pop\n        /* \"BallotV4.sol\":1549:1782  for (uint prop = 0; prop < proposals.length; prop++) ... */\n      jump(tag_27)\n    tag_28:\n      pop\n        /* \"BallotV4.sol\":1815:1816  3 */\n      0x03\n        /* \"BallotV4.sol\":1797:1813  winningVoteCount */\n      dup2\n        /* \"BallotV4.sol\":1797:1816  winningVoteCount>=3 */\n      lt\n      iszero\n        /* \"BallotV4.sol\":1790:1817  assert(winningVoteCount>=3) */\n      tag_35\n      jumpi\n      invalid\n    tag_35:\n        /* \"BallotV4.sol\":1432:1824  function reqWinner() public view returns (uint winningProposal) {... */\n      pop\n      swap1\n      jump\t// out\n        /* \"BallotV4.sol\":34:1826  contract Ballot {... */\n    tag_18:\n      mload(0x40)\n      dup1\n      0x60\n      add\n      0x40\n      mstore\n      dup1\n      0x00\n      dup2\n      mstore\n      0x20\n      add\n      iszero(iszero(0x00))\n      dup2\n      mstore\n      0x20\n      add\n      0x00\n      dup2\n      mstore\n      pop\n      swap1\n      jump\t// out\n\n    auxdata: 0xa2646970667358221220d1e8696a5592315ad506f6fd012c78d5dc6bf6f39d5b70636af6dc836e20d7d264736f6c63430006000033\n}\n",
				"bytecode": {
					"linkReferences": {},
					"object": "608060405234801561001057600080fd5b5060405161067e38038061067e8339818101604052602081101561003357600080fd5b8101908080519060200190929190505050336000806101000a81548173ffffffffffffffffffffffffffffffffffffffff021916908373ffffffffffffffffffffffffffffffffffffffff1602179055506002600160008060009054906101000a900473ffffffffffffffffffffffffffffffffffffffff1673ffffffffffffffffffffffffffffffffffffffff1673ffffffffffffffffffffffffffffffffffffffff1681526020019081526020016000206000018190555060008090505b818160ff16101561014e576002604051806020016040528060008152509080600181540180825580915050600190039060005260206000200160009091909190915060008201518160000155505080806001019150506100f3565b505061051f8061015f6000396000f3fe608060405234801561001057600080fd5b50600436106100415760003560e01c80630121b93f146100465780634420e48614610074578063508b30c9146100b8575b600080fd5b6100726004803603602081101561005c57600080fd5b81019080803590602001909291905050506100d6565b005b6100b66004803603602081101561008a57600080fd5b81019080803573ffffffffffffffffffffffffffffffffffffffff16906020019092919050505061034e565b005b6100c061044c565b6040518082815260200191505060405180910390f35b6000600160003373ffffffffffffffffffffffffffffffffffffffff1673ffffffffffffffffffffffffffffffffffffffff168152602001908152602001600020600001541161018e576040517f08c379a000000000000000000000000000000000000000000000000000000000815260040180806020018281038252600f8152602001807fe4b88de698afe68a95e7a5a8e4baba000000000000000000000000000000000081525060200191505060405180910390fd5b6101966104c6565b600160003373ffffffffffffffffffffffffffffffffffffffff1673ffffffffffffffffffffffffffffffffffffffff168152602001908152602001600020604051806060016040529081600082015481526020016001820160009054906101000a900460ff161515151581526020016002820154815250509050806020015115610289576040517f08c379a00000000000000000000000000000000000000000000000000000000081526004018080602001828103825260128152602001807fe5b7b2e7bb8fe68a95e8bf87e7a5a8e4ba86000000000000000000000000000081525060200191505060405180910390fd5b6002805490508210610303576040517f08c379a000000000000000000000000000000000000000000000000000000000815260040180806020018281038252600f8152602001807fe6b2a1e69c89e8afa5e98089e9a1b9000000000000000000000000000000000081525060200191505060405180910390fd5b60018160200190151590811515815250508181604001818152505080600001516002838154811061033057fe5b90600052602060002001600001600082825401925050819055505050565b6000809054906101000a900473ffffffffffffffffffffffffffffffffffffffff1673ffffffffffffffffffffffffffffffffffffffff163373ffffffffffffffffffffffffffffffffffffffff16146103a757600080fd5b60018060008373ffffffffffffffffffffffffffffffffffffffff1673ffffffffffffffffffffffffffffffffffffffff168152602001908152602001600020600001819055506000600160008373ffffffffffffffffffffffffffffffffffffffff1673ffffffffffffffffffffffffffffffffffffffff16815260200190815260200160002060010160006101000a81548160ff02191690831515021790555050565b6000806000905060008090505b6002805490508110156104b657816002828154811061047457fe5b906000526020600020016000015411156104a9576002818154811061049557fe5b906000526020600020016000015491508092505b8080600101915050610459565b5060038110156104c257fe5b5090565b60405180606001604052806000815260200160001515815260200160008152509056fea2646970667358221220d1e8696a5592315ad506f6fd012c78d5dc6bf6f39d5b70636af6dc836e20d7d264736f6c63430006000033",
					"opcodes": "PUSH1 0x80 PUSH1 0x40 MSTORE CALLVALUE DUP1 ISZERO PUSH2 0x10 JUMPI PUSH1 0x0 DUP1 REVERT JUMPDEST POP PUSH1 0x40 MLOAD PUSH2 0x67E CODESIZE SUB DUP1 PUSH2 0x67E DUP4 CODECOPY DUP2 DUP2 ADD PUSH1 0x40 MSTORE PUSH1 0x20 DUP2 LT ISZERO PUSH2 0x33 JUMPI PUSH1 0x0 DUP1 REVERT JUMPDEST DUP2 ADD SWAP1 DUP1 DUP1 MLOAD SWAP1 PUSH1 0x20 ADD SWAP1 SWAP3 SWAP2 SWAP1 POP POP POP CALLER PUSH1 0x0 DUP1 PUSH2 0x100 EXP DUP2 SLOAD DUP2 PUSH20 0xFFFFFFFFFFFFFFFFFFFFFFFFFFFFFFFFFFFFFFFF MUL NOT AND SWAP1 DUP4 PUSH20 0xFFFFFFFFFFFFFFFFFFFFFFFFFFFFFFFFFFFFFFFF AND MUL OR SWAP1 SSTORE POP PUSH1 0x2 PUSH1 0x1 PUSH1 0x0 DUP1 PUSH1 0x0 SWAP1 SLOAD SWAP1 PUSH2 0x100 EXP SWAP1 DIV PUSH20 0xFFFFFFFFFFFFFFFFFFFFFFFFFFFFFFFFFFFFFFFF AND PUSH20 0xFFFFFFFFFFFFFFFFFFFFFFFFFFFFFFFFFFFFFFFF AND PUSH20 0xFFFFFFFFFFFFFFFFFFFFFFFFFFFFFFFFFFFFFFFF AND DUP2 MSTORE PUSH1 0x20 ADD SWAP1 DUP2 MSTORE PUSH1 0x20 ADD PUSH1 0x0 KECCAK256 PUSH1 0x0 ADD DUP2 SWAP1 SSTORE POP PUSH1 0x0 DUP1 SWAP1 POP JUMPDEST DUP2 DUP2 PUSH1 0xFF AND LT ISZERO PUSH2 0x14E JUMPI PUSH1 0x2 PUSH1 0x40 MLOAD DUP1 PUSH1 0x20 ADD PUSH1 0x40 MSTORE DUP1 PUSH1 0x0 DUP2 MSTORE POP SWAP1 DUP1 PUSH1 0x1 DUP2 SLOAD ADD DUP1 DUP3 SSTORE DUP1 SWAP2 POP POP PUSH1 0x1 SWAP1 SUB SWAP1 PUSH1 0x0 MSTORE PUSH1 0x20 PUSH1 0x0 KECCAK256 ADD PUSH1 0x0 SWAP1 SWAP2 SWAP1 SWAP2 SWAP1 SWAP2 POP PUSH1 0x0 DUP3 ADD MLOAD DUP2 PUSH1 0x0 ADD SSTORE POP POP DUP1 DUP1 PUSH1 0x1 ADD SWAP2 POP POP PUSH2 0xF3 JUMP JUMPDEST POP POP PUSH2 0x51F DUP1 PUSH2 0x15F PUSH1 0x0 CODECOPY PUSH1 0x0 RETURN INVALID PUSH1 0x80 PUSH1 0x40 MSTORE CALLVALUE DUP1 ISZERO PUSH2 0x10 JUMPI PUSH1 0x0 DUP1 REVERT JUMPDEST POP PUSH1 0x4 CALLDATASIZE LT PUSH2 0x41 JUMPI PUSH1 0x0 CALLDATALOAD PUSH1 0xE0 SHR DUP1 PUSH4 0x121B93F EQ PUSH2 0x46 JUMPI DUP1 PUSH4 0x4420E486 EQ PUSH2 0x74 JUMPI DUP1 PUSH4 0x508B30C9 EQ PUSH2 0xB8 JUMPI JUMPDEST PUSH1 0x0 DUP1 REVERT JUMPDEST PUSH2 0x72 PUSH1 0x4 DUP1 CALLDATASIZE SUB PUSH1 0x20 DUP2 LT ISZERO PUSH2 0x5C JUMPI PUSH1 0x0 DUP1 REVERT JUMPDEST DUP2 ADD SWAP1 DUP1 DUP1 CALLDATALOAD SWAP1 PUSH1 0x20 ADD SWAP1 SWAP3 SWAP2 SWAP1 POP POP POP PUSH2 0xD6 JUMP JUMPDEST STOP JUMPDEST PUSH2 0xB6 PUSH1 0x4 DUP1 CALLDATASIZE SUB PUSH1 0x20 DUP2 LT ISZERO PUSH2 0x8A JUMPI PUSH1 0x0 DUP1 REVERT JUMPDEST DUP2 ADD SWAP1 DUP1 DUP1 CALLDATALOAD PUSH20 0xFFFFFFFFFFFFFFFFFFFFFFFFFFFFFFFFFFFFFFFF AND SWAP1 PUSH1 0x20 ADD SWAP1 SWAP3 SWAP2 SWAP1 POP POP POP PUSH2 0x34E JUMP JUMPDEST STOP JUMPDEST PUSH2 0xC0 PUSH2 0x44C JUMP JUMPDEST PUSH1 0x40 MLOAD DUP1 DUP3 DUP2 MSTORE PUSH1 0x20 ADD SWAP2 POP POP PUSH1 0x40 MLOAD DUP1 SWAP2 SUB SWAP1 RETURN JUMPDEST PUSH1 0x0 PUSH1 0x1 PUSH1 0x0 CALLER PUSH20 0xFFFFFFFFFFFFFFFFFFFFFFFFFFFFFFFFFFFFFFFF AND PUSH20 0xFFFFFFFFFFFFFFFFFFFFFFFFFFFFFFFFFFFFFFFF AND DUP2 MSTORE PUSH1 0x20 ADD SWAP1 DUP2 MSTORE PUSH1 0x20 ADD PUSH1 0x0 KECCAK256 PUSH1 0x0 ADD SLOAD GT PUSH2 0x18E JUMPI PUSH1 0x40 MLOAD PUSH32 0x8C379A000000000000000000000000000000000000000000000000000000000 DUP2 MSTORE PUSH1 0x4 ADD DUP1 DUP1 PUSH1 0x20 ADD DUP3 DUP2 SUB DUP3 MSTORE PUSH1 0xF DUP2 MSTORE PUSH1 0x20 ADD DUP1 PUSH32 0xE4B88DE698AFE68A95E7A5A8E4BABA0000000000000000000000000000000000 DUP2 MSTORE POP PUSH1 0x20 ADD SWAP2 POP POP PUSH1 0x40 MLOAD DUP1 SWAP2 SUB SWAP1 REVERT JUMPDEST PUSH2 0x196 PUSH2 0x4C6 JUMP JUMPDEST PUSH1 0x1 PUSH1 0x0 CALLER PUSH20 0xFFFFFFFFFFFFFFFFFFFFFFFFFFFFFFFFFFFFFFFF AND PUSH20 0xFFFFFFFFFFFFFFFFFFFFFFFFFFFFFFFFFFFFFFFF AND DUP2 MSTORE PUSH1 0x20 ADD SWAP1 DUP2 MSTORE PUSH1 0x20 ADD PUSH1 0x0 KECCAK256 PUSH1 0x40 MLOAD DUP1 PUSH1 0x60 ADD PUSH1 0x40 MSTORE SWAP1 DUP2 PUSH1 0x0 DUP3 ADD SLOAD DUP2 MSTORE PUSH1 0x20 ADD PUSH1 0x1 DUP3 ADD PUSH1 0x0 SWAP1 SLOAD SWAP1 PUSH2 0x100 EXP SWAP1 DIV PUSH1 0xFF AND ISZERO ISZERO ISZERO ISZERO DUP2 MSTORE PUSH1 0x20 ADD PUSH1 0x2 DUP3 ADD SLOAD DUP2 MSTORE POP POP SWAP1 POP DUP1 PUSH1 0x20 ADD MLOAD ISZERO PUSH2 0x289 JUMPI PUSH1 0x40 MLOAD PUSH32 0x8C379A000000000000000000000000000000000000000000000000000000000 DUP2 MSTORE PUSH1 0x4 ADD DUP1 DUP1 PUSH1 0x20 ADD DUP3 DUP2 SUB DUP3 MSTORE PUSH1 0x12 DUP2 MSTORE PUSH1 0x20 ADD DUP1 PUSH32 0xE5B7B2E7BB8FE68A95E8BF87E7A5A8E4BA860000000000000000000000000000 DUP2 MSTORE POP PUSH1 0x20 ADD SWAP2 POP POP PUSH1 0x40 MLOAD DUP1 SWAP2 SUB SWAP1 REVERT JUMPDEST PUSH1 0x2 DUP1 SLOAD SWAP1 POP DUP3 LT PUSH2 0x303 JUMPI PUSH1 0x40 MLOAD PUSH32 0x8C379A000000000000000000000000000000000000000000000000000000000 DUP2 MSTORE PUSH1 0x4 ADD DUP1 DUP1 PUSH1 0x20 ADD DUP3 DUP2 SUB DUP3 MSTORE PUSH1 0xF DUP2 MSTORE PUSH1 0x20 ADD DUP1 PUSH32 0xE6B2A1E69C89E8AFA5E98089E9A1B90000000000000000000000000000000000 DUP2 MSTORE POP PUSH1 0x20 ADD SWAP2 POP POP PUSH1 0x40 MLOAD DUP1 SWAP2 SUB SWAP1 REVERT JUMPDEST PUSH1 0x1 DUP2 PUSH1 0x20 ADD SWAP1 ISZERO ISZERO SWAP1 DUP2 ISZERO ISZERO DUP2 MSTORE POP POP DUP2 DUP2 PUSH1 0x40 ADD DUP2 DUP2 MSTORE POP POP DUP1 PUSH1 0x0 ADD MLOAD PUSH1 0x2 DUP4 DUP2 SLOAD DUP2 LT PUSH2 0x330 JUMPI INVALID JUMPDEST SWAP1 PUSH1 0x0 MSTORE PUSH1 0x20 PUSH1 0x0 KECCAK256 ADD PUSH1 0x0 ADD PUSH1 0x0 DUP3 DUP3 SLOAD ADD SWAP3 POP POP DUP2 SWAP1 SSTORE POP POP POP JUMP JUMPDEST PUSH1 0x0 DUP1 SWAP1 SLOAD SWAP1 PUSH2 0x100 EXP SWAP1 DIV PUSH20 0xFFFFFFFFFFFFFFFFFFFFFFFFFFFFFFFFFFFFFFFF AND PUSH20 0xFFFFFFFFFFFFFFFFFFFFFFFFFFFFFFFFFFFFFFFF AND CALLER PUSH20 0xFFFFFFFFFFFFFFFFFFFFFFFFFFFFFFFFFFFFFFFF AND EQ PUSH2 0x3A7 JUMPI PUSH1 0x0 DUP1 REVERT JUMPDEST PUSH1 0x1 DUP1 PUSH1 0x0 DUP4 PUSH20 0xFFFFFFFFFFFFFFFFFFFFFFFFFFFFFFFFFFFFFFFF AND PUSH20 0xFFFFFFFFFFFFFFFFFFFFFFFFFFFFFFFFFFFFFFFF AND DUP2 MSTORE PUSH1 0x20 ADD SWAP1 DUP2 MSTORE PUSH1 0x20 ADD PUSH1 0x0 KECCAK256 PUSH1 0x0 ADD DUP2 SWAP1 SSTORE POP PUSH1 0x0 PUSH1 0x1 PUSH1 0x0 DUP4 PUSH20 0xFFFFFFFFFFFFFFFFFFFFFFFFFFFFFFFFFFFFFFFF AND PUSH20 0xFFFFFFFFFFFFFFFFFFFFFFFFFFFFFFFFFFFFFFFF AND DUP2 MSTORE PUSH1 0x20 ADD SWAP1 DUP2 MSTORE PUSH1 0x20 ADD PUSH1 0x0 KECCAK256 PUSH1 0x1 ADD PUSH1 0x0 PUSH2 0x100 EXP DUP2 SLOAD DUP2 PUSH1 0xFF MUL NOT AND SWAP1 DUP4 ISZERO ISZERO MUL OR SWAP1 SSTORE POP POP JUMP JUMPDEST PUSH1 0x0 DUP1 PUSH1 0x0 SWAP1 POP PUSH1 0x0 DUP1 SWAP1 POP JUMPDEST PUSH1 0x2 DUP1 SLOAD SWAP1 POP DUP2 LT ISZERO PUSH2 0x4B6 JUMPI DUP2 PUSH1 0x2 DUP3 DUP2 SLOAD DUP2 LT PUSH2 0x474 JUMPI INVALID JUMPDEST SWAP1 PUSH1 0x0 MSTORE PUSH1 0x20 PUSH1 0x0 KECCAK256 ADD PUSH1 0x0 ADD SLOAD GT ISZERO PUSH2 0x4A9 JUMPI PUSH1 0x2 DUP2 DUP2 SLOAD DUP2 LT PUSH2 0x495 JUMPI INVALID JUMPDEST SWAP1 PUSH1 0x0 MSTORE PUSH1 0x20 PUSH1 0x0 KECCAK256 ADD PUSH1 0x0 ADD SLOAD SWAP2 POP DUP1 SWAP3 POP JUMPDEST DUP1 DUP1 PUSH1 0x1 ADD SWAP2 POP POP PUSH2 0x459 JUMP JUMPDEST POP PUSH1 0x3 DUP2 LT ISZERO PUSH2 0x4C2 JUMPI INVALID JUMPDEST POP SWAP1 JUMP JUMPDEST PUSH1 0x40 MLOAD DUP1 PUSH1 0x60 ADD PUSH1 0x40 MSTORE DUP1 PUSH1 0x0 DUP2 MSTORE PUSH1 0x20 ADD PUSH1 0x0 ISZERO ISZERO DUP2 MSTORE PUSH1 0x20 ADD PUSH1 0x0 DUP2 MSTORE POP SWAP1 JUMP INVALID LOG2 PUSH5 0x6970667358 0x22 SLT KECCAK256 0xD1 0xE8 PUSH10 0x6A5592315AD506F6FD01 0x2C PUSH25 0xD5DC6BF6F39D5B70636AF6DC836E20D7D264736F6C63430006 STOP STOP CALLER "
				},
				"gasEstimates": {
					"creation": {
						"codeDepositCost": "262200",
						"executionCost": "infinite",
						"totalCost": "infinite"
					},
					"external": {
						"register(address)": "42177",
						"reqWinner()": "infinite",
						"vote(uint256)": "26534"
					}
				},
				"methodIdentifiers": {
					"register(address)": "4420e486",
					"reqWinner()": "508b30c9",
					"vote(uint256)": "0121b93f"
				}
			},
			"storageLayout": {
				"storage": [
					{
						"astId": 13,
						"contract": "BallotV4.sol:Ballot",
						"label": "chairperson",
						"offset": 0,
						"slot": "0",
						"type": "t_address"
					},
					{
						"astId": 17,
						"contract": "BallotV4.sol:Ballot",
						"label": "voters",
						"offset": 0,
						"slot": "1",
						"type": "t_mapping(t_address,t_struct(Voter)8_storage)"
					},
					{
						"astId": 20,
						"contract": "BallotV4.sol:Ballot",
						"label": "proposals",
						"offset": 0,
						"slot": "2",
						"type": "t_array(t_struct(Proposal)11_storage)dyn_storage"
					}
				],
				"types": {
					"t_address": {
						"encoding": "inplace",
						"label": "address",
						"numberOfBytes": "20"
					},
					"t_array(t_struct(Proposal)11_storage)dyn_storage": {
						"base": "t_struct(Proposal)11_storage",
						"encoding": "dynamic_array",
						"label": "struct Ballot.Proposal[]",
						"numberOfBytes": "32"
					},
					"t_bool": {
						"encoding": "inplace",
						"label": "bool",
						"numberOfBytes": "1"
					},
					"t_mapping(t_address,t_struct(Voter)8_storage)": {
						"encoding": "mapping",
						"key": "t_address",
						"label": "mapping(address => struct Ballot.Voter)",
						"numberOfBytes": "32",
						"value": "t_struct(Voter)8_storage"
					},
					"t_struct(Proposal)11_storage": {
						"encoding": "inplace",
						"label": "struct Ballot.Proposal",
						"members": [
							{
								"astId": 10,
								"contract": "BallotV4.sol:Ballot",
								"label": "voteCount",
								"offset": 0,
								"slot": "0",
								"type": "t_uint256"
							}
						],
						"numberOfBytes": "32"
					},
					"t_struct(Voter)8_storage": {
						"encoding": "inplace",
						"label": "struct Ballot.Voter",
						"members": [
							{
								"astId": 3,
								"contract": "BallotV4.sol:Ballot",
								"label": "weight",
								"offset": 0,
								"slot": "0",
								"type": "t_uint256"
							},
							{
								"astId": 5,
								"contract": "BallotV4.sol:Ballot",
								"label": "voted",
								"offset": 0,
								"slot": "1",
								"type": "t_bool"
							},
							{
								"astId": 7,
								"contract": "BallotV4.sol:Ballot",
								"label": "vote",
								"offset": 0,
								"slot": "2",
								"type": "t_uint256"
							}
						],
						"numberOfBytes": "96"
					},
					"t_uint256": {
						"encoding": "inplace",
						"label": "uint256",
						"numberOfBytes": "32"
					}
				}
			},
			"userdoc": {
				"methods": {}
			}
		}
	}
}