{
	"BallotV3.sol": {
		"BallotV3": {
			"abi": [
				{
					"inputs": [
						{
							"internalType": "uint256",
							"name": "proposalsNum",
							"type": "uint256"
						}
					],
					"stateMutability": "nonpayable",
					"type": "constructor"
				},
				{
					"inputs": [],
					"name": "chairperson",
					"outputs": [
						{
							"internalType": "address",
							"name": "",
							"type": "address"
						}
					],
					"stateMutability": "view",
					"type": "function"
				},
				{
					"inputs": [
						{
							"internalType": "enum BallotV3.Phase",
							"name": "changestate",
							"type": "uint8"
						}
					],
					"name": "changeStates",
					"outputs": [],
					"stateMutability": "nonpayable",
					"type": "function"
				},
				{
					"inputs": [
						{
							"internalType": "uint256",
							"name": "",
							"type": "uint256"
						}
					],
					"name": "proposals",
					"outputs": [
						{
							"internalType": "uint256",
							"name": "voteCount",
							"type": "uint256"
						}
					],
					"stateMutability": "view",
					"type": "function"
				},
				{
					"inputs": [
						{
							"internalType": "address",
							"name": "voter",
							"type": "address"
						}
					],
					"name": "register",
					"outputs": [],
					"stateMutability": "nonpayable",
					"type": "function"
				},
				{
					"inputs": [],
					"name": "reqWinnProp",
					"outputs": [
						{
							"internalType": "uint256",
							"name": "winningProposal",
							"type": "uint256"
						},
						{
							"internalType": "uint256",
							"name": "count",
							"type": "uint256"
						}
					],
					"stateMutability": "view",
					"type": "function"
				},
				{
					"inputs": [],
					"name": "state",
					"outputs": [
						{
							"internalType": "enum BallotV3.Phase",
							"name": "",
							"type": "uint8"
						}
					],
					"stateMutability": "view",
					"type": "function"
				},
				{
					"inputs": [
						{
							"internalType": "uint256",
							"name": "toPropost",
							"type": "uint256"
						}
					],
					"name": "vote",
					"outputs": [],
					"stateMutability": "nonpayable",
					"type": "function"
				},
				{
					"inputs": [
						{
							"internalType": "address",
							"name": "",
							"type": "address"
						}
					],
					"name": "voters",
					"outputs": [
						{
							"internalType": "uint256",
							"name": "weight",
							"type": "uint256"
						},
						{
							"internalType": "bool",
							"name": "voted",
							"type": "bool"
						},
						{
							"internalType": "uint256",
							"name": "vote",
							"type": "uint256"
						}
					],
					"stateMutability": "view",
					"type": "function"
				}
			],
			"devdoc": {
				"kind": "dev",
				"methods": {},
				"version": 1
			},
			"evm": {
				"assembly": "    /* \"BallotV3.sol\":65:2727  contract BallotV3 {... */\n  mstore(0x40, 0x80)\n    /* \"BallotV3.sol\":481:491  Phase.Init */\n  0x00\n    /* \"BallotV3.sol\":460:491  Phase public state = Phase.Init */\n  0x03\n  exp(0x0100, 0x00)\n  dup2\n  sload\n  dup2\n  0xff\n  mul\n  not\n  and\n  swap1\n  dup4\n  0x03\n  dup2\n  gt\n  iszero\n  tag_1\n  jumpi\n  invalid\ntag_1:\n  mul\n  or\n  swap1\n  sstore\n  pop\n    /* \"BallotV3.sol\":587:815  constructor(uint proposalsNum) public {... */\n  callvalue\n  dup1\n  iszero\n  tag_2\n  jumpi\n  0x00\n  dup1\n  revert\ntag_2:\n  pop\n  mload(0x40)\n  sub(codesize, bytecodeSize)\n  dup1\n  bytecodeSize\n  dup4\n  codecopy\n  dup2\n  dup2\n  add\n  0x40\n  mstore\n  0x20\n  dup2\n  lt\n  iszero\n  tag_3\n  jumpi\n  0x00\n  dup1\n  revert\ntag_3:\n  dup2\n  add\n  swap1\n  dup1\n  dup1\n  mload\n  swap1\n  0x20\n  add\n  swap1\n  swap3\n  swap2\n  swap1\n  pop\n  pop\n  pop\n    /* \"BallotV3.sol\":649:659  msg.sender */\n  caller\n    /* \"BallotV3.sol\":635:646  chairperson */\n  0x00\n  dup1\n    /* \"BallotV3.sol\":635:659  chairperson = msg.sender */\n  0x0100\n  exp\n  dup2\n  sload\n  dup2\n  0xffffffffffffffffffffffffffffffffffffffff\n  mul\n  not\n  and\n  swap1\n  dup4\n  0xffffffffffffffffffffffffffffffffffffffff\n  and\n  mul\n  or\n  swap1\n  sstore\n  pop\n    /* \"BallotV3.sol\":698:699  2 */\n  0x02\n    /* \"BallotV3.sol\":669:675  voters */\n  0x01\n    /* \"BallotV3.sol\":669:688  voters[chairperson] */\n  0x00\n    /* \"BallotV3.sol\":676:687  chairperson */\n  dup1\n  0x00\n  swap1\n  sload\n  swap1\n  0x0100\n  exp\n  swap1\n  div\n  0xffffffffffffffffffffffffffffffffffffffff\n  and\n    /* \"BallotV3.sol\":669:688  voters[chairperson] */\n  0xffffffffffffffffffffffffffffffffffffffff\n  and\n  0xffffffffffffffffffffffffffffffffffffffff\n  and\n  dup2\n  mstore\n  0x20\n  add\n  swap1\n  dup2\n  mstore\n  0x20\n  add\n  0x00\n  keccak256\n    /* \"BallotV3.sol\":669:695  voters[chairperson].weight */\n  0x00\n  add\n    /* \"BallotV3.sol\":669:699  voters[chairperson].weight = 2 */\n  dup2\n  swap1\n  sstore\n  pop\n    /* \"BallotV3.sol\":713:722  uint prop */\n  0x00\n    /* \"BallotV3.sol\":709:809  for(uint prop = 0; prop < proposalsNum; prop ++){... */\ntag_6:\n    /* \"BallotV3.sol\":735:747  proposalsNum */\n  dup2\n    /* \"BallotV3.sol\":728:732  prop */\n  dup2\n    /* \"BallotV3.sol\":728:747  prop < proposalsNum */\n  lt\n    /* \"BallotV3.sol\":709:809  for(uint prop = 0; prop < proposalsNum; prop ++){... */\n  iszero\n  tag_7\n  jumpi\n    /* \"BallotV3.sol\":771:780  proposals */\n  0x02\n    /* \"BallotV3.sol\":786:797  Proposal(0) */\n  mload(0x40)\n  dup1\n  0x20\n  add\n  0x40\n  mstore\n  dup1\n    /* \"BallotV3.sol\":795:796  0 */\n  0x00\n    /* \"BallotV3.sol\":786:797  Proposal(0) */\n  dup2\n  mstore\n  pop\n    /* \"BallotV3.sol\":771:798  proposals.push(Proposal(0)) */\n  swap1\n  dup1\n  0x01\n  dup2\n  sload\n  add\n  dup1\n  dup3\n  sstore\n  dup1\n  swap2\n  pop\n  pop\n  0x01\n  swap1\n  sub\n  swap1\n  0x00\n  mstore\n  keccak256(0x00, 0x20)\n  add\n  0x00\n  swap1\n  swap2\n  swap1\n  swap2\n  swap1\n  swap2\n  pop\n  0x00\n  dup3\n  add\n  mload\n  dup2\n  0x00\n  add\n  sstore\n  pop\n  pop\n    /* \"BallotV3.sol\":749:756  prop ++ */\n  dup1\n  dup1\n  0x01\n  add\n  swap2\n  pop\n  pop\n    /* \"BallotV3.sol\":709:809  for(uint prop = 0; prop < proposalsNum; prop ++){... */\n  jump(tag_6)\ntag_7:\n  pop\n    /* \"BallotV3.sol\":587:815  constructor(uint proposalsNum) public {... */\n  pop\n    /* \"BallotV3.sol\":65:2727  contract BallotV3 {... */\n  dataSize(sub_0)\n  dup1\n  dataOffset(sub_0)\n  0x00\n  codecopy\n  0x00\n  return\nstop\n\nsub_0: assembly {\n        /* \"BallotV3.sol\":65:2727  contract BallotV3 {... */\n      mstore(0x40, 0x80)\n      callvalue\n      dup1\n      iszero\n      tag_1\n      jumpi\n      0x00\n      dup1\n      revert\n    tag_1:\n      pop\n      jumpi(tag_2, lt(calldatasize, 0x04))\n      shr(0xe0, calldataload(0x00))\n      dup1\n      0x811061f3\n      gt\n      tag_11\n      jumpi\n      dup1\n      0x811061f3\n      eq\n      tag_7\n      jumpi\n      dup1\n      0xa3ec138d\n      eq\n      tag_8\n      jumpi\n      dup1\n      0xc19d93fb\n      eq\n      tag_9\n      jumpi\n      dup1\n      0xd627c132\n      eq\n      tag_10\n      jumpi\n      jump(tag_2)\n    tag_11:\n      dup1\n      0x0121b93f\n      eq\n      tag_3\n      jumpi\n      dup1\n      0x013cf08b\n      eq\n      tag_4\n      jumpi\n      dup1\n      0x2e4176cf\n      eq\n      tag_5\n      jumpi\n      dup1\n      0x4420e486\n      eq\n      tag_6\n      jumpi\n    tag_2:\n      0x00\n      dup1\n      revert\n        /* \"BallotV3.sol\":1960:2302  function vote(uint toPropost)public validPhase(Phase.Vote){... */\n    tag_3:\n      tag_12\n      0x04\n      dup1\n      calldatasize\n      sub\n      0x20\n      dup2\n      lt\n      iszero\n      tag_13\n      jumpi\n      0x00\n      dup1\n      revert\n    tag_13:\n      dup2\n      add\n      swap1\n      dup1\n      dup1\n      calldataload\n      swap1\n      0x20\n      add\n      swap1\n      swap3\n      swap2\n      swap1\n      pop\n      pop\n      pop\n      tag_14\n      jump\t// in\n    tag_12:\n      stop\n        /* \"BallotV3.sol\":370:397  Proposal[] public proposals */\n    tag_4:\n      tag_15\n      0x04\n      dup1\n      calldatasize\n      sub\n      0x20\n      dup2\n      lt\n      iszero\n      tag_16\n      jumpi\n      0x00\n      dup1\n      revert\n    tag_16:\n      dup2\n      add\n      swap1\n      dup1\n      dup1\n      calldataload\n      swap1\n      0x20\n      add\n      swap1\n      swap3\n      swap2\n      swap1\n      pop\n      pop\n      pop\n      tag_17\n      jump\t// in\n    tag_15:\n      mload(0x40)\n      dup1\n      dup3\n      dup2\n      mstore\n      0x20\n      add\n      swap2\n      pop\n      pop\n      mload(0x40)\n      dup1\n      swap2\n      sub\n      swap1\n      return\n        /* \"BallotV3.sol\":89:115  address public chairperson */\n    tag_5:\n      tag_18\n      tag_19\n      jump\t// in\n    tag_18:\n      mload(0x40)\n      dup1\n      dup3\n      0xffffffffffffffffffffffffffffffffffffffff\n      and\n      dup2\n      mstore\n      0x20\n      add\n      swap2\n      pop\n      pop\n      mload(0x40)\n      dup1\n      swap2\n      sub\n      swap1\n      return\n        /* \"BallotV3.sol\":1562:1807  function register(address voter)public validPhase(Phase.Regs){... */\n    tag_6:\n      tag_20\n      0x04\n      dup1\n      calldatasize\n      sub\n      0x20\n      dup2\n      lt\n      iszero\n      tag_21\n      jumpi\n      0x00\n      dup1\n      revert\n    tag_21:\n      dup2\n      add\n      swap1\n      dup1\n      dup1\n      calldataload\n      0xffffffffffffffffffffffffffffffffffffffff\n      and\n      swap1\n      0x20\n      add\n      swap1\n      swap3\n      swap2\n      swap1\n      pop\n      pop\n      pop\n      tag_22\n      jump\t// in\n    tag_20:\n      stop\n        /* \"BallotV3.sol\":2381:2725  function reqWinnProp()public validPhase(Phase.Done) view returns (uint winningProposal,uint count){... */\n    tag_7:\n      tag_23\n      tag_24\n      jump\t// in\n    tag_23:\n      mload(0x40)\n      dup1\n      dup4\n      dup2\n      mstore\n      0x20\n      add\n      dup3\n      dup2\n      mstore\n      0x20\n      add\n      swap3\n      pop\n      pop\n      pop\n      mload(0x40)\n      dup1\n      swap2\n      sub\n      swap1\n      return\n        /* \"BallotV3.sol\":240:281  mapping  (address => Voter) public voters */\n    tag_8:\n      tag_25\n      0x04\n      dup1\n      calldatasize\n      sub\n      0x20\n      dup2\n      lt\n      iszero\n      tag_26\n      jumpi\n      0x00\n      dup1\n      revert\n    tag_26:\n      dup2\n      add\n      swap1\n      dup1\n      dup1\n      calldataload\n      0xffffffffffffffffffffffffffffffffffffffff\n      and\n      swap1\n      0x20\n      add\n      swap1\n      swap3\n      swap2\n      swap1\n      pop\n      pop\n      pop\n      tag_27\n      jump\t// in\n    tag_25:\n      mload(0x40)\n      dup1\n      dup5\n      dup2\n      mstore\n      0x20\n      add\n      dup4\n      iszero\n      iszero\n      dup2\n      mstore\n      0x20\n      add\n      dup3\n      dup2\n      mstore\n      0x20\n      add\n      swap4\n      pop\n      pop\n      pop\n      pop\n      mload(0x40)\n      dup1\n      swap2\n      sub\n      swap1\n      return\n        /* \"BallotV3.sol\":460:491  Phase public state = Phase.Init */\n    tag_9:\n      tag_28\n      tag_29\n      jump\t// in\n    tag_28:\n      mload(0x40)\n      dup1\n      dup3\n      0x03\n      dup2\n      gt\n      iszero\n      tag_30\n      jumpi\n      invalid\n    tag_30:\n      dup2\n      mstore\n      0x20\n      add\n      swap2\n      pop\n      pop\n      mload(0x40)\n      dup1\n      swap2\n      sub\n      swap1\n      return\n        /* \"BallotV3.sol\":956:1334  function changeStates(Phase changestate)public{... */\n    tag_10:\n      tag_31\n      0x04\n      dup1\n      calldatasize\n      sub\n      0x20\n      dup2\n      lt\n      iszero\n      tag_32\n      jumpi\n      0x00\n      dup1\n      revert\n    tag_32:\n      dup2\n      add\n      swap1\n      dup1\n      dup1\n      calldataload\n      0xff\n      and\n      swap1\n      0x20\n      add\n      swap1\n      swap3\n      swap2\n      swap1\n      pop\n      pop\n      pop\n      tag_33\n      jump\t// in\n    tag_31:\n      stop\n        /* \"BallotV3.sol\":1960:2302  function vote(uint toPropost)public validPhase(Phase.Vote){... */\n    tag_14:\n        /* \"BallotV3.sol\":2007:2017  Phase.Vote */\n      0x02\n        /* \"BallotV3.sol\":1408:1416  reqPhase */\n      dup1\n        /* \"BallotV3.sol\":1399:1416  state == reqPhase */\n      0x03\n      dup2\n      gt\n      iszero\n      tag_35\n      jumpi\n      invalid\n    tag_35:\n        /* \"BallotV3.sol\":1399:1404  state */\n      0x03\n      0x00\n      swap1\n      sload\n      swap1\n      0x0100\n      exp\n      swap1\n      div\n      0xff\n      and\n        /* \"BallotV3.sol\":1399:1416  state == reqPhase */\n      0x03\n      dup2\n      gt\n      iszero\n      tag_36\n      jumpi\n      invalid\n    tag_36:\n      eq\n        /* \"BallotV3.sol\":1391:1438  require(state == reqPhase,\"投票阶段不对\") */\n      tag_37\n      jumpi\n      mload(0x40)\n      0x08c379a000000000000000000000000000000000000000000000000000000000\n      dup2\n      mstore\n      0x04\n      add\n      dup1\n      dup1\n      0x20\n      add\n      dup3\n      dup2\n      sub\n      dup3\n      mstore\n      0x12\n      dup2\n      mstore\n      0x20\n      add\n      dup1\n      0xe68a95e7a5a8e998b6e6aeb5e4b88de5afb90000000000000000000000000000\n      dup2\n      mstore\n      pop\n      0x20\n      add\n      swap2\n      pop\n      pop\n      mload(0x40)\n      dup1\n      swap2\n      sub\n      swap1\n      revert\n    tag_37:\n        /* \"BallotV3.sol\":2028:2047  Voter memory sender */\n      tag_39\n      tag_40\n      jump\t// in\n    tag_39:\n        /* \"BallotV3.sol\":2050:2056  voters */\n      0x01\n        /* \"BallotV3.sol\":2050:2068  voters[msg.sender] */\n      0x00\n        /* \"BallotV3.sol\":2057:2067  msg.sender */\n      caller\n        /* \"BallotV3.sol\":2050:2068  voters[msg.sender] */\n      0xffffffffffffffffffffffffffffffffffffffff\n      and\n      0xffffffffffffffffffffffffffffffffffffffff\n      and\n      dup2\n      mstore\n      0x20\n      add\n      swap1\n      dup2\n      mstore\n      0x20\n      add\n      0x00\n      keccak256\n        /* \"BallotV3.sol\":2028:2068  Voter memory sender = voters[msg.sender] */\n      mload(0x40)\n      dup1\n      0x60\n      add\n      0x40\n      mstore\n      swap1\n      dup2\n      0x00\n      dup3\n      add\n      sload\n      dup2\n      mstore\n      0x20\n      add\n      0x01\n      dup3\n      add\n      0x00\n      swap1\n      sload\n      swap1\n      0x0100\n      exp\n      swap1\n      div\n      0xff\n      and\n      iszero\n      iszero\n      iszero\n      iszero\n      dup2\n      mstore\n      0x20\n      add\n      0x02\n      dup3\n      add\n      sload\n      dup2\n      mstore\n      pop\n      pop\n      swap1\n      pop\n        /* \"BallotV3.sol\":2082:2088  sender */\n      dup1\n        /* \"BallotV3.sol\":2082:2094  sender.voted */\n      0x20\n      add\n      mload\n        /* \"BallotV3.sol\":2082:2124  sender.voted || toPropost>proposals.length */\n      dup1\n      tag_41\n      jumpi\n      pop\n        /* \"BallotV3.sol\":2108:2117  proposals */\n      0x02\n        /* \"BallotV3.sol\":2108:2124  proposals.length */\n      dup1\n      sload\n      swap1\n      pop\n        /* \"BallotV3.sol\":2098:2107  toPropost */\n      dup4\n        /* \"BallotV3.sol\":2098:2124  toPropost>proposals.length */\n      gt\n        /* \"BallotV3.sol\":2082:2124  sender.voted || toPropost>proposals.length */\n    tag_41:\n        /* \"BallotV3.sol\":2079:2147  if(sender.voted || toPropost>proposals.length)revert(\"投票失败\") */\n      iszero\n      tag_42\n      jumpi\n        /* \"BallotV3.sol\":2125:2147  revert(\"投票失败\") */\n      mload(0x40)\n      0x08c379a000000000000000000000000000000000000000000000000000000000\n      dup2\n      mstore\n      0x04\n      add\n      dup1\n      dup1\n      0x20\n      add\n      dup3\n      dup2\n      sub\n      dup3\n      mstore\n      0x0c\n      dup2\n      mstore\n      0x20\n      add\n      dup1\n      0xe68a95e7a5a8e5a4b1e8b4a50000000000000000000000000000000000000000\n      dup2\n      mstore\n      pop\n      0x20\n      add\n      swap2\n      pop\n      pop\n      mload(0x40)\n      dup1\n      swap2\n      sub\n      swap1\n      revert\n        /* \"BallotV3.sol\":2079:2147  if(sender.voted || toPropost>proposals.length)revert(\"投票失败\") */\n    tag_42:\n        /* \"BallotV3.sol\":2185:2189  true */\n      0x01\n        /* \"BallotV3.sol\":2158:2164  voters */\n      dup1\n        /* \"BallotV3.sol\":2158:2176  voters[msg.sender] */\n      0x00\n        /* \"BallotV3.sol\":2165:2175  msg.sender */\n      caller\n        /* \"BallotV3.sol\":2158:2176  voters[msg.sender] */\n      0xffffffffffffffffffffffffffffffffffffffff\n      and\n      0xffffffffffffffffffffffffffffffffffffffff\n      and\n      dup2\n      mstore\n      0x20\n      add\n      swap1\n      dup2\n      mstore\n      0x20\n      add\n      0x00\n      keccak256\n        /* \"BallotV3.sol\":2158:2182  voters[msg.sender].voted */\n      0x01\n      add\n      0x00\n        /* \"BallotV3.sol\":2158:2189  voters[msg.sender].voted = true */\n      0x0100\n      exp\n      dup2\n      sload\n      dup2\n      0xff\n      mul\n      not\n      and\n      swap1\n      dup4\n      iszero\n      iszero\n      mul\n      or\n      swap1\n      sstore\n      pop\n        /* \"BallotV3.sol\":2225:2234  toPropost */\n      dup3\n        /* \"BallotV3.sol\":2199:2205  voters */\n      0x01\n        /* \"BallotV3.sol\":2199:2217  voters[msg.sender] */\n      0x00\n        /* \"BallotV3.sol\":2206:2216  msg.sender */\n      caller\n        /* \"BallotV3.sol\":2199:2217  voters[msg.sender] */\n      0xffffffffffffffffffffffffffffffffffffffff\n      and\n      0xffffffffffffffffffffffffffffffffffffffff\n      and\n      dup2\n      mstore\n      0x20\n      add\n      swap1\n      dup2\n      mstore\n      0x20\n      add\n      0x00\n      keccak256\n        /* \"BallotV3.sol\":2199:2222  voters[msg.sender].vote */\n      0x02\n      add\n        /* \"BallotV3.sol\":2199:2234  voters[msg.sender].vote = toPropost */\n      dup2\n      swap1\n      sstore\n      pop\n        /* \"BallotV3.sol\":2279:2285  sender */\n      dup1\n        /* \"BallotV3.sol\":2279:2292  sender.weight */\n      0x00\n      add\n      mload\n        /* \"BallotV3.sol\":2245:2254  proposals */\n      0x02\n        /* \"BallotV3.sol\":2255:2264  toPropost */\n      dup5\n        /* \"BallotV3.sol\":2245:2265  proposals[toPropost] */\n      dup2\n      sload\n      dup2\n      lt\n      tag_43\n      jumpi\n      invalid\n    tag_43:\n      swap1\n      0x00\n      mstore\n      keccak256(0x00, 0x20)\n      add\n        /* \"BallotV3.sol\":2245:2275  proposals[toPropost].voteCount */\n      0x00\n      add\n      0x00\n        /* \"BallotV3.sol\":2245:2292  proposals[toPropost].voteCount += sender.weight */\n      dup3\n      dup3\n      sload\n      add\n      swap3\n      pop\n      pop\n      dup2\n      swap1\n      sstore\n      pop\n        /* \"BallotV3.sol\":1448:1449  _ */\n      pop\n        /* \"BallotV3.sol\":1960:2302  function vote(uint toPropost)public validPhase(Phase.Vote){... */\n      pop\n      pop\n      jump\t// out\n        /* \"BallotV3.sol\":370:397  Proposal[] public proposals */\n    tag_17:\n      0x02\n      dup2\n      dup2\n      sload\n      dup2\n      lt\n      tag_45\n      jumpi\n      invalid\n    tag_45:\n      swap1\n      0x00\n      mstore\n      keccak256(0x00, 0x20)\n      add\n      0x00\n      swap2\n      pop\n      swap1\n      pop\n      dup1\n      0x00\n      add\n      sload\n      swap1\n      pop\n      dup2\n      jump\t// out\n        /* \"BallotV3.sol\":89:115  address public chairperson */\n    tag_19:\n      0x00\n      dup1\n      sload\n      swap1\n      0x0100\n      exp\n      swap1\n      div\n      0xffffffffffffffffffffffffffffffffffffffff\n      and\n      dup2\n      jump\t// out\n        /* \"BallotV3.sol\":1562:1807  function register(address voter)public validPhase(Phase.Regs){... */\n    tag_22:\n        /* \"BallotV3.sol\":1612:1622  Phase.Regs */\n      0x01\n        /* \"BallotV3.sol\":1408:1416  reqPhase */\n      dup1\n        /* \"BallotV3.sol\":1399:1416  state == reqPhase */\n      0x03\n      dup2\n      gt\n      iszero\n      tag_48\n      jumpi\n      invalid\n    tag_48:\n        /* \"BallotV3.sol\":1399:1404  state */\n      0x03\n      0x00\n      swap1\n      sload\n      swap1\n      0x0100\n      exp\n      swap1\n      div\n      0xff\n      and\n        /* \"BallotV3.sol\":1399:1416  state == reqPhase */\n      0x03\n      dup2\n      gt\n      iszero\n      tag_49\n      jumpi\n      invalid\n    tag_49:\n      eq\n        /* \"BallotV3.sol\":1391:1438  require(state == reqPhase,\"投票阶段不对\") */\n      tag_50\n      jumpi\n      mload(0x40)\n      0x08c379a000000000000000000000000000000000000000000000000000000000\n      dup2\n      mstore\n      0x04\n      add\n      dup1\n      dup1\n      0x20\n      add\n      dup3\n      dup2\n      sub\n      dup3\n      mstore\n      0x12\n      dup2\n      mstore\n      0x20\n      add\n      dup1\n      0xe68a95e7a5a8e998b6e6aeb5e4b88de5afb90000000000000000000000000000\n      dup2\n      mstore\n      pop\n      0x20\n      add\n      swap2\n      pop\n      pop\n      mload(0x40)\n      dup1\n      swap2\n      sub\n      swap1\n      revert\n    tag_50:\n        /* \"BallotV3.sol\":1649:1659  msg.sender */\n      caller\n        /* \"BallotV3.sol\":1636:1659  chairperson!=msg.sender */\n      0xffffffffffffffffffffffffffffffffffffffff\n      and\n        /* \"BallotV3.sol\":1636:1647  chairperson */\n      0x00\n      dup1\n      sload\n      swap1\n      0x0100\n      exp\n      swap1\n      div\n      0xffffffffffffffffffffffffffffffffffffffff\n      and\n        /* \"BallotV3.sol\":1636:1659  chairperson!=msg.sender */\n      0xffffffffffffffffffffffffffffffffffffffff\n      and\n      eq\n      iszero\n        /* \"BallotV3.sol\":1636:1680  chairperson!=msg.sender||voters[voter].voted */\n      dup1\n      tag_52\n      jumpi\n      pop\n        /* \"BallotV3.sol\":1661:1667  voters */\n      0x01\n        /* \"BallotV3.sol\":1661:1674  voters[voter] */\n      0x00\n        /* \"BallotV3.sol\":1668:1673  voter */\n      dup4\n        /* \"BallotV3.sol\":1661:1674  voters[voter] */\n      0xffffffffffffffffffffffffffffffffffffffff\n      and\n      0xffffffffffffffffffffffffffffffffffffffff\n      and\n      dup2\n      mstore\n      0x20\n      add\n      swap1\n      dup2\n      mstore\n      0x20\n      add\n      0x00\n      keccak256\n        /* \"BallotV3.sol\":1661:1680  voters[voter].voted */\n      0x01\n      add\n      0x00\n      swap1\n      sload\n      swap1\n      0x0100\n      exp\n      swap1\n      div\n      0xff\n      and\n        /* \"BallotV3.sol\":1636:1680  chairperson!=msg.sender||voters[voter].voted */\n    tag_52:\n        /* \"BallotV3.sol\":1633:1704  if(chairperson!=msg.sender||voters[voter].voted) revert(\"注册失败\") */\n      iszero\n      tag_53\n      jumpi\n        /* \"BallotV3.sol\":1682:1704  revert(\"注册失败\") */\n      mload(0x40)\n      0x08c379a000000000000000000000000000000000000000000000000000000000\n      dup2\n      mstore\n      0x04\n      add\n      dup1\n      dup1\n      0x20\n      add\n      dup3\n      dup2\n      sub\n      dup3\n      mstore\n      0x0c\n      dup2\n      mstore\n      0x20\n      add\n      dup1\n      0xe6b3a8e5868ce5a4b1e8b4a50000000000000000000000000000000000000000\n      dup2\n      mstore\n      pop\n      0x20\n      add\n      swap2\n      pop\n      pop\n      mload(0x40)\n      dup1\n      swap2\n      sub\n      swap1\n      revert\n        /* \"BallotV3.sol\":1633:1704  if(chairperson!=msg.sender||voters[voter].voted) revert(\"注册失败\") */\n    tag_53:\n        /* \"BallotV3.sol\":1737:1738  1 */\n      0x01\n        /* \"BallotV3.sol\":1714:1720  voters */\n      dup1\n        /* \"BallotV3.sol\":1714:1727  voters[voter] */\n      0x00\n        /* \"BallotV3.sol\":1721:1726  voter */\n      dup5\n        /* \"BallotV3.sol\":1714:1727  voters[voter] */\n      0xffffffffffffffffffffffffffffffffffffffff\n      and\n      0xffffffffffffffffffffffffffffffffffffffff\n      and\n      dup2\n      mstore\n      0x20\n      add\n      swap1\n      dup2\n      mstore\n      0x20\n      add\n      0x00\n      keccak256\n        /* \"BallotV3.sol\":1714:1734  voters[voter].weight */\n      0x00\n      add\n        /* \"BallotV3.sol\":1714:1738  voters[voter].weight = 1 */\n      dup2\n      swap1\n      sstore\n      pop\n        /* \"BallotV3.sol\":1794:1799  false */\n      0x00\n        /* \"BallotV3.sol\":1772:1778  voters */\n      0x01\n        /* \"BallotV3.sol\":1772:1785  voters[voter] */\n      0x00\n        /* \"BallotV3.sol\":1779:1784  voter */\n      dup5\n        /* \"BallotV3.sol\":1772:1785  voters[voter] */\n      0xffffffffffffffffffffffffffffffffffffffff\n      and\n      0xffffffffffffffffffffffffffffffffffffffff\n      and\n      dup2\n      mstore\n      0x20\n      add\n      swap1\n      dup2\n      mstore\n      0x20\n      add\n      0x00\n      keccak256\n        /* \"BallotV3.sol\":1772:1791  voters[voter].voted */\n      0x01\n      add\n      0x00\n        /* \"BallotV3.sol\":1772:1799  voters[voter].voted = false */\n      0x0100\n      exp\n      dup2\n      sload\n      dup2\n      0xff\n      mul\n      not\n      and\n      swap1\n      dup4\n      iszero\n      iszero\n      mul\n      or\n      swap1\n      sstore\n      pop\n        /* \"BallotV3.sol\":1562:1807  function register(address voter)public validPhase(Phase.Regs){... */\n      pop\n      pop\n      jump\t// out\n        /* \"BallotV3.sol\":2381:2725  function reqWinnProp()public validPhase(Phase.Done) view returns (uint winningProposal,uint count){... */\n    tag_24:\n        /* \"BallotV3.sol\":2447:2467  uint winningProposal */\n      0x00\n        /* \"BallotV3.sol\":2468:2478  uint count */\n      dup1\n        /* \"BallotV3.sol\":2421:2431  Phase.Done */\n      0x03\n        /* \"BallotV3.sol\":1408:1416  reqPhase */\n      dup1\n        /* \"BallotV3.sol\":1399:1416  state == reqPhase */\n      0x03\n      dup2\n      gt\n      iszero\n      tag_55\n      jumpi\n      invalid\n    tag_55:\n        /* \"BallotV3.sol\":1399:1404  state */\n      0x03\n      0x00\n      swap1\n      sload\n      swap1\n      0x0100\n      exp\n      swap1\n      div\n      0xff\n      and\n        /* \"BallotV3.sol\":1399:1416  state == reqPhase */\n      0x03\n      dup2\n      gt\n      iszero\n      tag_56\n      jumpi\n      invalid\n    tag_56:\n      eq\n        /* \"BallotV3.sol\":1391:1438  require(state == reqPhase,\"投票阶段不对\") */\n      tag_57\n      jumpi\n      mload(0x40)\n      0x08c379a000000000000000000000000000000000000000000000000000000000\n      dup2\n      mstore\n      0x04\n      add\n      dup1\n      dup1\n      0x20\n      add\n      dup3\n      dup2\n      sub\n      dup3\n      mstore\n      0x12\n      dup2\n      mstore\n      0x20\n      add\n      dup1\n      0xe68a95e7a5a8e998b6e6aeb5e4b88de5afb90000000000000000000000000000\n      dup2\n      mstore\n      pop\n      0x20\n      add\n      swap2\n      pop\n      pop\n      mload(0x40)\n      dup1\n      swap2\n      sub\n      swap1\n      revert\n    tag_57:\n        /* \"BallotV3.sol\":2494:2504  uint posal */\n      0x00\n        /* \"BallotV3.sol\":2490:2719  for(uint posal = 0;posal<proposals.length;posal++){... */\n    tag_59:\n        /* \"BallotV3.sol\":2515:2524  proposals */\n      0x02\n        /* \"BallotV3.sol\":2515:2531  proposals.length */\n      dup1\n      sload\n      swap1\n      pop\n        /* \"BallotV3.sol\":2509:2514  posal */\n      dup2\n        /* \"BallotV3.sol\":2509:2531  posal<proposals.length */\n      lt\n        /* \"BallotV3.sol\":2490:2719  for(uint posal = 0;posal<proposals.length;posal++){... */\n      iszero\n      tag_60\n      jumpi\n        /* \"BallotV3.sol\":2584:2589  count */\n      dup3\n        /* \"BallotV3.sol\":2557:2566  proposals */\n      0x02\n        /* \"BallotV3.sol\":2567:2572  posal */\n      dup3\n        /* \"BallotV3.sol\":2557:2573  proposals[posal] */\n      dup2\n      sload\n      dup2\n      lt\n      tag_62\n      jumpi\n      invalid\n    tag_62:\n      swap1\n      0x00\n      mstore\n      keccak256(0x00, 0x20)\n      add\n        /* \"BallotV3.sol\":2557:2583  proposals[posal].voteCount */\n      0x00\n      add\n      sload\n        /* \"BallotV3.sol\":2557:2589  proposals[posal].voteCount>count */\n      gt\n        /* \"BallotV3.sol\":2554:2697  if(proposals[posal].voteCount>count){... */\n      iszero\n      tag_64\n      jumpi\n        /* \"BallotV3.sol\":2625:2630  posal */\n      dup1\n        /* \"BallotV3.sol\":2608:2630  winningProposal =posal */\n      swap4\n      pop\n        /* \"BallotV3.sol\":2656:2665  proposals */\n      0x02\n        /* \"BallotV3.sol\":2666:2671  posal */\n      dup2\n        /* \"BallotV3.sol\":2656:2672  proposals[posal] */\n      dup2\n      sload\n      dup2\n      lt\n      tag_65\n      jumpi\n      invalid\n    tag_65:\n      swap1\n      0x00\n      mstore\n      keccak256(0x00, 0x20)\n      add\n        /* \"BallotV3.sol\":2656:2682  proposals[posal].voteCount */\n      0x00\n      add\n      sload\n        /* \"BallotV3.sol\":2648:2682  count = proposals[posal].voteCount */\n      swap3\n      pop\n        /* \"BallotV3.sol\":2554:2697  if(proposals[posal].voteCount>count){... */\n    tag_64:\n        /* \"BallotV3.sol\":2532:2539  posal++ */\n      dup1\n      dup1\n      0x01\n      add\n      swap2\n      pop\n      pop\n        /* \"BallotV3.sol\":2490:2719  for(uint posal = 0;posal<proposals.length;posal++){... */\n      jump(tag_59)\n    tag_60:\n      pop\n        /* \"BallotV3.sol\":2381:2725  function reqWinnProp()public validPhase(Phase.Done) view returns (uint winningProposal,uint count){... */\n      pop\n      swap1\n      swap2\n      jump\t// out\n        /* \"BallotV3.sol\":240:281  mapping  (address => Voter) public voters */\n    tag_27:\n      mstore(0x20, 0x01)\n      dup1\n      0x00\n      mstore\n      keccak256(0x00, 0x40)\n      0x00\n      swap2\n      pop\n      swap1\n      pop\n      dup1\n      0x00\n      add\n      sload\n      swap1\n      dup1\n      0x01\n      add\n      0x00\n      swap1\n      sload\n      swap1\n      0x0100\n      exp\n      swap1\n      div\n      0xff\n      and\n      swap1\n      dup1\n      0x02\n      add\n      sload\n      swap1\n      pop\n      dup4\n      jump\t// out\n        /* \"BallotV3.sol\":460:491  Phase public state = Phase.Init */\n    tag_29:\n      0x03\n      0x00\n      swap1\n      sload\n      swap1\n      0x0100\n      exp\n      swap1\n      div\n      0xff\n      and\n      dup2\n      jump\t// out\n        /* \"BallotV3.sol\":956:1334  function changeStates(Phase changestate)public{... */\n    tag_33:\n        /* \"BallotV3.sol\":1030:1041  chairperson */\n      0x00\n      dup1\n      sload\n      swap1\n      0x0100\n      exp\n      swap1\n      div\n      0xffffffffffffffffffffffffffffffffffffffff\n      and\n        /* \"BallotV3.sol\":1016:1041  msg.sender != chairperson */\n      0xffffffffffffffffffffffffffffffffffffffff\n      and\n        /* \"BallotV3.sol\":1016:1026  msg.sender */\n      caller\n        /* \"BallotV3.sol\":1016:1041  msg.sender != chairperson */\n      0xffffffffffffffffffffffffffffffffffffffff\n      and\n      eq\n        /* \"BallotV3.sol\":1012:1116  if (msg.sender != chairperson){... */\n      tag_68\n      jumpi\n        /* \"BallotV3.sol\":1056:1105  revert(\"只有主席才可以改变投票状态\") */\n      mload(0x40)\n      0x08c379a000000000000000000000000000000000000000000000000000000000\n      dup2\n      mstore\n      0x04\n      add\n      dup1\n      dup1\n      0x20\n      add\n      dup3\n      dup2\n      sub\n      dup3\n      mstore\n      0x27\n      dup2\n      mstore\n      0x20\n      add\n      dup1\n      data_eca92d82edd4310a0577a79b42a2e12ae4ad5fae37b111b102c106d36c6f4a76\n      0x27\n      swap2\n      codecopy\n      0x40\n      add\n      swap2\n      pop\n      pop\n      mload(0x40)\n      dup1\n      swap2\n      sub\n      swap1\n      revert\n        /* \"BallotV3.sol\":1012:1116  if (msg.sender != chairperson){... */\n    tag_68:\n        /* \"BallotV3.sol\":1145:1150  state */\n      0x03\n      0x00\n      swap1\n      sload\n      swap1\n      0x0100\n      exp\n      swap1\n      div\n      0xff\n      and\n        /* \"BallotV3.sol\":1130:1150  changestate <= state */\n      0x03\n      dup2\n      gt\n      iszero\n      tag_69\n      jumpi\n      invalid\n    tag_69:\n        /* \"BallotV3.sol\":1130:1141  changestate */\n      dup2\n        /* \"BallotV3.sol\":1130:1150  changestate <= state */\n      0x03\n      dup2\n      gt\n      iszero\n      tag_70\n      jumpi\n      invalid\n    tag_70:\n      gt\n        /* \"BallotV3.sol\":1125:1216  if(  changestate <= state){... */\n      tag_71\n      jumpi\n        /* \"BallotV3.sol\":1168:1205  revert(\"只能设置下一个状态\") */\n      mload(0x40)\n      0x08c379a000000000000000000000000000000000000000000000000000000000\n      dup2\n      mstore\n      0x04\n      add\n      dup1\n      dup1\n      0x20\n      add\n      dup3\n      dup2\n      sub\n      dup3\n      mstore\n      0x1b\n      dup2\n      mstore\n      0x20\n      add\n      dup1\n      0xe58faae883bde8aebee7bdaee4b88be4b880e4b8aae78ab6e680810000000000\n      dup2\n      mstore\n      pop\n      0x20\n      add\n      swap2\n      pop\n      pop\n      mload(0x40)\n      dup1\n      swap2\n      sub\n      swap1\n      revert\n        /* \"BallotV3.sol\":1125:1216  if(  changestate <= state){... */\n    tag_71:\n        /* \"BallotV3.sol\":1237:1247  Phase.Done */\n      0x03\n        /* \"BallotV3.sol\":1228:1247  state == Phase.Done */\n      dup1\n      dup2\n      gt\n      iszero\n      tag_72\n      jumpi\n      invalid\n    tag_72:\n        /* \"BallotV3.sol\":1228:1233  state */\n      0x03\n      0x00\n      swap1\n      sload\n      swap1\n      0x0100\n      exp\n      swap1\n      div\n      0xff\n      and\n        /* \"BallotV3.sol\":1228:1247  state == Phase.Done */\n      0x03\n      dup2\n      gt\n      iszero\n      tag_73\n      jumpi\n      invalid\n    tag_73:\n      eq\n        /* \"BallotV3.sol\":1225:1298  if(state == Phase.Done){... */\n      iszero\n      tag_74\n      jumpi\n        /* \"BallotV3.sol\":1262:1287  revert(\"投票已结束\") */\n      mload(0x40)\n      0x08c379a000000000000000000000000000000000000000000000000000000000\n      dup2\n      mstore\n      0x04\n      add\n      dup1\n      dup1\n      0x20\n      add\n      dup3\n      dup2\n      sub\n      dup3\n      mstore\n      0x0f\n      dup2\n      mstore\n      0x20\n      add\n      dup1\n      0xe68a95e7a5a8e5b7b2e7bb93e69d9f0000000000000000000000000000000000\n      dup2\n      mstore\n      pop\n      0x20\n      add\n      swap2\n      pop\n      pop\n      mload(0x40)\n      dup1\n      swap2\n      sub\n      swap1\n      revert\n        /* \"BallotV3.sol\":1225:1298  if(state == Phase.Done){... */\n    tag_74:\n        /* \"BallotV3.sol\":1316:1327  changestate */\n      dup1\n        /* \"BallotV3.sol\":1308:1313  state */\n      0x03\n      0x00\n        /* \"BallotV3.sol\":1308:1327  state = changestate */\n      0x0100\n      exp\n      dup2\n      sload\n      dup2\n      0xff\n      mul\n      not\n      and\n      swap1\n      dup4\n      0x03\n      dup2\n      gt\n      iszero\n      tag_75\n      jumpi\n      invalid\n    tag_75:\n      mul\n      or\n      swap1\n      sstore\n      pop\n        /* \"BallotV3.sol\":956:1334  function changeStates(Phase changestate)public{... */\n      pop\n      jump\t// out\n    tag_40:\n      mload(0x40)\n      dup1\n      0x60\n      add\n      0x40\n      mstore\n      dup1\n      0x00\n      dup2\n      mstore\n      0x20\n      add\n      iszero(iszero(0x00))\n      dup2\n      mstore\n      0x20\n      add\n      0x00\n      dup2\n      mstore\n      pop\n      swap1\n      jump\t// out\n    stop\n    data_eca92d82edd4310a0577a79b42a2e12ae4ad5fae37b111b102c106d36c6f4a76 e58faae69c89e4b8bbe5b8ade6898de58fafe4bba5e694b9e58f98e68a95e7a5a8e78ab6e68081\n\n    auxdata: 0xa2646970667358221220beb7f43324ba5af2baf6bdde03c2e081be9977c93e9e96896e7fc7e9fda136a064736f6c634300060c0033\n}\n",
				"bytecode": {
					"linkReferences": {},
					"object": "60806040526000600360006101000a81548160ff0219169083600381111561002357fe5b021790555034801561003457600080fd5b50604051610cc6380380610cc68339818101604052602081101561005757600080fd5b8101908080519060200190929190505050336000806101000a81548173ffffffffffffffffffffffffffffffffffffffff021916908373ffffffffffffffffffffffffffffffffffffffff1602179055506002600160008060009054906101000a900473ffffffffffffffffffffffffffffffffffffffff1673ffffffffffffffffffffffffffffffffffffffff1673ffffffffffffffffffffffffffffffffffffffff1681526020019081526020016000206000018190555060005b8181101561016c57600260405180602001604052806000815250908060018154018082558091505060019003906000526020600020016000909190919091506000820151816000015550508080600101915050610114565b5050610b498061017d6000396000f3fe608060405234801561001057600080fd5b50600436106100885760003560e01c8063811061f31161005b578063811061f314610175578063a3ec138d1461019a578063c19d93fb14610202578063d627c1321461022b57610088565b80630121b93f1461008d578063013cf08b146100bb5780632e4176cf146100fd5780634420e48614610131575b600080fd5b6100b9600480360360208110156100a357600080fd5b810190808035906020019092919050505061025c565b005b6100e7600480360360208110156100d157600080fd5b81019080803590602001909291905050506104d4565b6040518082815260200191505060405180910390f35b6101056104fb565b604051808273ffffffffffffffffffffffffffffffffffffffff16815260200191505060405180910390f35b6101736004803603602081101561014757600080fd5b81019080803573ffffffffffffffffffffffffffffffffffffffff16906020019092919050505061051f565b005b61017d61077b565b604051808381526020018281526020019250505060405180910390f35b6101dc600480360360208110156101b057600080fd5b81019080803573ffffffffffffffffffffffffffffffffffffffff169060200190929190505050610880565b604051808481526020018315158152602001828152602001935050505060405180910390f35b61020a6108b7565b6040518082600381111561021a57fe5b815260200191505060405180910390f35b61025a6004803603602081101561024157600080fd5b81019080803560ff1690602001909291905050506108ca565b005b600280600381111561026a57fe5b600360009054906101000a900460ff16600381111561028557fe5b146102f8576040517f08c379a00000000000000000000000000000000000000000000000000000000081526004018080602001828103825260128152602001807fe68a95e7a5a8e998b6e6aeb5e4b88de5afb9000000000000000000000000000081525060200191505060405180910390fd5b610300610ac9565b600160003373ffffffffffffffffffffffffffffffffffffffff1673ffffffffffffffffffffffffffffffffffffffff168152602001908152602001600020604051806060016040529081600082015481526020016001820160009054906101000a900460ff16151515158152602001600282015481525050905080602001518061038f575060028054905083115b15610402576040517f08c379a000000000000000000000000000000000000000000000000000000000815260040180806020018281038252600c8152602001807fe68a95e7a5a8e5a4b1e8b4a5000000000000000000000000000000000000000081525060200191505060405180910390fd5b60018060003373ffffffffffffffffffffffffffffffffffffffff1673ffffffffffffffffffffffffffffffffffffffff16815260200190815260200160002060010160006101000a81548160ff02191690831515021790555082600160003373ffffffffffffffffffffffffffffffffffffffff1673ffffffffffffffffffffffffffffffffffffffff168152602001908152602001600020600201819055508060000151600284815481106104b557fe5b9060005260206000200160000160008282540192505081905550505050565b600281815481106104e157fe5b906000526020600020016000915090508060000154905081565b60008054906101000a900473ffffffffffffffffffffffffffffffffffffffff1681565b600180600381111561052d57fe5b600360009054906101000a900460ff16600381111561054857fe5b146105bb576040517f08c379a00000000000000000000000000000000000000000000000000000000081526004018080602001828103825260128152602001807fe68a95e7a5a8e998b6e6aeb5e4b88de5afb9000000000000000000000000000081525060200191505060405180910390fd5b3373ffffffffffffffffffffffffffffffffffffffff1660008054906101000a900473ffffffffffffffffffffffffffffffffffffffff1673ffffffffffffffffffffffffffffffffffffffff161415806106625750600160008373ffffffffffffffffffffffffffffffffffffffff1673ffffffffffffffffffffffffffffffffffffffff16815260200190815260200160002060010160009054906101000a900460ff165b156106d5576040517f08c379a000000000000000000000000000000000000000000000000000000000815260040180806020018281038252600c8152602001807fe6b3a8e5868ce5a4b1e8b4a5000000000000000000000000000000000000000081525060200191505060405180910390fd5b60018060008473ffffffffffffffffffffffffffffffffffffffff1673ffffffffffffffffffffffffffffffffffffffff168152602001908152602001600020600001819055506000600160008473ffffffffffffffffffffffffffffffffffffffff1673ffffffffffffffffffffffffffffffffffffffff16815260200190815260200160002060010160006101000a81548160ff0219169083151502179055505050565b600080600380600381111561078c57fe5b600360009054906101000a900460ff1660038111156107a757fe5b1461081a576040517f08c379a00000000000000000000000000000000000000000000000000000000081526004018080602001828103825260128152602001807fe68a95e7a5a8e998b6e6aeb5e4b88de5afb9000000000000000000000000000081525060200191505060405180910390fd5b60005b60028054905081101561087a57826002828154811061083857fe5b9060005260206000200160000154111561086d578093506002818154811061085c57fe5b906000526020600020016000015492505b808060010191505061081d565b50509091565b60016020528060005260406000206000915090508060000154908060010160009054906101000a900460ff16908060020154905083565b600360009054906101000a900460ff1681565b60008054906101000a900473ffffffffffffffffffffffffffffffffffffffff1673ffffffffffffffffffffffffffffffffffffffff163373ffffffffffffffffffffffffffffffffffffffff161461096e576040517f08c379a0000000000000000000000000000000000000000000000000000000008152600401808060200182810382526027815260200180610aed6027913960400191505060405180910390fd5b600360009054906101000a900460ff16600381111561098957fe5b81600381111561099557fe5b11610a08576040517f08c379a000000000000000000000000000000000000000000000000000000000815260040180806020018281038252601b8152602001807fe58faae883bde8aebee7bdaee4b88be4b880e4b8aae78ab6e68081000000000081525060200191505060405180910390fd5b600380811115610a1457fe5b600360009054906101000a900460ff166003811115610a2f57fe5b1415610aa3576040517f08c379a000000000000000000000000000000000000000000000000000000000815260040180806020018281038252600f8152602001807fe68a95e7a5a8e5b7b2e7bb93e69d9f000000000000000000000000000000000081525060200191505060405180910390fd5b80600360006101000a81548160ff02191690836003811115610ac157fe5b021790555050565b60405180606001604052806000815260200160001515815260200160008152509056fee58faae69c89e4b8bbe5b8ade6898de58fafe4bba5e694b9e58f98e68a95e7a5a8e78ab6e68081a2646970667358221220beb7f43324ba5af2baf6bdde03c2e081be9977c93e9e96896e7fc7e9fda136a064736f6c634300060c0033",
					"opcodes": "PUSH1 0x80 PUSH1 0x40 MSTORE PUSH1 0x0 PUSH1 0x3 PUSH1 0x0 PUSH2 0x100 EXP DUP2 SLOAD DUP2 PUSH1 0xFF MUL NOT AND SWAP1 DUP4 PUSH1 0x3 DUP2 GT ISZERO PUSH2 0x23 JUMPI INVALID JUMPDEST MUL OR SWAP1 SSTORE POP CALLVALUE DUP1 ISZERO PUSH2 0x34 JUMPI PUSH1 0x0 DUP1 REVERT JUMPDEST POP PUSH1 0x40 MLOAD PUSH2 0xCC6 CODESIZE SUB DUP1 PUSH2 0xCC6 DUP4 CODECOPY DUP2 DUP2 ADD PUSH1 0x40 MSTORE PUSH1 0x20 DUP2 LT ISZERO PUSH2 0x57 JUMPI PUSH1 0x0 DUP1 REVERT JUMPDEST DUP2 ADD SWAP1 DUP1 DUP1 MLOAD SWAP1 PUSH1 0x20 ADD SWAP1 SWAP3 SWAP2 SWAP1 POP POP POP CALLER PUSH1 0x0 DUP1 PUSH2 0x100 EXP DUP2 SLOAD DUP2 PUSH20 0xFFFFFFFFFFFFFFFFFFFFFFFFFFFFFFFFFFFFFFFF MUL NOT AND SWAP1 DUP4 PUSH20 0xFFFFFFFFFFFFFFFFFFFFFFFFFFFFFFFFFFFFFFFF AND MUL OR SWAP1 SSTORE POP PUSH1 0x2 PUSH1 0x1 PUSH1 0x0 DUP1 PUSH1 0x0 SWAP1 SLOAD SWAP1 PUSH2 0x100 EXP SWAP1 DIV PUSH20 0xFFFFFFFFFFFFFFFFFFFFFFFFFFFFFFFFFFFFFFFF AND PUSH20 0xFFFFFFFFFFFFFFFFFFFFFFFFFFFFFFFFFFFFFFFF AND PUSH20 0xFFFFFFFFFFFFFFFFFFFFFFFFFFFFFFFFFFFFFFFF AND DUP2 MSTORE PUSH1 0x20 ADD SWAP1 DUP2 MSTORE PUSH1 0x20 ADD PUSH1 0x0 KECCAK256 PUSH1 0x0 ADD DUP2 SWAP1 SSTORE POP PUSH1 0x0 JUMPDEST DUP2 DUP2 LT ISZERO PUSH2 0x16C JUMPI PUSH1 0x2 PUSH1 0x40 MLOAD DUP1 PUSH1 0x20 ADD PUSH1 0x40 MSTORE DUP1 PUSH1 0x0 DUP2 MSTORE POP SWAP1 DUP1 PUSH1 0x1 DUP2 SLOAD ADD DUP1 DUP3 SSTORE DUP1 SWAP2 POP POP PUSH1 0x1 SWAP1 SUB SWAP1 PUSH1 0x0 MSTORE PUSH1 0x20 PUSH1 0x0 KECCAK256 ADD PUSH1 0x0 SWAP1 SWAP2 SWAP1 SWAP2 SWAP1 SWAP2 POP PUSH1 0x0 DUP3 ADD MLOAD DUP2 PUSH1 0x0 ADD SSTORE POP POP DUP1 DUP1 PUSH1 0x1 ADD SWAP2 POP POP PUSH2 0x114 JUMP JUMPDEST POP POP PUSH2 0xB49 DUP1 PUSH2 0x17D PUSH1 0x0 CODECOPY PUSH1 0x0 RETURN INVALID PUSH1 0x80 PUSH1 0x40 MSTORE CALLVALUE DUP1 ISZERO PUSH2 0x10 JUMPI PUSH1 0x0 DUP1 REVERT JUMPDEST POP PUSH1 0x4 CALLDATASIZE LT PUSH2 0x88 JUMPI PUSH1 0x0 CALLDATALOAD PUSH1 0xE0 SHR DUP1 PUSH4 0x811061F3 GT PUSH2 0x5B JUMPI DUP1 PUSH4 0x811061F3 EQ PUSH2 0x175 JUMPI DUP1 PUSH4 0xA3EC138D EQ PUSH2 0x19A JUMPI DUP1 PUSH4 0xC19D93FB EQ PUSH2 0x202 JUMPI DUP1 PUSH4 0xD627C132 EQ PUSH2 0x22B JUMPI PUSH2 0x88 JUMP JUMPDEST DUP1 PUSH4 0x121B93F EQ PUSH2 0x8D JUMPI DUP1 PUSH4 0x13CF08B EQ PUSH2 0xBB JUMPI DUP1 PUSH4 0x2E4176CF EQ PUSH2 0xFD JUMPI DUP1 PUSH4 0x4420E486 EQ PUSH2 0x131 JUMPI JUMPDEST PUSH1 0x0 DUP1 REVERT JUMPDEST PUSH2 0xB9 PUSH1 0x4 DUP1 CALLDATASIZE SUB PUSH1 0x20 DUP2 LT ISZERO PUSH2 0xA3 JUMPI PUSH1 0x0 DUP1 REVERT JUMPDEST DUP2 ADD SWAP1 DUP1 DUP1 CALLDATALOAD SWAP1 PUSH1 0x20 ADD SWAP1 SWAP3 SWAP2 SWAP1 POP POP POP PUSH2 0x25C JUMP JUMPDEST STOP JUMPDEST PUSH2 0xE7 PUSH1 0x4 DUP1 CALLDATASIZE SUB PUSH1 0x20 DUP2 LT ISZERO PUSH2 0xD1 JUMPI PUSH1 0x0 DUP1 REVERT JUMPDEST DUP2 ADD SWAP1 DUP1 DUP1 CALLDATALOAD SWAP1 PUSH1 0x20 ADD SWAP1 SWAP3 SWAP2 SWAP1 POP POP POP PUSH2 0x4D4 JUMP JUMPDEST PUSH1 0x40 MLOAD DUP1 DUP3 DUP2 MSTORE PUSH1 0x20 ADD SWAP2 POP POP PUSH1 0x40 MLOAD DUP1 SWAP2 SUB SWAP1 RETURN JUMPDEST PUSH2 0x105 PUSH2 0x4FB JUMP JUMPDEST PUSH1 0x40 MLOAD DUP1 DUP3 PUSH20 0xFFFFFFFFFFFFFFFFFFFFFFFFFFFFFFFFFFFFFFFF AND DUP2 MSTORE PUSH1 0x20 ADD SWAP2 POP POP PUSH1 0x40 MLOAD DUP1 SWAP2 SUB SWAP1 RETURN JUMPDEST PUSH2 0x173 PUSH1 0x4 DUP1 CALLDATASIZE SUB PUSH1 0x20 DUP2 LT ISZERO PUSH2 0x147 JUMPI PUSH1 0x0 DUP1 REVERT JUMPDEST DUP2 ADD SWAP1 DUP1 DUP1 CALLDATALOAD PUSH20 0xFFFFFFFFFFFFFFFFFFFFFFFFFFFFFFFFFFFFFFFF AND SWAP1 PUSH1 0x20 ADD SWAP1 SWAP3 SWAP2 SWAP1 POP POP POP PUSH2 0x51F JUMP JUMPDEST STOP JUMPDEST PUSH2 0x17D PUSH2 0x77B JUMP JUMPDEST PUSH1 0x40 MLOAD DUP1 DUP4 DUP2 MSTORE PUSH1 0x20 ADD DUP3 DUP2 MSTORE PUSH1 0x20 ADD SWAP3 POP POP POP PUSH1 0x40 MLOAD DUP1 SWAP2 SUB SWAP1 RETURN JUMPDEST PUSH2 0x1DC PUSH1 0x4 DUP1 CALLDATASIZE SUB PUSH1 0x20 DUP2 LT ISZERO PUSH2 0x1B0 JUMPI PUSH1 0x0 DUP1 REVERT JUMPDEST DUP2 ADD SWAP1 DUP1 DUP1 CALLDATALOAD PUSH20 0xFFFFFFFFFFFFFFFFFFFFFFFFFFFFFFFFFFFFFFFF AND SWAP1 PUSH1 0x20 ADD SWAP1 SWAP3 SWAP2 SWAP1 POP POP POP PUSH2 0x880 JUMP JUMPDEST PUSH1 0x40 MLOAD DUP1 DUP5 DUP2 MSTORE PUSH1 0x20 ADD DUP4 ISZERO ISZERO DUP2 MSTORE PUSH1 0x20 ADD DUP3 DUP2 MSTORE PUSH1 0x20 ADD SWAP4 POP POP POP POP PUSH1 0x40 MLOAD DUP1 SWAP2 SUB SWAP1 RETURN JUMPDEST PUSH2 0x20A PUSH2 0x8B7 JUMP JUMPDEST PUSH1 0x40 MLOAD DUP1 DUP3 PUSH1 0x3 DUP2 GT ISZERO PUSH2 0x21A JUMPI INVALID JUMPDEST DUP2 MSTORE PUSH1 0x20 ADD SWAP2 POP POP PUSH1 0x40 MLOAD DUP1 SWAP2 SUB SWAP1 RETURN JUMPDEST PUSH2 0x25A PUSH1 0x4 DUP1 CALLDATASIZE SUB PUSH1 0x20 DUP2 LT ISZERO PUSH2 0x241 JUMPI PUSH1 0x0 DUP1 REVERT JUMPDEST DUP2 ADD SWAP1 DUP1 DUP1 CALLDATALOAD PUSH1 0xFF AND SWAP1 PUSH1 0x20 ADD SWAP1 SWAP3 SWAP2 SWAP1 POP POP POP PUSH2 0x8CA JUMP JUMPDEST STOP JUMPDEST PUSH1 0x2 DUP1 PUSH1 0x3 DUP2 GT ISZERO PUSH2 0x26A JUMPI INVALID JUMPDEST PUSH1 0x3 PUSH1 0x0 SWAP1 SLOAD SWAP1 PUSH2 0x100 EXP SWAP1 DIV PUSH1 0xFF AND PUSH1 0x3 DUP2 GT ISZERO PUSH2 0x285 JUMPI INVALID JUMPDEST EQ PUSH2 0x2F8 JUMPI PUSH1 0x40 MLOAD PUSH32 0x8C379A000000000000000000000000000000000000000000000000000000000 DUP2 MSTORE PUSH1 0x4 ADD DUP1 DUP1 PUSH1 0x20 ADD DUP3 DUP2 SUB DUP3 MSTORE PUSH1 0x12 DUP2 MSTORE PUSH1 0x20 ADD DUP1 PUSH32 0xE68A95E7A5A8E998B6E6AEB5E4B88DE5AFB90000000000000000000000000000 DUP2 MSTORE POP PUSH1 0x20 ADD SWAP2 POP POP PUSH1 0x40 MLOAD DUP1 SWAP2 SUB SWAP1 REVERT JUMPDEST PUSH2 0x300 PUSH2 0xAC9 JUMP JUMPDEST PUSH1 0x1 PUSH1 0x0 CALLER PUSH20 0xFFFFFFFFFFFFFFFFFFFFFFFFFFFFFFFFFFFFFFFF AND PUSH20 0xFFFFFFFFFFFFFFFFFFFFFFFFFFFFFFFFFFFFFFFF AND DUP2 MSTORE PUSH1 0x20 ADD SWAP1 DUP2 MSTORE PUSH1 0x20 ADD PUSH1 0x0 KECCAK256 PUSH1 0x40 MLOAD DUP1 PUSH1 0x60 ADD PUSH1 0x40 MSTORE SWAP1 DUP2 PUSH1 0x0 DUP3 ADD SLOAD DUP2 MSTORE PUSH1 0x20 ADD PUSH1 0x1 DUP3 ADD PUSH1 0x0 SWAP1 SLOAD SWAP1 PUSH2 0x100 EXP SWAP1 DIV PUSH1 0xFF AND ISZERO ISZERO ISZERO ISZERO DUP2 MSTORE PUSH1 0x20 ADD PUSH1 0x2 DUP3 ADD SLOAD DUP2 MSTORE POP POP SWAP1 POP DUP1 PUSH1 0x20 ADD MLOAD DUP1 PUSH2 0x38F JUMPI POP PUSH1 0x2 DUP1 SLOAD SWAP1 POP DUP4 GT JUMPDEST ISZERO PUSH2 0x402 JUMPI PUSH1 0x40 MLOAD PUSH32 0x8C379A000000000000000000000000000000000000000000000000000000000 DUP2 MSTORE PUSH1 0x4 ADD DUP1 DUP1 PUSH1 0x20 ADD DUP3 DUP2 SUB DUP3 MSTORE PUSH1 0xC DUP2 MSTORE PUSH1 0x20 ADD DUP1 PUSH32 0xE68A95E7A5A8E5A4B1E8B4A50000000000000000000000000000000000000000 DUP2 MSTORE POP PUSH1 0x20 ADD SWAP2 POP POP PUSH1 0x40 MLOAD DUP1 SWAP2 SUB SWAP1 REVERT JUMPDEST PUSH1 0x1 DUP1 PUSH1 0x0 CALLER PUSH20 0xFFFFFFFFFFFFFFFFFFFFFFFFFFFFFFFFFFFFFFFF AND PUSH20 0xFFFFFFFFFFFFFFFFFFFFFFFFFFFFFFFFFFFFFFFF AND DUP2 MSTORE PUSH1 0x20 ADD SWAP1 DUP2 MSTORE PUSH1 0x20 ADD PUSH1 0x0 KECCAK256 PUSH1 0x1 ADD PUSH1 0x0 PUSH2 0x100 EXP DUP2 SLOAD DUP2 PUSH1 0xFF MUL NOT AND SWAP1 DUP4 ISZERO ISZERO MUL OR SWAP1 SSTORE POP DUP3 PUSH1 0x1 PUSH1 0x0 CALLER PUSH20 0xFFFFFFFFFFFFFFFFFFFFFFFFFFFFFFFFFFFFFFFF AND PUSH20 0xFFFFFFFFFFFFFFFFFFFFFFFFFFFFFFFFFFFFFFFF AND DUP2 MSTORE PUSH1 0x20 ADD SWAP1 DUP2 MSTORE PUSH1 0x20 ADD PUSH1 0x0 KECCAK256 PUSH1 0x2 ADD DUP2 SWAP1 SSTORE POP DUP1 PUSH1 0x0 ADD MLOAD PUSH1 0x2 DUP5 DUP2 SLOAD DUP2 LT PUSH2 0x4B5 JUMPI INVALID JUMPDEST SWAP1 PUSH1 0x0 MSTORE PUSH1 0x20 PUSH1 0x0 KECCAK256 ADD PUSH1 0x0 ADD PUSH1 0x0 DUP3 DUP3 SLOAD ADD SWAP3 POP POP DUP2 SWAP1 SSTORE POP POP POP POP JUMP JUMPDEST PUSH1 0x2 DUP2 DUP2 SLOAD DUP2 LT PUSH2 0x4E1 JUMPI INVALID JUMPDEST SWAP1 PUSH1 0x0 MSTORE PUSH1 0x20 PUSH1 0x0 KECCAK256 ADD PUSH1 0x0 SWAP2 POP SWAP1 POP DUP1 PUSH1 0x0 ADD SLOAD SWAP1 POP DUP2 JUMP JUMPDEST PUSH1 0x0 DUP1 SLOAD SWAP1 PUSH2 0x100 EXP SWAP1 DIV PUSH20 0xFFFFFFFFFFFFFFFFFFFFFFFFFFFFFFFFFFFFFFFF AND DUP2 JUMP JUMPDEST PUSH1 0x1 DUP1 PUSH1 0x3 DUP2 GT ISZERO PUSH2 0x52D JUMPI INVALID JUMPDEST PUSH1 0x3 PUSH1 0x0 SWAP1 SLOAD SWAP1 PUSH2 0x100 EXP SWAP1 DIV PUSH1 0xFF AND PUSH1 0x3 DUP2 GT ISZERO PUSH2 0x548 JUMPI INVALID JUMPDEST EQ PUSH2 0x5BB JUMPI PUSH1 0x40 MLOAD PUSH32 0x8C379A000000000000000000000000000000000000000000000000000000000 DUP2 MSTORE PUSH1 0x4 ADD DUP1 DUP1 PUSH1 0x20 ADD DUP3 DUP2 SUB DUP3 MSTORE PUSH1 0x12 DUP2 MSTORE PUSH1 0x20 ADD DUP1 PUSH32 0xE68A95E7A5A8E998B6E6AEB5E4B88DE5AFB90000000000000000000000000000 DUP2 MSTORE POP PUSH1 0x20 ADD SWAP2 POP POP PUSH1 0x40 MLOAD DUP1 SWAP2 SUB SWAP1 REVERT JUMPDEST CALLER PUSH20 0xFFFFFFFFFFFFFFFFFFFFFFFFFFFFFFFFFFFFFFFF AND PUSH1 0x0 DUP1 SLOAD SWAP1 PUSH2 0x100 EXP SWAP1 DIV PUSH20 0xFFFFFFFFFFFFFFFFFFFFFFFFFFFFFFFFFFFFFFFF AND PUSH20 0xFFFFFFFFFFFFFFFFFFFFFFFFFFFFFFFFFFFFFFFF AND EQ ISZERO DUP1 PUSH2 0x662 JUMPI POP PUSH1 0x1 PUSH1 0x0 DUP4 PUSH20 0xFFFFFFFFFFFFFFFFFFFFFFFFFFFFFFFFFFFFFFFF AND PUSH20 0xFFFFFFFFFFFFFFFFFFFFFFFFFFFFFFFFFFFFFFFF AND DUP2 MSTORE PUSH1 0x20 ADD SWAP1 DUP2 MSTORE PUSH1 0x20 ADD PUSH1 0x0 KECCAK256 PUSH1 0x1 ADD PUSH1 0x0 SWAP1 SLOAD SWAP1 PUSH2 0x100 EXP SWAP1 DIV PUSH1 0xFF AND JUMPDEST ISZERO PUSH2 0x6D5 JUMPI PUSH1 0x40 MLOAD PUSH32 0x8C379A000000000000000000000000000000000000000000000000000000000 DUP2 MSTORE PUSH1 0x4 ADD DUP1 DUP1 PUSH1 0x20 ADD DUP3 DUP2 SUB DUP3 MSTORE PUSH1 0xC DUP2 MSTORE PUSH1 0x20 ADD DUP1 PUSH32 0xE6B3A8E5868CE5A4B1E8B4A50000000000000000000000000000000000000000 DUP2 MSTORE POP PUSH1 0x20 ADD SWAP2 POP POP PUSH1 0x40 MLOAD DUP1 SWAP2 SUB SWAP1 REVERT JUMPDEST PUSH1 0x1 DUP1 PUSH1 0x0 DUP5 PUSH20 0xFFFFFFFFFFFFFFFFFFFFFFFFFFFFFFFFFFFFFFFF AND PUSH20 0xFFFFFFFFFFFFFFFFFFFFFFFFFFFFFFFFFFFFFFFF AND DUP2 MSTORE PUSH1 0x20 ADD SWAP1 DUP2 MSTORE PUSH1 0x20 ADD PUSH1 0x0 KECCAK256 PUSH1 0x0 ADD DUP2 SWAP1 SSTORE POP PUSH1 0x0 PUSH1 0x1 PUSH1 0x0 DUP5 PUSH20 0xFFFFFFFFFFFFFFFFFFFFFFFFFFFFFFFFFFFFFFFF AND PUSH20 0xFFFFFFFFFFFFFFFFFFFFFFFFFFFFFFFFFFFFFFFF AND DUP2 MSTORE PUSH1 0x20 ADD SWAP1 DUP2 MSTORE PUSH1 0x20 ADD PUSH1 0x0 KECCAK256 PUSH1 0x1 ADD PUSH1 0x0 PUSH2 0x100 EXP DUP2 SLOAD DUP2 PUSH1 0xFF MUL NOT AND SWAP1 DUP4 ISZERO ISZERO MUL OR SWAP1 SSTORE POP POP POP JUMP JUMPDEST PUSH1 0x0 DUP1 PUSH1 0x3 DUP1 PUSH1 0x3 DUP2 GT ISZERO PUSH2 0x78C JUMPI INVALID JUMPDEST PUSH1 0x3 PUSH1 0x0 SWAP1 SLOAD SWAP1 PUSH2 0x100 EXP SWAP1 DIV PUSH1 0xFF AND PUSH1 0x3 DUP2 GT ISZERO PUSH2 0x7A7 JUMPI INVALID JUMPDEST EQ PUSH2 0x81A JUMPI PUSH1 0x40 MLOAD PUSH32 0x8C379A000000000000000000000000000000000000000000000000000000000 DUP2 MSTORE PUSH1 0x4 ADD DUP1 DUP1 PUSH1 0x20 ADD DUP3 DUP2 SUB DUP3 MSTORE PUSH1 0x12 DUP2 MSTORE PUSH1 0x20 ADD DUP1 PUSH32 0xE68A95E7A5A8E998B6E6AEB5E4B88DE5AFB90000000000000000000000000000 DUP2 MSTORE POP PUSH1 0x20 ADD SWAP2 POP POP PUSH1 0x40 MLOAD DUP1 SWAP2 SUB SWAP1 REVERT JUMPDEST PUSH1 0x0 JUMPDEST PUSH1 0x2 DUP1 SLOAD SWAP1 POP DUP2 LT ISZERO PUSH2 0x87A JUMPI DUP3 PUSH1 0x2 DUP3 DUP2 SLOAD DUP2 LT PUSH2 0x838 JUMPI INVALID JUMPDEST SWAP1 PUSH1 0x0 MSTORE PUSH1 0x20 PUSH1 0x0 KECCAK256 ADD PUSH1 0x0 ADD SLOAD GT ISZERO PUSH2 0x86D JUMPI DUP1 SWAP4 POP PUSH1 0x2 DUP2 DUP2 SLOAD DUP2 LT PUSH2 0x85C JUMPI INVALID JUMPDEST SWAP1 PUSH1 0x0 MSTORE PUSH1 0x20 PUSH1 0x0 KECCAK256 ADD PUSH1 0x0 ADD SLOAD SWAP3 POP JUMPDEST DUP1 DUP1 PUSH1 0x1 ADD SWAP2 POP POP PUSH2 0x81D JUMP JUMPDEST POP POP SWAP1 SWAP2 JUMP JUMPDEST PUSH1 0x1 PUSH1 0x20 MSTORE DUP1 PUSH1 0x0 MSTORE PUSH1 0x40 PUSH1 0x0 KECCAK256 PUSH1 0x0 SWAP2 POP SWAP1 POP DUP1 PUSH1 0x0 ADD SLOAD SWAP1 DUP1 PUSH1 0x1 ADD PUSH1 0x0 SWAP1 SLOAD SWAP1 PUSH2 0x100 EXP SWAP1 DIV PUSH1 0xFF AND SWAP1 DUP1 PUSH1 0x2 ADD SLOAD SWAP1 POP DUP4 JUMP JUMPDEST PUSH1 0x3 PUSH1 0x0 SWAP1 SLOAD SWAP1 PUSH2 0x100 EXP SWAP1 DIV PUSH1 0xFF AND DUP2 JUMP JUMPDEST PUSH1 0x0 DUP1 SLOAD SWAP1 PUSH2 0x100 EXP SWAP1 DIV PUSH20 0xFFFFFFFFFFFFFFFFFFFFFFFFFFFFFFFFFFFFFFFF AND PUSH20 0xFFFFFFFFFFFFFFFFFFFFFFFFFFFFFFFFFFFFFFFF AND CALLER PUSH20 0xFFFFFFFFFFFFFFFFFFFFFFFFFFFFFFFFFFFFFFFF AND EQ PUSH2 0x96E JUMPI PUSH1 0x40 MLOAD PUSH32 0x8C379A000000000000000000000000000000000000000000000000000000000 DUP2 MSTORE PUSH1 0x4 ADD DUP1 DUP1 PUSH1 0x20 ADD DUP3 DUP2 SUB DUP3 MSTORE PUSH1 0x27 DUP2 MSTORE PUSH1 0x20 ADD DUP1 PUSH2 0xAED PUSH1 0x27 SWAP2 CODECOPY PUSH1 0x40 ADD SWAP2 POP POP PUSH1 0x40 MLOAD DUP1 SWAP2 SUB SWAP1 REVERT JUMPDEST PUSH1 0x3 PUSH1 0x0 SWAP1 SLOAD SWAP1 PUSH2 0x100 EXP SWAP1 DIV PUSH1 0xFF AND PUSH1 0x3 DUP2 GT ISZERO PUSH2 0x989 JUMPI INVALID JUMPDEST DUP2 PUSH1 0x3 DUP2 GT ISZERO PUSH2 0x995 JUMPI INVALID JUMPDEST GT PUSH2 0xA08 JUMPI PUSH1 0x40 MLOAD PUSH32 0x8C379A000000000000000000000000000000000000000000000000000000000 DUP2 MSTORE PUSH1 0x4 ADD DUP1 DUP1 PUSH1 0x20 ADD DUP3 DUP2 SUB DUP3 MSTORE PUSH1 0x1B DUP2 MSTORE PUSH1 0x20 ADD DUP1 PUSH32 0xE58FAAE883BDE8AEBEE7BDAEE4B88BE4B880E4B8AAE78AB6E680810000000000 DUP2 MSTORE POP PUSH1 0x20 ADD SWAP2 POP POP PUSH1 0x40 MLOAD DUP1 SWAP2 SUB SWAP1 REVERT JUMPDEST PUSH1 0x3 DUP1 DUP2 GT ISZERO PUSH2 0xA14 JUMPI INVALID JUMPDEST PUSH1 0x3 PUSH1 0x0 SWAP1 SLOAD SWAP1 PUSH2 0x100 EXP SWAP1 DIV PUSH1 0xFF AND PUSH1 0x3 DUP2 GT ISZERO PUSH2 0xA2F JUMPI INVALID JUMPDEST EQ ISZERO PUSH2 0xAA3 JUMPI PUSH1 0x40 MLOAD PUSH32 0x8C379A000000000000000000000000000000000000000000000000000000000 DUP2 MSTORE PUSH1 0x4 ADD DUP1 DUP1 PUSH1 0x20 ADD DUP3 DUP2 SUB DUP3 MSTORE PUSH1 0xF DUP2 MSTORE PUSH1 0x20 ADD DUP1 PUSH32 0xE68A95E7A5A8E5B7B2E7BB93E69D9F0000000000000000000000000000000000 DUP2 MSTORE POP PUSH1 0x20 ADD SWAP2 POP POP PUSH1 0x40 MLOAD DUP1 SWAP2 SUB SWAP1 REVERT JUMPDEST DUP1 PUSH1 0x3 PUSH1 0x0 PUSH2 0x100 EXP DUP2 SLOAD DUP2 PUSH1 0xFF MUL NOT AND SWAP1 DUP4 PUSH1 0x3 DUP2 GT ISZERO PUSH2 0xAC1 JUMPI INVALID JUMPDEST MUL OR SWAP1 SSTORE POP POP JUMP JUMPDEST PUSH1 0x40 MLOAD DUP1 PUSH1 0x60 ADD PUSH1 0x40 MSTORE DUP1 PUSH1 0x0 DUP2 MSTORE PUSH1 0x20 ADD PUSH1 0x0 ISZERO ISZERO DUP2 MSTORE PUSH1 0x20 ADD PUSH1 0x0 DUP2 MSTORE POP SWAP1 JUMP INVALID 0xE5 DUP16 0xAA 0xE6 SWAP13 DUP10 0xE4 0xB8 0xBB 0xE5 0xB8 0xAD 0xE6 DUP10 DUP14 0xE5 DUP16 0xAF 0xE4 0xBB 0xA5 0xE6 SWAP5 0xB9 0xE5 DUP16 SWAP9 0xE6 DUP11 SWAP6 0xE7 0xA5 0xA8 0xE7 DUP11 0xB6 0xE6 DUP1 DUP2 LOG2 PUSH5 0x6970667358 0x22 SLT KECCAK256 0xBE 0xB7 DELEGATECALL CALLER 0x24 0xBA GAS CALLCODE 0xBA 0xF6 0xBD 0xDE SUB 0xC2 0xE0 DUP2 0xBE SWAP10 PUSH24 0xC93E9E96896E7FC7E9FDA136A064736F6C634300060C0033 "
				},
				"gasEstimates": {
					"creation": {
						"codeDepositCost": "577800",
						"executionCost": "infinite",
						"totalCost": "infinite"
					},
					"external": {
						"chairperson()": "1089",
						"changeStates(uint8)": "infinite",
						"proposals(uint256)": "2017",
						"register(address)": "44117",
						"reqWinnProp()": "infinite",
						"state()": "1111",
						"vote(uint256)": "67563",
						"voters(address)": "2911"
					}
				},
				"methodIdentifiers": {
					"chairperson()": "2e4176cf",
					"changeStates(uint8)": "d627c132",
					"proposals(uint256)": "013cf08b",
					"register(address)": "4420e486",
					"reqWinnProp()": "811061f3",
					"state()": "c19d93fb",
					"vote(uint256)": "0121b93f",
					"voters(address)": "a3ec138d"
				}
			},
			"storageLayout": {
				"storage": [
					{
						"astId": 3,
						"contract": "BallotV3.sol:BallotV3",
						"label": "chairperson",
						"offset": 0,
						"slot": "0",
						"type": "t_address"
					},
					{
						"astId": 14,
						"contract": "BallotV3.sol:BallotV3",
						"label": "voters",
						"offset": 0,
						"slot": "1",
						"type": "t_mapping(t_address,t_struct(Voter)10_storage)"
					},
					{
						"astId": 20,
						"contract": "BallotV3.sol:BallotV3",
						"label": "proposals",
						"offset": 0,
						"slot": "2",
						"type": "t_array(t_struct(Proposal)17_storage)dyn_storage"
					},
					{
						"astId": 29,
						"contract": "BallotV3.sol:BallotV3",
						"label": "state",
						"offset": 0,
						"slot": "3",
						"type": "t_enum(Phase)25"
					}
				],
				"types": {
					"t_address": {
						"encoding": "inplace",
						"label": "address",
						"numberOfBytes": "20"
					},
					"t_array(t_struct(Proposal)17_storage)dyn_storage": {
						"base": "t_struct(Proposal)17_storage",
						"encoding": "dynamic_array",
						"label": "struct BallotV3.Proposal[]",
						"numberOfBytes": "32"
					},
					"t_bool": {
						"encoding": "inplace",
						"label": "bool",
						"numberOfBytes": "1"
					},
					"t_enum(Phase)25": {
						"encoding": "inplace",
						"label": "enum BallotV3.Phase",
						"numberOfBytes": "1"
					},
					"t_mapping(t_address,t_struct(Voter)10_storage)": {
						"encoding": "mapping",
						"key": "t_address",
						"label": "mapping(address => struct BallotV3.Voter)",
						"numberOfBytes": "32",
						"value": "t_struct(Voter)10_storage"
					},
					"t_struct(Proposal)17_storage": {
						"encoding": "inplace",
						"label": "struct BallotV3.Proposal",
						"members": [
							{
								"astId": 16,
								"contract": "BallotV3.sol:BallotV3",
								"label": "voteCount",
								"offset": 0,
								"slot": "0",
								"type": "t_uint256"
							}
						],
						"numberOfBytes": "32"
					},
					"t_struct(Voter)10_storage": {
						"encoding": "inplace",
						"label": "struct BallotV3.Voter",
						"members": [
							{
								"astId": 5,
								"contract": "BallotV3.sol:BallotV3",
								"label": "weight",
								"offset": 0,
								"slot": "0",
								"type": "t_uint256"
							},
							{
								"astId": 7,
								"contract": "BallotV3.sol:BallotV3",
								"label": "voted",
								"offset": 0,
								"slot": "1",
								"type": "t_bool"
							},
							{
								"astId": 9,
								"contract": "BallotV3.sol:BallotV3",
								"label": "vote",
								"offset": 0,
								"slot": "2",
								"type": "t_uint256"
							}
						],
						"numberOfBytes": "96"
					},
					"t_uint256": {
						"encoding": "inplace",
						"label": "uint256",
						"numberOfBytes": "32"
					}
				}
			},
			"userdoc": {
				"kind": "user",
				"methods": {},
				"version": 1
			}
		}
	}
}